{"abi":[{"type":"constructor","inputs":[{"name":"_token","type":"address","internalType":"contract IVotes"},{"name":"_timelock","type":"address","internalType":"contract TimelockController"},{"name":"_quorumPercentage","type":"uint256","internalType":"uint256"},{"name":"_votingDelay","type":"uint48","internalType":"uint48"},{"name":"_votingPeriod","type":"uint32","internalType":"uint32"},{"name":"_proposalThreshold","type":"uint256","internalType":"uint256"}],"stateMutability":"nonpayable"},{"type":"receive","stateMutability":"payable"},{"type":"function","name":"BALLOT_TYPEHASH","inputs":[],"outputs":[{"name":"","type":"bytes32","internalType":"bytes32"}],"stateMutability":"view"},{"type":"function","name":"CLOCK_MODE","inputs":[],"outputs":[{"name":"","type":"string","internalType":"string"}],"stateMutability":"view"},{"type":"function","name":"COUNTING_MODE","inputs":[],"outputs":[{"name":"","type":"string","internalType":"string"}],"stateMutability":"pure"},{"type":"function","name":"EXTENDED_BALLOT_TYPEHASH","inputs":[],"outputs":[{"name":"","type":"bytes32","internalType":"bytes32"}],"stateMutability":"view"},{"type":"function","name":"cancel","inputs":[{"name":"targets","type":"address[]","internalType":"address[]"},{"name":"values","type":"uint256[]","internalType":"uint256[]"},{"name":"calldatas","type":"bytes[]","internalType":"bytes[]"},{"name":"descriptionHash","type":"bytes32","internalType":"bytes32"}],"outputs":[{"name":"","type":"uint256","internalType":"uint256"}],"stateMutability":"nonpayable"},{"type":"function","name":"castVote","inputs":[{"name":"proposalId","type":"uint256","internalType":"uint256"},{"name":"support","type":"uint8","internalType":"uint8"}],"outputs":[{"name":"","type":"uint256","internalType":"uint256"}],"stateMutability":"nonpayable"},{"type":"function","name":"castVoteBySig","inputs":[{"name":"proposalId","type":"uint256","internalType":"uint256"},{"name":"support","type":"uint8","internalType":"uint8"},{"name":"voter","type":"address","internalType":"address"},{"name":"signature","type":"bytes","internalType":"bytes"}],"outputs":[{"name":"","type":"uint256","internalType":"uint256"}],"stateMutability":"nonpayable"},{"type":"function","name":"castVoteWithReason","inputs":[{"name":"proposalId","type":"uint256","internalType":"uint256"},{"name":"support","type":"uint8","internalType":"uint8"},{"name":"reason","type":"string","internalType":"string"}],"outputs":[{"name":"","type":"uint256","internalType":"uint256"}],"stateMutability":"nonpayable"},{"type":"function","name":"castVoteWithReasonAndParams","inputs":[{"name":"proposalId","type":"uint256","internalType":"uint256"},{"name":"support","type":"uint8","internalType":"uint8"},{"name":"reason","type":"string","internalType":"string"},{"name":"params","type":"bytes","internalType":"bytes"}],"outputs":[{"name":"","type":"uint256","internalType":"uint256"}],"stateMutability":"nonpayable"},{"type":"function","name":"castVoteWithReasonAndParamsBySig","inputs":[{"name":"proposalId","type":"uint256","internalType":"uint256"},{"name":"support","type":"uint8","internalType":"uint8"},{"name":"voter","type":"address","internalType":"address"},{"name":"reason","type":"string","internalType":"string"},{"name":"params","type":"bytes","internalType":"bytes"},{"name":"signature","type":"bytes","internalType":"bytes"}],"outputs":[{"name":"","type":"uint256","internalType":"uint256"}],"stateMutability":"nonpayable"},{"type":"function","name":"clock","inputs":[],"outputs":[{"name":"","type":"uint48","internalType":"uint48"}],"stateMutability":"view"},{"type":"function","name":"eip712Domain","inputs":[],"outputs":[{"name":"fields","type":"bytes1","internalType":"bytes1"},{"name":"name","type":"string","internalType":"string"},{"name":"version","type":"string","internalType":"string"},{"name":"chainId","type":"uint256","internalType":"uint256"},{"name":"verifyingContract","type":"address","internalType":"address"},{"name":"salt","type":"bytes32","internalType":"bytes32"},{"name":"extensions","type":"uint256[]","internalType":"uint256[]"}],"stateMutability":"view"},{"type":"function","name":"execute","inputs":[{"name":"targets","type":"address[]","internalType":"address[]"},{"name":"values","type":"uint256[]","internalType":"uint256[]"},{"name":"calldatas","type":"bytes[]","internalType":"bytes[]"},{"name":"descriptionHash","type":"bytes32","internalType":"bytes32"}],"outputs":[{"name":"","type":"uint256","internalType":"uint256"}],"stateMutability":"payable"},{"type":"function","name":"getProposalId","inputs":[{"name":"targets","type":"address[]","internalType":"address[]"},{"name":"values","type":"uint256[]","internalType":"uint256[]"},{"name":"calldatas","type":"bytes[]","internalType":"bytes[]"},{"name":"descriptionHash","type":"bytes32","internalType":"bytes32"}],"outputs":[{"name":"","type":"uint256","internalType":"uint256"}],"stateMutability":"view"},{"type":"function","name":"getVotes","inputs":[{"name":"account","type":"address","internalType":"address"},{"name":"timepoint","type":"uint256","internalType":"uint256"}],"outputs":[{"name":"","type":"uint256","internalType":"uint256"}],"stateMutability":"view"},{"type":"function","name":"getVotesWithParams","inputs":[{"name":"account","type":"address","internalType":"address"},{"name":"timepoint","type":"uint256","internalType":"uint256"},{"name":"params","type":"bytes","internalType":"bytes"}],"outputs":[{"name":"","type":"uint256","internalType":"uint256"}],"stateMutability":"view"},{"type":"function","name":"hasVoted","inputs":[{"name":"proposalId","type":"uint256","internalType":"uint256"},{"name":"account","type":"address","internalType":"address"}],"outputs":[{"name":"","type":"bool","internalType":"bool"}],"stateMutability":"view"},{"type":"function","name":"hashProposal","inputs":[{"name":"targets","type":"address[]","internalType":"address[]"},{"name":"values","type":"uint256[]","internalType":"uint256[]"},{"name":"calldatas","type":"bytes[]","internalType":"bytes[]"},{"name":"descriptionHash","type":"bytes32","internalType":"bytes32"}],"outputs":[{"name":"","type":"uint256","internalType":"uint256"}],"stateMutability":"pure"},{"type":"function","name":"name","inputs":[],"outputs":[{"name":"","type":"string","internalType":"string"}],"stateMutability":"view"},{"type":"function","name":"nonces","inputs":[{"name":"owner","type":"address","internalType":"address"}],"outputs":[{"name":"","type":"uint256","internalType":"uint256"}],"stateMutability":"view"},{"type":"function","name":"onERC1155BatchReceived","inputs":[{"name":"","type":"address","internalType":"address"},{"name":"","type":"address","internalType":"address"},{"name":"","type":"uint256[]","internalType":"uint256[]"},{"name":"","type":"uint256[]","internalType":"uint256[]"},{"name":"","type":"bytes","internalType":"bytes"}],"outputs":[{"name":"","type":"bytes4","internalType":"bytes4"}],"stateMutability":"nonpayable"},{"type":"function","name":"onERC1155Received","inputs":[{"name":"","type":"address","internalType":"address"},{"name":"","type":"address","internalType":"address"},{"name":"","type":"uint256","internalType":"uint256"},{"name":"","type":"uint256","internalType":"uint256"},{"name":"","type":"bytes","internalType":"bytes"}],"outputs":[{"name":"","type":"bytes4","internalType":"bytes4"}],"stateMutability":"nonpayable"},{"type":"function","name":"onERC721Received","inputs":[{"name":"","type":"address","internalType":"address"},{"name":"","type":"address","internalType":"address"},{"name":"","type":"uint256","internalType":"uint256"},{"name":"","type":"bytes","internalType":"bytes"}],"outputs":[{"name":"","type":"bytes4","internalType":"bytes4"}],"stateMutability":"nonpayable"},{"type":"function","name":"proposalDeadline","inputs":[{"name":"proposalId","type":"uint256","internalType":"uint256"}],"outputs":[{"name":"","type":"uint256","internalType":"uint256"}],"stateMutability":"view"},{"type":"function","name":"proposalEta","inputs":[{"name":"proposalId","type":"uint256","internalType":"uint256"}],"outputs":[{"name":"","type":"uint256","internalType":"uint256"}],"stateMutability":"view"},{"type":"function","name":"proposalNeedsQueuing","inputs":[{"name":"proposalId","type":"uint256","internalType":"uint256"}],"outputs":[{"name":"","type":"bool","internalType":"bool"}],"stateMutability":"view"},{"type":"function","name":"proposalProposer","inputs":[{"name":"proposalId","type":"uint256","internalType":"uint256"}],"outputs":[{"name":"","type":"address","internalType":"address"}],"stateMutability":"view"},{"type":"function","name":"proposalSnapshot","inputs":[{"name":"proposalId","type":"uint256","internalType":"uint256"}],"outputs":[{"name":"","type":"uint256","internalType":"uint256"}],"stateMutability":"view"},{"type":"function","name":"proposalThreshold","inputs":[],"outputs":[{"name":"","type":"uint256","internalType":"uint256"}],"stateMutability":"view"},{"type":"function","name":"proposalVotes","inputs":[{"name":"proposalId","type":"uint256","internalType":"uint256"}],"outputs":[{"name":"againstVotes","type":"uint256","internalType":"uint256"},{"name":"forVotes","type":"uint256","internalType":"uint256"},{"name":"abstainVotes","type":"uint256","internalType":"uint256"}],"stateMutability":"view"},{"type":"function","name":"propose","inputs":[{"name":"targets","type":"address[]","internalType":"address[]"},{"name":"values","type":"uint256[]","internalType":"uint256[]"},{"name":"calldatas","type":"bytes[]","internalType":"bytes[]"},{"name":"description","type":"string","internalType":"string"}],"outputs":[{"name":"","type":"uint256","internalType":"uint256"}],"stateMutability":"nonpayable"},{"type":"function","name":"queue","inputs":[{"name":"targets","type":"address[]","internalType":"address[]"},{"name":"values","type":"uint256[]","internalType":"uint256[]"},{"name":"calldatas","type":"bytes[]","internalType":"bytes[]"},{"name":"descriptionHash","type":"bytes32","internalType":"bytes32"}],"outputs":[{"name":"","type":"uint256","internalType":"uint256"}],"stateMutability":"nonpayable"},{"type":"function","name":"quorum","inputs":[{"name":"blockNumber","type":"uint256","internalType":"uint256"}],"outputs":[{"name":"","type":"uint256","internalType":"uint256"}],"stateMutability":"view"},{"type":"function","name":"quorumDenominator","inputs":[],"outputs":[{"name":"","type":"uint256","internalType":"uint256"}],"stateMutability":"view"},{"type":"function","name":"quorumNumerator","inputs":[{"name":"timepoint","type":"uint256","internalType":"uint256"}],"outputs":[{"name":"","type":"uint256","internalType":"uint256"}],"stateMutability":"view"},{"type":"function","name":"quorumNumerator","inputs":[],"outputs":[{"name":"","type":"uint256","internalType":"uint256"}],"stateMutability":"view"},{"type":"function","name":"relay","inputs":[{"name":"target","type":"address","internalType":"address"},{"name":"value","type":"uint256","internalType":"uint256"},{"name":"data","type":"bytes","internalType":"bytes"}],"outputs":[],"stateMutability":"payable"},{"type":"function","name":"setProposalThreshold","inputs":[{"name":"newProposalThreshold","type":"uint256","internalType":"uint256"}],"outputs":[],"stateMutability":"nonpayable"},{"type":"function","name":"setVotingDelay","inputs":[{"name":"newVotingDelay","type":"uint48","internalType":"uint48"}],"outputs":[],"stateMutability":"nonpayable"},{"type":"function","name":"setVotingPeriod","inputs":[{"name":"newVotingPeriod","type":"uint32","internalType":"uint32"}],"outputs":[],"stateMutability":"nonpayable"},{"type":"function","name":"state","inputs":[{"name":"proposalId","type":"uint256","internalType":"uint256"}],"outputs":[{"name":"","type":"uint8","internalType":"enum IGovernor.ProposalState"}],"stateMutability":"view"},{"type":"function","name":"supportsInterface","inputs":[{"name":"interfaceId","type":"bytes4","internalType":"bytes4"}],"outputs":[{"name":"","type":"bool","internalType":"bool"}],"stateMutability":"view"},{"type":"function","name":"timelock","inputs":[],"outputs":[{"name":"","type":"address","internalType":"address"}],"stateMutability":"view"},{"type":"function","name":"token","inputs":[],"outputs":[{"name":"","type":"address","internalType":"contract IERC5805"}],"stateMutability":"view"},{"type":"function","name":"updateQuorumNumerator","inputs":[{"name":"newQuorumNumerator","type":"uint256","internalType":"uint256"}],"outputs":[],"stateMutability":"nonpayable"},{"type":"function","name":"updateTimelock","inputs":[{"name":"newTimelock","type":"address","internalType":"contract TimelockController"}],"outputs":[],"stateMutability":"nonpayable"},{"type":"function","name":"version","inputs":[],"outputs":[{"name":"","type":"string","internalType":"string"}],"stateMutability":"view"},{"type":"function","name":"votingDelay","inputs":[],"outputs":[{"name":"","type":"uint256","internalType":"uint256"}],"stateMutability":"view"},{"type":"function","name":"votingPeriod","inputs":[],"outputs":[{"name":"","type":"uint256","internalType":"uint256"}],"stateMutability":"view"},{"type":"event","name":"EIP712DomainChanged","inputs":[],"anonymous":false},{"type":"event","name":"ProposalCanceled","inputs":[{"name":"proposalId","type":"uint256","indexed":false,"internalType":"uint256"}],"anonymous":false},{"type":"event","name":"ProposalCreated","inputs":[{"name":"proposalId","type":"uint256","indexed":false,"internalType":"uint256"},{"name":"proposer","type":"address","indexed":false,"internalType":"address"},{"name":"targets","type":"address[]","indexed":false,"internalType":"address[]"},{"name":"values","type":"uint256[]","indexed":false,"internalType":"uint256[]"},{"name":"signatures","type":"string[]","indexed":false,"internalType":"string[]"},{"name":"calldatas","type":"bytes[]","indexed":false,"internalType":"bytes[]"},{"name":"voteStart","type":"uint256","indexed":false,"internalType":"uint256"},{"name":"voteEnd","type":"uint256","indexed":false,"internalType":"uint256"},{"name":"description","type":"string","indexed":false,"internalType":"string"}],"anonymous":false},{"type":"event","name":"ProposalExecuted","inputs":[{"name":"proposalId","type":"uint256","indexed":false,"internalType":"uint256"}],"anonymous":false},{"type":"event","name":"ProposalQueued","inputs":[{"name":"proposalId","type":"uint256","indexed":false,"internalType":"uint256"},{"name":"etaSeconds","type":"uint256","indexed":false,"internalType":"uint256"}],"anonymous":false},{"type":"event","name":"ProposalThresholdSet","inputs":[{"name":"oldProposalThreshold","type":"uint256","indexed":false,"internalType":"uint256"},{"name":"newProposalThreshold","type":"uint256","indexed":false,"internalType":"uint256"}],"anonymous":false},{"type":"event","name":"QuorumNumeratorUpdated","inputs":[{"name":"oldQuorumNumerator","type":"uint256","indexed":false,"internalType":"uint256"},{"name":"newQuorumNumerator","type":"uint256","indexed":false,"internalType":"uint256"}],"anonymous":false},{"type":"event","name":"TimelockChange","inputs":[{"name":"oldTimelock","type":"address","indexed":false,"internalType":"address"},{"name":"newTimelock","type":"address","indexed":false,"internalType":"address"}],"anonymous":false},{"type":"event","name":"VoteCast","inputs":[{"name":"voter","type":"address","indexed":true,"internalType":"address"},{"name":"proposalId","type":"uint256","indexed":false,"internalType":"uint256"},{"name":"support","type":"uint8","indexed":false,"internalType":"uint8"},{"name":"weight","type":"uint256","indexed":false,"internalType":"uint256"},{"name":"reason","type":"string","indexed":false,"internalType":"string"}],"anonymous":false},{"type":"event","name":"VoteCastWithParams","inputs":[{"name":"voter","type":"address","indexed":true,"internalType":"address"},{"name":"proposalId","type":"uint256","indexed":false,"internalType":"uint256"},{"name":"support","type":"uint8","indexed":false,"internalType":"uint8"},{"name":"weight","type":"uint256","indexed":false,"internalType":"uint256"},{"name":"reason","type":"string","indexed":false,"internalType":"string"},{"name":"params","type":"bytes","indexed":false,"internalType":"bytes"}],"anonymous":false},{"type":"event","name":"VotingDelaySet","inputs":[{"name":"oldVotingDelay","type":"uint256","indexed":false,"internalType":"uint256"},{"name":"newVotingDelay","type":"uint256","indexed":false,"internalType":"uint256"}],"anonymous":false},{"type":"event","name":"VotingPeriodSet","inputs":[{"name":"oldVotingPeriod","type":"uint256","indexed":false,"internalType":"uint256"},{"name":"newVotingPeriod","type":"uint256","indexed":false,"internalType":"uint256"}],"anonymous":false},{"type":"error","name":"CheckpointUnorderedInsertion","inputs":[]},{"type":"error","name":"FailedCall","inputs":[]},{"type":"error","name":"GovernorAlreadyCastVote","inputs":[{"name":"voter","type":"address","internalType":"address"}]},{"type":"error","name":"GovernorAlreadyQueuedProposal","inputs":[{"name":"proposalId","type":"uint256","internalType":"uint256"}]},{"type":"error","name":"GovernorDisabledDeposit","inputs":[]},{"type":"error","name":"GovernorInsufficientProposerVotes","inputs":[{"name":"proposer","type":"address","internalType":"address"},{"name":"votes","type":"uint256","internalType":"uint256"},{"name":"threshold","type":"uint256","internalType":"uint256"}]},{"type":"error","name":"GovernorInvalidProposalLength","inputs":[{"name":"targets","type":"uint256","internalType":"uint256"},{"name":"calldatas","type":"uint256","internalType":"uint256"},{"name":"values","type":"uint256","internalType":"uint256"}]},{"type":"error","name":"GovernorInvalidQuorumFraction","inputs":[{"name":"quorumNumerator","type":"uint256","internalType":"uint256"},{"name":"quorumDenominator","type":"uint256","internalType":"uint256"}]},{"type":"error","name":"GovernorInvalidSignature","inputs":[{"name":"voter","type":"address","internalType":"address"}]},{"type":"error","name":"GovernorInvalidVoteParams","inputs":[]},{"type":"error","name":"GovernorInvalidVoteType","inputs":[]},{"type":"error","name":"GovernorInvalidVotingPeriod","inputs":[{"name":"votingPeriod","type":"uint256","internalType":"uint256"}]},{"type":"error","name":"GovernorNonexistentProposal","inputs":[{"name":"proposalId","type":"uint256","internalType":"uint256"}]},{"type":"error","name":"GovernorNotQueuedProposal","inputs":[{"name":"proposalId","type":"uint256","internalType":"uint256"}]},{"type":"error","name":"GovernorOnlyExecutor","inputs":[{"name":"account","type":"address","internalType":"address"}]},{"type":"error","name":"GovernorQueueNotImplemented","inputs":[]},{"type":"error","name":"GovernorRestrictedProposer","inputs":[{"name":"proposer","type":"address","internalType":"address"}]},{"type":"error","name":"GovernorUnableToCancel","inputs":[{"name":"proposalId","type":"uint256","internalType":"uint256"},{"name":"account","type":"address","internalType":"address"}]},{"type":"error","name":"GovernorUnexpectedProposalState","inputs":[{"name":"proposalId","type":"uint256","internalType":"uint256"},{"name":"current","type":"uint8","internalType":"enum IGovernor.ProposalState"},{"name":"expectedStates","type":"bytes32","internalType":"bytes32"}]},{"type":"error","name":"InvalidAccountNonce","inputs":[{"name":"account","type":"address","internalType":"address"},{"name":"currentNonce","type":"uint256","internalType":"uint256"}]},{"type":"error","name":"InvalidShortString","inputs":[]},{"type":"error","name":"SafeCastOverflowedUintDowncast","inputs":[{"name":"bits","type":"uint8","internalType":"uint8"},{"name":"value","type":"uint256","internalType":"uint256"}]},{"type":"error","name":"StringTooLong","inputs":[{"name":"str","type":"string","internalType":"string"}]}],"bytecode":{"object":"0x610180604052348015610010575f5ffd5b506040516185d83803806185d883398181016040528101906100329190610caf565b8484878585856040518060400160405280600c81526020017f44515020476f7665726e6f7200000000000000000000000000000000000000008152508061007d6101c860201b60201c565b6100905f8361020560201b90919060201c565b61012081815250506100ac60018261020560201b90919060201c565b6101408181525050818051906020012060e08181525050808051906020012061010081815250504660a081815250506100e961025260201b60201c565b608081815250503073ffffffffffffffffffffffffffffffffffffffff1660c08173ffffffffffffffffffffffffffffffffffffffff1681525050505080600390816101359190610f6c565b5050610146836102ac60201b60201c565b6101558261031f60201b60201c565b610164816103d860201b60201c565b5050508073ffffffffffffffffffffffffffffffffffffffff166101608173ffffffffffffffffffffffffffffffffffffffff1681525050506101ac8161041d60201b60201c565b506101bc816104f760201b60201c565b50505050505050611480565b60606040518060400160405280600181526020017f3100000000000000000000000000000000000000000000000000000000000000815250905090565b5f6020835110156102265761021f8361059460201b60201c565b905061024c565b82610236836105f960201b60201c565b5f0190816102449190610f6c565b5060ff5f1b90505b92915050565b5f7f8b73c3c69bb8fe3d512ecc4cf759cc79239f7b179b0ffacaa9a75d522b39400f60e051610100514630604051602001610291959493929190611071565b60405160208183030381529060405280519060200120905090565b7fc565b045403dc03c2eea82b81a0465edad9e2e7fc4d97e11421c209da93d7a9360085f9054906101000a900465ffffffffffff16826040516102f09291906110f2565b60405180910390a18060085f6101000a81548165ffffffffffff021916908365ffffffffffff16021790555050565b5f8163ffffffff1603610369575f6040517ff1cfbf050000000000000000000000000000000000000000000000000000000081526004016103609190611152565b60405180910390fd5b7f7e3f7f0708a84de9203036abaa450dccc85ad5ff52f78c170f3edb55cf5e8828600860069054906101000a900463ffffffff16826040516103ac92919061119b565b60405180910390a180600860066101000a81548163ffffffff021916908363ffffffff16021790555050565b7fccb45da8d5717e6c4544694297c4ba5cf151d455c9bb0ed4fc7a38411bc054616007548260405161040b9291906111c2565b60405180910390a18060078190555050565b5f61042c61060260201b60201c565b9050808211156104755781816040517f243e544500000000000000000000000000000000000000000000000000000000815260040161046c9291906111c2565b60405180910390fd5b5f61048461060a60201b60201c565b90506104b761049761063c60201b60201c565b6104a6856106d360201b60201c565b600a61074060201b9092919060201c565b50507f0553476bf02ef2726e8ce5ced78d63e26e602e4a2257b1f559418e24b463399781846040516104ea9291906111c2565b60405180910390a1505050565b7f08f74ea46ef7894f65eabfb5e6e695de773a000b47c529ab559178069b226401600b5f9054906101000a900473ffffffffffffffffffffffffffffffffffffffff16826040516105499291906111e9565b60405180910390a180600b5f6101000a81548173ffffffffffffffffffffffffffffffffffffffff021916908373ffffffffffffffffffffffffffffffffffffffff16021790555050565b5f5f829050601f815111156105e057826040517f305a27a90000000000000000000000000000000000000000000000000000000081526004016105d79190611276565b60405180910390fd5b8051816105ec906112c3565b5f1c175f1b915050919050565b5f819050919050565b5f6064905090565b5f61061b600a61076160201b60201c565b79ffffffffffffffffffffffffffffffffffffffffffffffffffff16905090565b5f61064b6107c960201b60201c565b73ffffffffffffffffffffffffffffffffffffffff166391ddadf46040518163ffffffff1660e01b8152600401602060405180830381865afa9250505080156106b257506040513d601f19601f820116820180604052508101906106af9190611329565b60015b6106cb576106c46107d360201b60201c565b90506106d0565b809150505b90565b5f79ffffffffffffffffffffffffffffffffffffffffffffffffffff80168211156107385760d0826040517f6dfcc65000000000000000000000000000000000000000000000000000000000815260040161072f929190611399565b60405180910390fd5b819050919050565b5f5f610755855f0185856107e860201b60201c565b91509150935093915050565b5f5f825f018054905090505f81146107bf57610791835f0160018361078691906113ed565b610ae260201b60201c565b5f0160069054906101000a900479ffffffffffffffffffffffffffffffffffffffffffffffffffff166107c1565b5f5b915050919050565b5f61016051905090565b5f6107e343610af460201b60201c565b905090565b5f5f5f858054905090505f8111156109fa575f6108178760018461080c91906113ed565b610ae260201b60201c565b90505f815f015f9054906101000a900465ffffffffffff1690505f825f0160069054906101000a900479ffffffffffffffffffffffffffffffffffffffffffffffffffff1690508765ffffffffffff168265ffffffffffff1611156108a8576040517f2520601d00000000000000000000000000000000000000000000000000000000815260040160405180910390fd5b8765ffffffffffff168265ffffffffffff16036109125786835f0160066101000a81548179ffffffffffffffffffffffffffffffffffffffffffffffffffff021916908379ffffffffffffffffffffffffffffffffffffffffffffffffffff1602179055506109eb565b8860405180604001604052808a65ffffffffffff1681526020018979ffffffffffffffffffffffffffffffffffffffffffffffffffff16815250908060018154018082558091505060019003905f5260205f20015f909190919091505f820151815f015f6101000a81548165ffffffffffff021916908365ffffffffffff1602179055506020820151815f0160066101000a81548179ffffffffffffffffffffffffffffffffffffffffffffffffffff021916908379ffffffffffffffffffffffffffffffffffffffffffffffffffff16021790555050505b80879550955050505050610ada565b8560405180604001604052808765ffffffffffff1681526020018679ffffffffffffffffffffffffffffffffffffffffffffffffffff16815250908060018154018082558091505060019003905f5260205f20015f909190919091505f820151815f015f6101000a81548165ffffffffffff021916908365ffffffffffff1602179055506020820151815f0160066101000a81548179ffffffffffffffffffffffffffffffffffffffffffffffffffff021916908379ffffffffffffffffffffffffffffffffffffffffffffffffffff16021790555050505f8492509250505b935093915050565b5f825f528160205f2001905092915050565b5f65ffffffffffff8016821115610b45576030826040517f6dfcc650000000000000000000000000000000000000000000000000000000008152600401610b3c929190611459565b60405180910390fd5b819050919050565b5f5ffd5b5f73ffffffffffffffffffffffffffffffffffffffff82169050919050565b5f610b7a82610b51565b9050919050565b5f610b8b82610b70565b9050919050565b610b9b81610b81565b8114610ba5575f5ffd5b50565b5f81519050610bb681610b92565b92915050565b5f610bc682610b51565b9050919050565b5f610bd782610bbc565b9050919050565b610be781610bcd565b8114610bf1575f5ffd5b50565b5f81519050610c0281610bde565b92915050565b5f819050919050565b610c1a81610c08565b8114610c24575f5ffd5b50565b5f81519050610c3581610c11565b92915050565b5f65ffffffffffff82169050919050565b610c5581610c3b565b8114610c5f575f5ffd5b50565b5f81519050610c7081610c4c565b92915050565b5f63ffffffff82169050919050565b610c8e81610c76565b8114610c98575f5ffd5b50565b5f81519050610ca981610c85565b92915050565b5f5f5f5f5f5f60c08789031215610cc957610cc8610b4d565b5b5f610cd689828a01610ba8565b9650506020610ce789828a01610bf4565b9550506040610cf889828a01610c27565b9450506060610d0989828a01610c62565b9350506080610d1a89828a01610c9b565b92505060a0610d2b89828a01610c27565b9150509295509295509295565b5f81519050919050565b7f4e487b71000000000000000000000000000000000000000000000000000000005f52604160045260245ffd5b7f4e487b71000000000000000000000000000000000000000000000000000000005f52602260045260245ffd5b5f6002820490506001821680610db357607f821691505b602082108103610dc657610dc5610d6f565b5b50919050565b5f819050815f5260205f209050919050565b5f6020601f8301049050919050565b5f82821b905092915050565b5f60088302610e287fffffffffffffffffffffffffffffffffffffffffffffffffffffffffffffffff82610ded565b610e328683610ded565b95508019841693508086168417925050509392505050565b5f819050919050565b5f610e6d610e68610e6384610c08565b610e4a565b610c08565b9050919050565b5f819050919050565b610e8683610e53565b610e9a610e9282610e74565b848454610df9565b825550505050565b5f5f905090565b610eb1610ea2565b610ebc818484610e7d565b505050565b5b81811015610edf57610ed45f82610ea9565b600181019050610ec2565b5050565b601f821115610f2457610ef581610dcc565b610efe84610dde565b81016020851015610f0d578190505b610f21610f1985610dde565b830182610ec1565b50505b505050565b5f82821c905092915050565b5f610f445f1984600802610f29565b1980831691505092915050565b5f610f5c8383610f35565b9150826002028217905092915050565b610f7582610d38565b67ffffffffffffffff811115610f8e57610f8d610d42565b5b610f988254610d9c565b610fa3828285610ee3565b5f60209050601f831160018114610fd4575f8415610fc2578287015190505b610fcc8582610f51565b865550611033565b601f198416610fe286610dcc565b5f5b8281101561100957848901518255600182019150602085019450602081019050610fe4565b868310156110265784890151611022601f891682610f35565b8355505b6001600288020188555050505b505050505050565b5f819050919050565b61104d8161103b565b82525050565b61105c81610c08565b82525050565b61106b81610b70565b82525050565b5f60a0820190506110845f830188611044565b6110916020830187611044565b61109e6040830186611044565b6110ab6060830185611053565b6110b86080830184611062565b9695505050505050565b5f6110dc6110d76110d284610c3b565b610e4a565b610c08565b9050919050565b6110ec816110c2565b82525050565b5f6040820190506111055f8301856110e3565b61111260208301846110e3565b9392505050565b5f819050919050565b5f61113c61113761113284611119565b610e4a565b610c08565b9050919050565b61114c81611122565b82525050565b5f6020820190506111655f830184611143565b92915050565b5f61118561118061117b84610c76565b610e4a565b610c08565b9050919050565b6111958161116b565b82525050565b5f6040820190506111ae5f83018561118c565b6111bb602083018461118c565b9392505050565b5f6040820190506111d55f830185611053565b6111e26020830184611053565b9392505050565b5f6040820190506111fc5f830185611062565b6112096020830184611062565b9392505050565b5f82825260208201905092915050565b8281835e5f83830152505050565b5f601f19601f8301169050919050565b5f61124882610d38565b6112528185611210565b9350611262818560208601611220565b61126b8161122e565b840191505092915050565b5f6020820190508181035f83015261128e818461123e565b905092915050565b5f81519050919050565b5f819050602082019050919050565b5f6112ba825161103b565b80915050919050565b5f6112cd82611296565b826112d7846112a0565b90506112e2816112af565b925060208210156113225761131d7fffffffffffffffffffffffffffffffffffffffffffffffffffffffffffffffff83602003600802610ded565b831692505b5050919050565b5f6020828403121561133e5761133d610b4d565b5b5f61134b84828501610c62565b91505092915050565b5f819050919050565b5f60ff82169050919050565b5f61138361137e61137984611354565b610e4a565b61135d565b9050919050565b61139381611369565b82525050565b5f6040820190506113ac5f83018561138a565b6113b96020830184611053565b9392505050565b7f4e487b71000000000000000000000000000000000000000000000000000000005f52601160045260245ffd5b5f6113f782610c08565b915061140283610c08565b925082820390508181111561141a576114196113c0565b5b92915050565b5f819050919050565b5f61144361143e61143984611420565b610e4a565b61135d565b9050919050565b61145381611429565b82525050565b5f60408201905061146c5f83018561144a565b6114796020830184611053565b9392505050565b60805160a05160c05160e051610100516101205161014051610160516170fd6114db5f395f611d2101525f61287401525f61283901525f6148c901525f6148a801525f6141ee01525f61424401525f61426d01526170fd5ff3fe6080604052600436106102b1575f3560e01c80637ecebe0011610174578063bc197c81116100db578063deaaa7cc11610094578063ece40cc11161006e578063ece40cc114610c44578063f23a6e6114610c6c578063f8ce560a14610ca8578063fc0c546a14610ce457610324565b8063deaaa7cc14610bb6578063e540d01d14610be0578063eb9019d414610c0857610324565b8063bc197c8114610a92578063c01f9e3714610ace578063c28bc2fa14610b0a578063c59057e414610b26578063d33219b414610b62578063dd4e2ba514610b8c57610324565b8063a7713a701161012d578063a7713a7014610962578063a890c9101461098c578063a8f8a668146109b4578063a9a95294146109f0578063ab58fb8e14610a2c578063b58131b014610a6857610324565b80637ecebe001461082a57806384b0196e146108665780638ff262e31461089657806391ddadf4146108d257806397c3d334146108fc5780639a802a6d1461092657610324565b806343859632116102185780635b8d0e0d116101d15780635b8d0e0d146106d65780635f398a141461071257806360c4247f1461074e578063790518871461078a5780637b3c71d3146107b25780637d5e81e2146107ee57610324565b80634385963214610590578063452115d6146105cc5780634bf5d7e914610608578063544ffc9c1461063257806354fd4d5014610670578063567813881461069a57610324565b8063160cbed71161026a578063160cbed7146104585780632656227d146104945780632d63f693146104c45780632fe3e261146105005780633932abb11461052a5780633e4f49e61461055457610324565b806301ffc9a71461032857806302a251a31461036457806306f3f9e61461038e57806306fdde03146103b6578063143489d0146103e0578063150b7a021461041c57610324565b36610324573073ffffffffffffffffffffffffffffffffffffffff166102d5610d0e565b73ffffffffffffffffffffffffffffffffffffffff1614610322576040517fe90a651e00000000000000000000000000000000000000000000000000000000815260040160405180910390fd5b005b5f5ffd5b348015610333575f5ffd5b5061034e60048036038101906103499190614cb2565b610d1c565b60405161035b9190614cf7565b60405180910390f35b34801561036f575f5ffd5b50610378610e6e565b6040516103859190614d28565b60405180910390f35b348015610399575f5ffd5b506103b460048036038101906103af9190614d6b565b610e7c565b005b3480156103c1575f5ffd5b506103ca610e90565b6040516103d79190614e06565b60405180910390f35b3480156103eb575f5ffd5b5061040660048036038101906104019190614d6b565b610f20565b6040516104139190614e65565b60405180910390f35b348015610427575f5ffd5b50610442600480360381019061043d9190614fd4565b610f5b565b60405161044f9190615063565b60405180910390f35b348015610463575f5ffd5b5061047e60048036038101906104799190615311565b610fda565b60405161048b9190614d28565b60405180910390f35b6104ae60048036038101906104a99190615311565b6110d0565b6040516104bb9190614d28565b60405180910390f35b3480156104cf575f5ffd5b506104ea60048036038101906104e59190614d6b565b6112ad565b6040516104f79190614d28565b60405180910390f35b34801561050b575f5ffd5b506105146112e3565b60405161052191906153d8565b60405180910390f35b348015610535575f5ffd5b5061053e611307565b60405161054b9190614d28565b60405180910390f35b34801561055f575f5ffd5b5061057a60048036038101906105759190614d6b565b611315565b6040516105879190615464565b60405180910390f35b34801561059b575f5ffd5b506105b660048036038101906105b1919061547d565b611326565b6040516105c39190614cf7565b60405180910390f35b3480156105d7575f5ffd5b506105f260048036038101906105ed9190615311565b61138b565b6040516105ff9190614d28565b60405180910390f35b348015610613575f5ffd5b5061061c61140b565b6040516106299190614e06565b60405180910390f35b34801561063d575f5ffd5b5061065860048036038101906106539190614d6b565b6114c8565b604051610667939291906154bb565b60405180910390f35b34801561067b575f5ffd5b506106846114fb565b6040516106919190614e06565b60405180910390f35b3480156106a5575f5ffd5b506106c060048036038101906106bb9190615526565b611538565b6040516106cd9190614d28565b60405180910390f35b3480156106e1575f5ffd5b506106fc60048036038101906106f791906155bd565b611567565b6040516107099190614d28565b60405180910390f35b34801561071d575f5ffd5b506107386004803603810190610733919061569f565b611657565b6040516107459190614d28565b60405180910390f35b348015610759575f5ffd5b50610774600480360381019061076f9190614d6b565b6116bf565b6040516107819190614d28565b60405180910390f35b348015610795575f5ffd5b506107b060048036038101906107ab919061577a565b6116d2565b005b3480156107bd575f5ffd5b506107d860048036038101906107d391906157a5565b6116e6565b6040516107e59190614d28565b60405180910390f35b3480156107f9575f5ffd5b50610814600480360381019061080f91906158b4565b61174c565b6040516108219190614d28565b60405180910390f35b348015610835575f5ffd5b50610850600480360381019061084b9190615988565b611763565b60405161085d9190614d28565b60405180910390f35b348015610871575f5ffd5b5061087a6117a9565b60405161088d9796959493929190615aa4565b60405180910390f35b3480156108a1575f5ffd5b506108bc60048036038101906108b79190615b26565b61184e565b6040516108c99190614d28565b60405180910390f35b3480156108dd575f5ffd5b506108e66118c0565b6040516108f39190615bb5565b60405180910390f35b348015610907575f5ffd5b5061091061194b565b60405161091d9190614d28565b60405180910390f35b348015610931575f5ffd5b5061094c60048036038101906109479190615bce565b611953565b6040516109599190614d28565b60405180910390f35b34801561096d575f5ffd5b50610976611968565b6040516109839190614d28565b60405180910390f35b348015610997575f5ffd5b506109b260048036038101906109ad9190615c86565b611994565b005b3480156109bf575f5ffd5b506109da60048036038101906109d59190615311565b6119a8565b6040516109e79190614d28565b60405180910390f35b3480156109fb575f5ffd5b50610a166004803603810190610a119190614d6b565b6119bf565b604051610a239190614cf7565b60405180910390f35b348015610a37575f5ffd5b50610a526004803603810190610a4d9190614d6b565b6119d0565b604051610a5f9190614d28565b60405180910390f35b348015610a73575f5ffd5b50610a7c611a06565b604051610a899190614d28565b60405180910390f35b348015610a9d575f5ffd5b50610ab86004803603810190610ab39190615cb1565b611a14565b604051610ac59190615063565b60405180910390f35b348015610ad9575f5ffd5b50610af46004803603810190610aef9190614d6b565b611a94565b604051610b019190614d28565b60405180910390f35b610b246004803603810190610b1f9190615dd1565b611afe565b005b348015610b31575f5ffd5b50610b4c6004803603810190610b479190615311565b611b87565b604051610b599190614d28565b60405180910390f35b348015610b6d575f5ffd5b50610b76611bc1565b604051610b839190614e65565b60405180910390f35b348015610b97575f5ffd5b50610ba0611be9565b604051610bad9190614e06565b60405180910390f35b348015610bc1575f5ffd5b50610bca611c26565b604051610bd791906153d8565b60405180910390f35b348015610beb575f5ffd5b50610c066004803603810190610c019190615e7b565b611c4a565b005b348015610c13575f5ffd5b50610c2e6004803603810190610c299190615ea6565b611c5e565b604051610c3b9190614d28565b60405180910390f35b348015610c4f575f5ffd5b50610c6a6004803603810190610c659190614d6b565b611c79565b005b348015610c77575f5ffd5b50610c926004803603810190610c8d9190615ee4565b611c8d565b604051610c9f9190615063565b60405180910390f35b348015610cb3575f5ffd5b50610cce6004803603810190610cc99190614d6b565b611d0d565b604051610cdb9190614d28565b60405180910390f35b348015610cef575f5ffd5b50610cf8611d1e565b604051610d059190615fd2565b60405180910390f35b5f610d17611d45565b905090565b5f7fcdbdfcee000000000000000000000000000000000000000000000000000000007bffffffffffffffffffffffffffffffffffffffffffffffffffffffff1916827bffffffffffffffffffffffffffffffffffffffffffffffffffffffff19161480610def575063a8f8a66860e01b7fcdbdfcee00000000000000000000000000000000000000000000000000000000187bffffffffffffffffffffffffffffffffffffffffffffffffffffffff1916827bffffffffffffffffffffffffffffffffffffffffffffffffffffffff1916145b80610e5757507f4e2312e0000000000000000000000000000000000000000000000000000000007bffffffffffffffffffffffffffffffffffffffffffffffffffffffff1916827bffffffffffffffffffffffffffffffffffffffffffffffffffffffff1916145b80610e675750610e6682611d6d565b5b9050919050565b5f610e77611dd6565b905090565b610e84611df5565b610e8d81611eea565b50565b606060038054610e9f90616018565b80601f0160208091040260200160405190810160405280929190818152602001828054610ecb90616018565b8015610f165780601f10610eed57610100808354040283529160200191610f16565b820191905f5260205f20905b815481529060010190602001808311610ef957829003601f168201915b5050505050905090565b5f60045f8381526020019081526020015f205f015f9054906101000a900473ffffffffffffffffffffffffffffffffffffffff169050919050565b5f3073ffffffffffffffffffffffffffffffffffffffff16610f7b610d0e565b73ffffffffffffffffffffffffffffffffffffffff1614610fc8576040517fe90a651e00000000000000000000000000000000000000000000000000000000815260040160405180910390fd5b63150b7a0260e01b9050949350505050565b5f5f610fe8868686866119a8565b9050610ffd81610ff86004611fac565b611fd0565b505f61100c828888888861203b565b90505f8165ffffffffffff1614611091578060045f8481526020019081526020015f206001015f6101000a81548165ffffffffffff021916908365ffffffffffff1602179055507f9a2e42fd6722813d69113e7d0079d3d940171428df7373df9c7f7617cfda28928282604051611084929190616078565b60405180910390a16110c3565b6040517f90884a4600000000000000000000000000000000000000000000000000000000815260040160405180910390fd5b8192505050949350505050565b5f5f6110de868686866119a8565b90506110fe816110ee6005611fac565b6110f86004611fac565b17611fd0565b50600160045f8381526020019081526020015f205f01601e6101000a81548160ff0219169083151502179055503073ffffffffffffffffffffffffffffffffffffffff1661114a610d0e565b73ffffffffffffffffffffffffffffffffffffffff1614611203575f5f90505b8651811015611201573073ffffffffffffffffffffffffffffffffffffffff1687828151811061119d5761119c61609f565b5b602002602001015173ffffffffffffffffffffffffffffffffffffffff16036111f6576111f58582815181106111d6576111d561609f565b5b602002602001015180519060200120600561205490919063ffffffff16565b5b80600101905061116a565b505b611210818787878761214c565b3073ffffffffffffffffffffffffffffffffffffffff1661122f610d0e565b73ffffffffffffffffffffffffffffffffffffffff161415801561125a57506112586005612160565b155b1561126a5761126960056121cc565b5b7f712ae1383f79ac853f8d882153778e0260ef8f03b504e2866e0593e04d2b291f816040516112999190614d28565b60405180910390a180915050949350505050565b5f60045f8381526020019081526020015f205f0160149054906101000a900465ffffffffffff1665ffffffffffff169050919050565b7f3e83946653575f9a39005e1545185629e92736b7528ab20ca3816f315424a81181565b5f611310612242565b905090565b5f61131f82612264565b9050919050565b5f60095f8481526020019081526020015f206003015f8373ffffffffffffffffffffffffffffffffffffffff1673ffffffffffffffffffffffffffffffffffffffff1681526020019081526020015f205f9054906101000a900460ff16905092915050565b5f5f611399868686866119a8565b90505f6113a4612419565b90506113b08282612420565b6113f35781816040517f8fe5d8a90000000000000000000000000000000000000000000000000000000081526004016113ea9291906160cc565b60405180910390fd5b6113ff87878787612497565b92505050949350505050565b6060611415611d1e565b73ffffffffffffffffffffffffffffffffffffffff16634bf5d7e96040518163ffffffff1660e01b81526004015f60405180830381865afa92505050801561147f57506040513d5f823e3d601f19601f8201168201806040525081019061147c9190616161565b60015b6114c0576040518060400160405280601d81526020017f6d6f64653d626c6f636b6e756d6265722666726f6d3d64656661756c7400000081525090506114c5565b809150505b90565b5f5f5f5f60095f8681526020019081526020015f209050805f015481600101548260020154935093509350509193909250565b60606040518060400160405280600181526020017f3100000000000000000000000000000000000000000000000000000000000000815250905090565b5f5f611542612419565b905061155e84828560405180602001604052805f8152506124ae565b91505092915050565b5f6115b988888888888080601f0160208091040260200160405190810160405280939291908181526020018383808284375f81840152601f19601f8201169050808301925050505050505087876124cd565b6115fa57856040517f94ab6c070000000000000000000000000000000000000000000000000000000081526004016115f19190614e65565b60405180910390fd5b61164a88878988888080601f0160208091040260200160405190810160405280939291908181526020018383808284375f81840152601f19601f8201169050808301925050505050505087612555565b9050979650505050505050565b5f5f611661612419565b90506116b387828888888080601f0160208091040260200160405190810160405280939291908181526020018383808284375f81840152601f19601f8201169050808301925050505050505087612555565b91505095945050505050565b5f6116cb600a8361265f565b9050919050565b6116da611df5565b6116e3816126c8565b50565b5f5f6116f0612419565b905061174186828787878080601f0160208091040260200160405190810160405280939291908181526020018383808284375f81840152601f19601f820116905080830192505050505050506124ae565b915050949350505050565b5f6117598585858561273b565b9050949350505050565b5f60025f8373ffffffffffffffffffffffffffffffffffffffff1673ffffffffffffffffffffffffffffffffffffffff1681526020019081526020015f20549050919050565b5f6060805f5f5f60606117ba612831565b6117c261286b565b46305f5f1b5f67ffffffffffffffff8111156117e1576117e0614eb0565b5b60405190808252806020026020018201604052801561180f5781602001602082028036833780820191505090505b507f0f00000000000000000000000000000000000000000000000000000000000000959493929190965096509650965096509650965090919293949596565b5f61185b858585856128a6565b61189c57826040517f94ab6c070000000000000000000000000000000000000000000000000000000081526004016118939190614e65565b60405180910390fd5b6118b685848660405180602001604052805f8152506124ae565b9050949350505050565b5f6118c9611d1e565b73ffffffffffffffffffffffffffffffffffffffff166391ddadf46040518163ffffffff1660e01b8152600401602060405180830381865afa92505050801561193057506040513d601f19601f8201168201806040525081019061192d91906161bc565b60015b6119435761193c61291a565b9050611948565b809150505b90565b5f6064905090565b5f61195f848484612929565b90509392505050565b5f611973600a6129b4565b79ffffffffffffffffffffffffffffffffffffffffffffffffffff16905090565b61199c611df5565b6119a581612a16565b50565b5f6119b585858585611b87565b9050949350505050565b5f6119c982612ab3565b9050919050565b5f60045f8381526020019081526020015f206001015f9054906101000a900465ffffffffffff1665ffffffffffff169050919050565b5f611a0f612abd565b905090565b5f3073ffffffffffffffffffffffffffffffffffffffff16611a34610d0e565b73ffffffffffffffffffffffffffffffffffffffff1614611a81576040517fe90a651e00000000000000000000000000000000000000000000000000000000815260040160405180910390fd5b63bc197c8160e01b905095945050505050565b5f60045f8381526020019081526020015f205f01601a9054906101000a900463ffffffff1663ffffffff1660045f8481526020019081526020015f205f0160149054906101000a900465ffffffffffff16611aef9190616214565b65ffffffffffff169050919050565b611b06611df5565b5f5f8573ffffffffffffffffffffffffffffffffffffffff16858585604051611b3092919061627b565b5f6040518083038185875af1925050503d805f8114611b6a576040519150601f19603f3d011682016040523d82523d5f602084013e611b6f565b606091505b5091509150611b7e8282612ac6565b50505050505050565b5f84848484604051602001611b9f9493929190616457565b604051602081830303815290604052805190602001205f1c9050949350505050565b5f600b5f9054906101000a900473ffffffffffffffffffffffffffffffffffffffff16905090565b60606040518060400160405280602081526020017f737570706f72743d627261766f2671756f72756d3d666f722c6162737461696e815250905090565b7ff2aad550cf55f045cb27e9c559f9889fdfb6e6cdaa032301d6ea397784ae51d781565b611c52611df5565b611c5b81612aea565b50565b5f611c718383611c6c612ba3565b612929565b905092915050565b611c81611df5565b611c8a81612bb9565b50565b5f3073ffffffffffffffffffffffffffffffffffffffff16611cad610d0e565b73ffffffffffffffffffffffffffffffffffffffff1614611cfa576040517fe90a651e00000000000000000000000000000000000000000000000000000000815260040160405180910390fd5b63f23a6e6160e01b905095945050505050565b5f611d1782612bfe565b9050919050565b5f7f0000000000000000000000000000000000000000000000000000000000000000905090565b5f600b5f9054906101000a900473ffffffffffffffffffffffffffffffffffffffff16905090565b5f7f01ffc9a7000000000000000000000000000000000000000000000000000000007bffffffffffffffffffffffffffffffffffffffffffffffffffffffff1916827bffffffffffffffffffffffffffffffffffffffffffffffffffffffff1916149050919050565b5f600860069054906101000a900463ffffffff1663ffffffff16905090565b611dfd612419565b73ffffffffffffffffffffffffffffffffffffffff16611e1b610d0e565b73ffffffffffffffffffffffffffffffffffffffff1614611e7a57611e3e612419565b6040517f47096e47000000000000000000000000000000000000000000000000000000008152600401611e719190614e65565b60405180910390fd5b3073ffffffffffffffffffffffffffffffffffffffff16611e99610d0e565b73ffffffffffffffffffffffffffffffffffffffff1614611ee8575f611ebd612c9e565b604051611ecb92919061627b565b604051809103902090505b80611ee16005612caa565b03611ed657505b565b5f611ef361194b565b905080821115611f3c5781816040517f243e5445000000000000000000000000000000000000000000000000000000008152600401611f339291906164af565b60405180910390fd5b5f611f45611968565b9050611f6c611f526118c0565b611f5b85612dd8565b600a612e459092919063ffffffff16565b50507f0553476bf02ef2726e8ce5ced78d63e26e602e4a2257b1f559418e24b46339978184604051611f9f9291906164af565b60405180910390a1505050565b5f816007811115611fc057611fbf6153f1565b5b60ff166001901b5f1b9050919050565b5f5f611fdb84611315565b90505f5f1b83611fea83611fac565b1603612031578381846040517f31b75e4d000000000000000000000000000000000000000000000000000000008152600401612028939291906164d6565b60405180910390fd5b8091505092915050565b5f6120498686868686612e60565b905095945050505050565b5f825f0160109054906101000a90046fffffffffffffffffffffffffffffffff169050825f015f9054906101000a90046fffffffffffffffffffffffffffffffff166fffffffffffffffffffffffffffffffff16600182016fffffffffffffffffffffffffffffffff16036120ce576120cd6041613066565b5b81836001015f836fffffffffffffffffffffffffffffffff166fffffffffffffffffffffffffffffffff1681526020019081526020015f208190555060018101835f0160106101000a8154816fffffffffffffffffffffffffffffffff02191690836fffffffffffffffffffffffffffffffff160217905550505050565b6121598585858585613077565b5050505050565b5f815f015f9054906101000a90046fffffffffffffffffffffffffffffffff166fffffffffffffffffffffffffffffffff16825f0160109054906101000a90046fffffffffffffffffffffffffffffffff166fffffffffffffffffffffffffffffffff16149050919050565b5f815f015f6101000a8154816fffffffffffffffffffffffffffffffff02191690836fffffffffffffffffffffffffffffffff1602179055505f815f0160106101000a8154816fffffffffffffffffffffffffffffffff02191690836fffffffffffffffffffffffffffffffff16021790555050565b5f60085f9054906101000a900465ffffffffffff1665ffffffffffff16905090565b5f5f61226f8361312b565b905060056007811115612285576122846153f1565b5b816007811115612298576122976153f1565b5b146122a65780915050612414565b5f600c5f8581526020019081526020015f20549050600b5f9054906101000a900473ffffffffffffffffffffffffffffffffffffffff1673ffffffffffffffffffffffffffffffffffffffff1663584b153e826040518263ffffffff1660e01b815260040161231591906153d8565b602060405180830381865afa158015612330573d5f5f3e3d5ffd5b505050506040513d601f19601f820116820180604052508101906123549190616535565b1561236457600592505050612414565b600b5f9054906101000a900473ffffffffffffffffffffffffffffffffffffffff1673ffffffffffffffffffffffffffffffffffffffff16632ab0f529826040518263ffffffff1660e01b81526004016123be91906153d8565b602060405180830381865afa1580156123d9573d5f5f3e3d5ffd5b505050506040513d601f19601f820116820180604052508101906123fd9190616535565b1561240d57600792505050612414565b6002925050505b919050565b5f33905090565b5f5f6007811115612434576124336153f1565b5b61243d84611315565b600781111561244f5761244e6153f1565b5b14801561248f575061246083610f20565b73ffffffffffffffffffffffffffffffffffffffff168273ffffffffffffffffffffffffffffffffffffffff16145b905092915050565b5f6124a485858585613282565b9050949350505050565b5f6124c3858585856124be612ba3565b612555565b9050949350505050565b5f612549856125437f3e83946653575f9a39005e1545185629e92736b7528ab20ca3816f315424a8118a8a8a6125028c613359565b8b805190602001208b80519060200120604051602001612528979695949392919061656f565b604051602081830303815290604052805190602001206133ac565b846133c5565b90509695505050505050565b5f612569866125646001611fac565b611fd0565b505f61257e86612578896112ad565b85612929565b90505f61258e8888888588613471565b90505f8451036125f1578673ffffffffffffffffffffffffffffffffffffffff167fb8e138887d0aa13bab447e82de9d5c1777041ecd21ca36ba824ff1e6c07ddda4898884896040516125e494939291906165dc565b60405180910390a2612648565b8673ffffffffffffffffffffffffffffffffffffffff167fe2babfbac5889a709b63bb7f598b324e08bc5a4fb9ec647fb3cbc9ec07eb8712898884898960405161263f95949392919061666e565b60405180910390a25b61265188613666565b809250505095945050505050565b5f5f5f61266b85613669565b9250925050838265ffffffffffff1611156126a05761269b61268c856136f8565b8661375190919063ffffffff16565b6126a2565b805b79ffffffffffffffffffffffffffffffffffffffffffffffffffff169250505092915050565b7fc565b045403dc03c2eea82b81a0465edad9e2e7fc4d97e11421c209da93d7a9360085f9054906101000a900465ffffffffffff168260405161270c9291906166cd565b60405180910390a18060085f6101000a81548165ffffffffffff021916908365ffffffffffff16021790555050565b5f5f612745612419565b90506127518184613841565b61279257806040517fd9b395570000000000000000000000000000000000000000000000000000000081526004016127899190614e65565b60405180910390fd5b5f61279b611a06565b90505f811115612818575f6127cb8360016127b46118c0565b6127be91906166f4565b65ffffffffffff16611c5e565b905081811015612816578281836040517fc242ee1600000000000000000000000000000000000000000000000000000000815260040161280d9392919061672d565b60405180910390fd5b505b6128258787878786613927565b92505050949350505050565b60606128665f7f0000000000000000000000000000000000000000000000000000000000000000613bac90919063ffffffff16565b905090565b60606128a160017f0000000000000000000000000000000000000000000000000000000000000000613bac90919063ffffffff16565b905090565b5f6129108361290a7ff2aad550cf55f045cb27e9c559f9889fdfb6e6cdaa032301d6ea397784ae51d78888886128db8a613359565b6040516020016128ef959493929190616762565b604051602081830303815290604052805190602001206133ac565b846133c5565b9050949350505050565b5f612924436136f8565b905090565b5f612932611d1e565b73ffffffffffffffffffffffffffffffffffffffff16633a46b1a885856040518363ffffffff1660e01b815260040161296c9291906167b3565b602060405180830381865afa158015612987573d5f5f3e3d5ffd5b505050506040513d601f19601f820116820180604052508101906129ab91906167ee565b90509392505050565b5f5f825f018054905090505f8114612a0c576129de835f016001836129d99190616819565b613c59565b5f0160069054906101000a900479ffffffffffffffffffffffffffffffffffffffffffffffffffff16612a0e565b5f5b915050919050565b7f08f74ea46ef7894f65eabfb5e6e695de773a000b47c529ab559178069b226401600b5f9054906101000a900473ffffffffffffffffffffffffffffffffffffffff1682604051612a6892919061684c565b60405180910390a180600b5f6101000a81548173ffffffffffffffffffffffffffffffffffffffff021916908373ffffffffffffffffffffffffffffffffffffffff16021790555050565b5f60019050919050565b5f600754905090565b606082612adb57612ad682613c6b565b612ae3565b819050612ae4565b5b92915050565b5f8163ffffffff1603612b34575f6040517ff1cfbf05000000000000000000000000000000000000000000000000000000008152600401612b2b91906168ac565b60405180910390fd5b7f7e3f7f0708a84de9203036abaa450dccc85ad5ff52f78c170f3edb55cf5e8828600860069054906101000a900463ffffffff1682604051612b779291906168f5565b60405180910390a180600860066101000a81548163ffffffff021916908363ffffffff16021790555050565b606060405180602001604052805f815250905090565b7fccb45da8d5717e6c4544694297c4ba5cf151d455c9bb0ed4fc7a38411bc0546160075482604051612bec9291906164af565b60405180910390a18060078190555050565b5f612c97612c0a611d1e565b73ffffffffffffffffffffffffffffffffffffffff16638e539e8c846040518263ffffffff1660e01b8152600401612c429190614d28565b602060405180830381865afa158015612c5d573d5f5f3e3d5ffd5b505050506040513d601f19601f82011682018060405250810190612c8191906167ee565b612c8a846116bf565b612c9261194b565b613cae565b9050919050565b365f5f36915091509091565b5f5f825f015f9054906101000a90046fffffffffffffffffffffffffffffffff169050825f0160109054906101000a90046fffffffffffffffffffffffffffffffff166fffffffffffffffffffffffffffffffff16816fffffffffffffffffffffffffffffffff1603612d2257612d216031613066565b5b826001015f826fffffffffffffffffffffffffffffffff166fffffffffffffffffffffffffffffffff1681526020019081526020015f20549150826001015f826fffffffffffffffffffffffffffffffff166fffffffffffffffffffffffffffffffff1681526020019081526020015f205f905560018101835f015f6101000a8154816fffffffffffffffffffffffffffffffff02191690836fffffffffffffffffffffffffffffffff16021790555050919050565b5f79ffffffffffffffffffffffffffffffffffffffffffffffffffff8016821115612e3d5760d0826040517f6dfcc650000000000000000000000000000000000000000000000000000000008152600401612e34929190616955565b60405180910390fd5b819050919050565b5f5f612e54855f018585613d8d565b91509150935093915050565b5f5f600b5f9054906101000a900473ffffffffffffffffffffffffffffffffffffffff1673ffffffffffffffffffffffffffffffffffffffff1663f27a0c926040518163ffffffff1660e01b8152600401602060405180830381865afa158015612ecc573d5f5f3e3d5ffd5b505050506040513d601f19601f82011682018060405250810190612ef091906167ee565b90505f612efc84614081565b9050600b5f9054906101000a900473ffffffffffffffffffffffffffffffffffffffff1673ffffffffffffffffffffffffffffffffffffffff1663b1c5f4278888885f866040518663ffffffff1660e01b8152600401612f609594939291906169b7565b602060405180830381865afa158015612f7b573d5f5f3e3d5ffd5b505050506040513d601f19601f82011682018060405250810190612f9f9190616a31565b600c5f8a81526020019081526020015f2081905550600b5f9054906101000a900473ffffffffffffffffffffffffffffffffffffffff1673ffffffffffffffffffffffffffffffffffffffff16638f2a0bb08888885f86886040518763ffffffff1660e01b815260040161301896959493929190616a5c565b5f604051808303815f87803b15801561302f575f5ffd5b505af1158015613041573d5f5f3e3d5ffd5b5050505061305982426130549190616ad0565b6136f8565b9250505095945050505050565b634e487b715f52806020526024601cfd5b600b5f9054906101000a900473ffffffffffffffffffffffffffffffffffffffff1673ffffffffffffffffffffffffffffffffffffffff1663e38335e5348686865f6130c288614081565b6040518763ffffffff1660e01b81526004016130e29594939291906169b7565b5f604051808303818588803b1580156130f9575f5ffd5b505af115801561310b573d5f5f3e3d5ffd5b5050505050600c5f8681526020019081526020015f205f90555050505050565b5f5f60045f8481526020019081526020015f2090505f815f01601e9054906101000a900460ff1690505f825f01601f9054906101000a900460ff169050811561317a576007935050505061327d565b801561318c576002935050505061327d565b5f613196866112ad565b90505f81036131dc57856040517f6ad060750000000000000000000000000000000000000000000000000000000081526004016131d39190614d28565b60405180910390fd5b5f6131e56118c0565b65ffffffffffff169050808210613203575f9550505050505061327d565b5f61320d88611a94565b9050818110613225576001965050505050505061327d565b61322e8861409e565b1580613240575061323e886140e2565b155b15613254576003965050505050505061327d565b5f61325e896119d0565b03613272576004965050505050505061327d565b600596505050505050505b919050565b5f5f61329086868686614109565b90505f600c5f8381526020019081526020015f205490505f5f1b811461334c57600b5f9054906101000a900473ffffffffffffffffffffffffffffffffffffffff1673ffffffffffffffffffffffffffffffffffffffff1663c4d252f5826040518263ffffffff1660e01b815260040161330a91906153d8565b5f604051808303815f87803b158015613321575f5ffd5b505af1158015613333573d5f5f3e3d5ffd5b50505050600c5f8381526020019081526020015f205f90555b8192505050949350505050565b5f60025f8373ffffffffffffffffffffffffffffffffffffffff1673ffffffffffffffffffffffffffffffffffffffff1681526020019081526020015f205f815480929190600101919050559050919050565b5f6133be6133b86141eb565b836142a1565b9050919050565b5f5f8473ffffffffffffffffffffffffffffffffffffffff163b0361345c575f5f6133f085856142e1565b50915091505f6003811115613408576134076153f1565b5b81600381111561341b5761341a6153f1565b5b14801561345357508573ffffffffffffffffffffffffffffffffffffffff168273ffffffffffffffffffffffffffffffffffffffff16145b9250505061346a565b613467848484614336565b90505b9392505050565b5f5f60095f8881526020019081526020015f209050806003015f8773ffffffffffffffffffffffffffffffffffffffff1673ffffffffffffffffffffffffffffffffffffffff1681526020019081526020015f205f9054906101000a900460ff161561351457856040517f71c6af4900000000000000000000000000000000000000000000000000000000815260040161350b9190614e65565b60405180910390fd5b6001816003015f8873ffffffffffffffffffffffffffffffffffffffff1673ffffffffffffffffffffffffffffffffffffffff1681526020019081526020015f205f6101000a81548160ff0219169083151502179055505f600281111561357e5761357d6153f1565b5b60ff168560ff16036135a85783815f015f82825461359c9190616ad0565b92505081905550613659565b600160028111156135bc576135bb6153f1565b5b60ff168560ff16036135e75783816001015f8282546135db9190616ad0565b92505081905550613658565b6002808111156135fa576135f96153f1565b5b60ff168560ff16036136255783816002015f8282546136199190616ad0565b92505081905550613657565b6040517f06b337c200000000000000000000000000000000000000000000000000000000815260040160405180910390fd5b5b5b8391505095945050505050565b50565b5f5f5f5f845f018054905090505f810361368c575f5f5f935093509350506136f1565b5f6136a5865f016001846136a09190616819565b613c59565b90506001815f015f9054906101000a900465ffffffffffff16825f0160069054906101000a900479ffffffffffffffffffffffffffffffffffffffffffffffffffff1694509450945050505b9193909250565b5f65ffffffffffff8016821115613749576030826040517f6dfcc650000000000000000000000000000000000000000000000000000000008152600401613740929190616b3c565b60405180910390fd5b819050919050565b5f5f835f018054905090505f5f90505f82905060058311156137d5575f61377784614455565b846137829190616819565b9050613790875f0182613c59565b5f015f9054906101000a900465ffffffffffff1665ffffffffffff168665ffffffffffff1610156137c3578091506137d3565b6001816137d09190616ad0565b92505b505b5f6137e4875f018785856145ef565b90505f811461383357613805875f016001836138009190616819565b613c59565b5f0160069054906101000a900479ffffffffffffffffffffffffffffffffffffffffffffffffffff16613835565b5f5b94505050505092915050565b5f5f82519050603481101561385a576001915050613921565b5f6138688460348403614664565b90507f2370726f706f7365723d0000000000000000000000000000000000000000000075ffffffffffffffffffffffffffffffffffffffffffff19168175ffffffffffffffffffffffffffffffffffffffffffff1916146138ce57600192505050613921565b5f5f6138de86602a860386614674565b9150915081158061391a57508673ffffffffffffffffffffffffffffffffffffffff168173ffffffffffffffffffffffffffffffffffffffff16145b9450505050505b92915050565b5f61393b86868686805190602001206119a8565b90508451865114158061395057508351865114155b8061395b57505f8651145b156139a4578551845186516040517f447b05d000000000000000000000000000000000000000000000000000000000815260040161399b939291906154bb565b60405180910390fd5b5f60045f8381526020019081526020015f205f0160149054906101000a900465ffffffffffff1665ffffffffffff1614613a2357806139e282611315565b5f5f1b6040517f31b75e4d000000000000000000000000000000000000000000000000000000008152600401613a1a939291906164d6565b60405180910390fd5b5f613a2c611307565b613a346118c0565b65ffffffffffff16613a469190616ad0565b90505f613a51610e6e565b90505f60045f8581526020019081526020015f20905084815f015f6101000a81548173ffffffffffffffffffffffffffffffffffffffff021916908373ffffffffffffffffffffffffffffffffffffffff160217905550613ab1836136f8565b815f0160146101000a81548165ffffffffffff021916908365ffffffffffff160217905550613adf82614785565b815f01601a6101000a81548163ffffffff021916908363ffffffff1602179055507f7d84a6263ae0d98d3329bd7b46bb4e8d6f98cd35a7adb45c274c8b7fd5ebd5e084868b8b8d5167ffffffffffffffff811115613b4057613b3f614eb0565b5b604051908082528060200260200182016040528015613b7357816020015b6060815260200190600190039081613b5e5790505b508c89898b613b829190616ad0565b8e604051613b9899989796959493929190616c66565b60405180910390a150505095945050505050565b606060ff5f1b8314613bc857613bc1836147dc565b9050613c53565b818054613bd490616018565b80601f0160208091040260200160405190810160405280929190818152602001828054613c0090616018565b8015613c4b5780601f10613c2257610100808354040283529160200191613c4b565b820191905f5260205f20905b815481529060010190602001808311613c2e57829003601f168201915b505050505090505b92915050565b5f825f528160205f2001905092915050565b5f81511115613c7c57805160208201fd5b6040517fd6bda27500000000000000000000000000000000000000000000000000000000815260040160405180910390fd5b5f5f5f613cbb868661484e565b915091505f8203613ce057838181613cd657613cd5616d14565b5b0492505050613d86565b818411613cff57613cfe613cf95f86146012601161486b565b613066565b5b5f8486880990508181118303925080820391505f855f038616905080860495508083049250600181825f0304019050808402831792505f600287600302189050808702600203810290508087026002038102905080870260020381029050808702600203810290508087026002038102905080870260020381029050808402955050505050505b9392505050565b5f5f5f858054905090505f811115613f99575f613db687600184613db19190616819565b613c59565b90505f815f015f9054906101000a900465ffffffffffff1690505f825f0160069054906101000a900479ffffffffffffffffffffffffffffffffffffffffffffffffffff1690508765ffffffffffff168265ffffffffffff161115613e47576040517f2520601d00000000000000000000000000000000000000000000000000000000815260040160405180910390fd5b8765ffffffffffff168265ffffffffffff1603613eb15786835f0160066101000a81548179ffffffffffffffffffffffffffffffffffffffffffffffffffff021916908379ffffffffffffffffffffffffffffffffffffffffffffffffffff160217905550613f8a565b8860405180604001604052808a65ffffffffffff1681526020018979ffffffffffffffffffffffffffffffffffffffffffffffffffff16815250908060018154018082558091505060019003905f5260205f20015f909190919091505f820151815f015f6101000a81548165ffffffffffff021916908365ffffffffffff1602179055506020820151815f0160066101000a81548179ffffffffffffffffffffffffffffffffffffffffffffffffffff021916908379ffffffffffffffffffffffffffffffffffffffffffffffffffff16021790555050505b80879550955050505050614079565b8560405180604001604052808765ffffffffffff1681526020018679ffffffffffffffffffffffffffffffffffffffffffffffffffff16815250908060018154018082558091505060019003905f5260205f20015f909190919091505f820151815f015f6101000a81548165ffffffffffff021916908365ffffffffffff1602179055506020820151815f0160066101000a81548179ffffffffffffffffffffffffffffffffffffffffffffffffffff021916908379ffffffffffffffffffffffffffffffffffffffffffffffffffff16021790555050505f8492509250505b935093915050565b5f813060601b6bffffffffffffffffffffffff1916189050919050565b5f5f60095f8481526020019081526020015f209050806002015481600101546140c79190616ad0565b6140d86140d3856112ad565b611d0d565b1115915050919050565b5f5f60095f8481526020019081526020015f209050805f0154816001015411915050919050565b5f5f614117868686866119a8565b905061417b816141276007611fac565b6141316006611fac565b61413b6002611fac565b600180600780811115614151576141506153f1565b5b61415b9190616d41565b60026141679190616ea4565b6141719190616819565b5f1b181818611fd0565b50600160045f8381526020019081526020015f205f01601f6101000a81548160ff0219169083151502179055507f789cf55be980739dad1d0699b93b58e806b51c9d96619bfa8fe0a28abaa7b30c816040516141d79190614d28565b60405180910390a180915050949350505050565b5f7f000000000000000000000000000000000000000000000000000000000000000073ffffffffffffffffffffffffffffffffffffffff163073ffffffffffffffffffffffffffffffffffffffff1614801561426657507f000000000000000000000000000000000000000000000000000000000000000046145b15614293577f0000000000000000000000000000000000000000000000000000000000000000905061429e565b61429b614884565b90505b90565b5f6040517f190100000000000000000000000000000000000000000000000000000000000081528360028201528260228201526042812091505092915050565b5f5f5f6041845103614321575f5f5f602087015192506040870151915060608701515f1a905061431388828585614919565b95509550955050505061432f565b5f600285515f1b9250925092505b9250925092565b5f5f5f8573ffffffffffffffffffffffffffffffffffffffff168585604051602401614363929190616eee565b604051602081830303815290604052631626ba7e60e01b6020820180517bffffffffffffffffffffffffffffffffffffffffffffffffffffffff83818316178352505050506040516143b59190616f4c565b5f60405180830381855afa9150503d805f81146143ed576040519150601f19603f3d011682016040523d82523d5f602084013e6143f2565b606091505b509150915081801561440657506020815110155b801561444a5750631626ba7e60e01b7bffffffffffffffffffffffffffffffffffffffffffffffffffffffff1916818060200190518101906144489190616a31565b145b925050509392505050565b5f60018211614466578190506145ea565b5f8290505f60019050700100000000000000000000000000000000821061449657608082901c9150604081901b90505b6801000000000000000082106144b557604082901c9150602081901b90505b64010000000082106144d057602082901c9150601081901b90505b6201000082106144e957601082901c9150600881901b90505b610100821061450157600882901c9150600481901b90505b6010821061451857600482901c9150600281901b90505b6004821061452857600181901b90505b600181600302901c9050600181858161454457614543616d14565b5b048201901c9050600181858161455d5761455c616d14565b5b048201901c9050600181858161457657614575616d14565b5b048201901c9050600181858161458f5761458e616d14565b5b048201901c905060018185816145a8576145a7616d14565b5b048201901c905060018185816145c1576145c0616d14565b5b048201901c90506145e38185816145db576145da616d14565b5b048211614a00565b8103925050505b919050565b5f5b81831015614659575f6146048484614a0b565b90508465ffffffffffff166146198783613c59565b5f015f9054906101000a900465ffffffffffff1665ffffffffffff16111561464357809250614653565b6001816146509190616ad0565b93505b506145f1565b819050949350505050565b5f81602084010151905092915050565b5f5f845183118061468457508284115b15614694575f5f9150915061477d565b5f6001856146a29190616ad0565b8411801561471a57507f30780000000000000000000000000000000000000000000000000000000000007dffffffffffffffffffffffffffffffffffffffffffffffffffffffffffff19166146f78787614a30565b7dffffffffffffffffffffffffffffffffffffffffffffffffffffffffffff1916145b90505f600261472a831515614a00565b6147349190616f62565b60286147409190616ad0565b905080868661474f9190616819565b03614774575f5f614761898989614a40565b915091508181955095505050505061477d565b5f5f9350935050505b935093915050565b5f63ffffffff80168211156147d4576020826040517f6dfcc6500000000000000000000000000000000000000000000000000000000081526004016147cb929190616fdc565b60405180910390fd5b819050919050565b60605f6147e883614b6e565b90505f602067ffffffffffffffff81111561480657614805614eb0565b5b6040519080825280601f01601f1916602001820160405280156148385781602001600182028036833780820191505090505b5090508181528360208201528092505050919050565b5f5f5f198385098385029150818110828203039250509250929050565b5f61487584614a00565b82841802821890509392505050565b5f7f8b73c3c69bb8fe3d512ecc4cf759cc79239f7b179b0ffacaa9a75d522b39400f7f00000000000000000000000000000000000000000000000000000000000000007f000000000000000000000000000000000000000000000000000000000000000046306040516020016148fe959493929190617003565b60405160208183030381529060405280519060200120905090565b5f5f5f7f7fffffffffffffffffffffffffffffff5d576e7357a4501ddfe92f46681b20a0845f1c1115614955575f6003859250925092506149f6565b5f6001888888886040515f81526020016040526040516149789493929190617054565b6020604051602081039080840390855afa158015614998573d5f5f3e3d5ffd5b5050506020604051035190505f73ffffffffffffffffffffffffffffffffffffffff168173ffffffffffffffffffffffffffffffffffffffff16036149e9575f60015f5f1b935093509350506149f6565b805f5f5f1b935093509350505b9450945094915050565b5f8115159050919050565b5f6002828418614a1b9190617097565b828416614a289190616ad0565b905092915050565b5f81602084010151905092915050565b5f5f5f8590505f600186614a549190616ad0565b85118015614acc57507f30780000000000000000000000000000000000000000000000000000000000007dffffffffffffffffffffffffffffffffffffffffffffffffffffffffffff1916614aa98388614a30565b7dffffffffffffffffffffffffffffffffffffffffffffffffffffffffffff1916145b90505f6002614adc831515614a00565b614ae69190616f62565b90505f5f90505f8289614af99190616ad0565b90505b87811015614b59575f614b17614b128784614a30565b614bbc565b9050600f8160ff161115614b36575f5f97509750505050505050614b66565b601083614b439190616f62565b92508060ff168301925050806001019050614afc565b5060018195509550505050505b935093915050565b5f5f60ff835f1c169050601f811115614bb3576040517fb3512b0c00000000000000000000000000000000000000000000000000000000815260040160405180910390fd5b80915050919050565b5f5f8260f81c9050602f8160ff16118015614bda5750603a8160ff16105b15614bea57603081039050614c42565b60608160ff16118015614c00575060678160ff16105b15614c1057605781039050614c41565b60408160ff16118015614c26575060478160ff16105b15614c3657603781039050614c40565b60ff915050614c47565b5b5b809150505b919050565b5f604051905090565b5f5ffd5b5f5ffd5b5f7fffffffff0000000000000000000000000000000000000000000000000000000082169050919050565b614c9181614c5d565b8114614c9b575f5ffd5b50565b5f81359050614cac81614c88565b92915050565b5f60208284031215614cc757614cc6614c55565b5b5f614cd484828501614c9e565b91505092915050565b5f8115159050919050565b614cf181614cdd565b82525050565b5f602082019050614d0a5f830184614ce8565b92915050565b5f819050919050565b614d2281614d10565b82525050565b5f602082019050614d3b5f830184614d19565b92915050565b614d4a81614d10565b8114614d54575f5ffd5b50565b5f81359050614d6581614d41565b92915050565b5f60208284031215614d8057614d7f614c55565b5b5f614d8d84828501614d57565b91505092915050565b5f81519050919050565b5f82825260208201905092915050565b8281835e5f83830152505050565b5f601f19601f8301169050919050565b5f614dd882614d96565b614de28185614da0565b9350614df2818560208601614db0565b614dfb81614dbe565b840191505092915050565b5f6020820190508181035f830152614e1e8184614dce565b905092915050565b5f73ffffffffffffffffffffffffffffffffffffffff82169050919050565b5f614e4f82614e26565b9050919050565b614e5f81614e45565b82525050565b5f602082019050614e785f830184614e56565b92915050565b614e8781614e45565b8114614e91575f5ffd5b50565b5f81359050614ea281614e7e565b92915050565b5f5ffd5b5f5ffd5b7f4e487b71000000000000000000000000000000000000000000000000000000005f52604160045260245ffd5b614ee682614dbe565b810181811067ffffffffffffffff82111715614f0557614f04614eb0565b5b80604052505050565b5f614f17614c4c565b9050614f238282614edd565b919050565b5f67ffffffffffffffff821115614f4257614f41614eb0565b5b614f4b82614dbe565b9050602081019050919050565b828183375f83830152505050565b5f614f78614f7384614f28565b614f0e565b905082815260208101848484011115614f9457614f93614eac565b5b614f9f848285614f58565b509392505050565b5f82601f830112614fbb57614fba614ea8565b5b8135614fcb848260208601614f66565b91505092915050565b5f5f5f5f60808587031215614fec57614feb614c55565b5b5f614ff987828801614e94565b945050602061500a87828801614e94565b935050604061501b87828801614d57565b925050606085013567ffffffffffffffff81111561503c5761503b614c59565b5b61504887828801614fa7565b91505092959194509250565b61505d81614c5d565b82525050565b5f6020820190506150765f830184615054565b92915050565b5f67ffffffffffffffff82111561509657615095614eb0565b5b602082029050602081019050919050565b5f5ffd5b5f6150bd6150b88461507c565b614f0e565b905080838252602082019050602084028301858111156150e0576150df6150a7565b5b835b8181101561510957806150f58882614e94565b8452602084019350506020810190506150e2565b5050509392505050565b5f82601f83011261512757615126614ea8565b5b81356151378482602086016150ab565b91505092915050565b5f67ffffffffffffffff82111561515a57615159614eb0565b5b602082029050602081019050919050565b5f61517d61517884615140565b614f0e565b905080838252602082019050602084028301858111156151a05761519f6150a7565b5b835b818110156151c957806151b58882614d57565b8452602084019350506020810190506151a2565b5050509392505050565b5f82601f8301126151e7576151e6614ea8565b5b81356151f784826020860161516b565b91505092915050565b5f67ffffffffffffffff82111561521a57615219614eb0565b5b602082029050602081019050919050565b5f61523d61523884615200565b614f0e565b905080838252602082019050602084028301858111156152605761525f6150a7565b5b835b818110156152a757803567ffffffffffffffff81111561528557615284614ea8565b5b8086016152928982614fa7565b85526020850194505050602081019050615262565b5050509392505050565b5f82601f8301126152c5576152c4614ea8565b5b81356152d584826020860161522b565b91505092915050565b5f819050919050565b6152f0816152de565b81146152fa575f5ffd5b50565b5f8135905061530b816152e7565b92915050565b5f5f5f5f6080858703121561532957615328614c55565b5b5f85013567ffffffffffffffff81111561534657615345614c59565b5b61535287828801615113565b945050602085013567ffffffffffffffff81111561537357615372614c59565b5b61537f878288016151d3565b935050604085013567ffffffffffffffff8111156153a05761539f614c59565b5b6153ac878288016152b1565b92505060606153bd878288016152fd565b91505092959194509250565b6153d2816152de565b82525050565b5f6020820190506153eb5f8301846153c9565b92915050565b7f4e487b71000000000000000000000000000000000000000000000000000000005f52602160045260245ffd5b6008811061542f5761542e6153f1565b5b50565b5f81905061543f8261541e565b919050565b5f61544e82615432565b9050919050565b61545e81615444565b82525050565b5f6020820190506154775f830184615455565b92915050565b5f5f6040838503121561549357615492614c55565b5b5f6154a085828601614d57565b92505060206154b185828601614e94565b9150509250929050565b5f6060820190506154ce5f830186614d19565b6154db6020830185614d19565b6154e86040830184614d19565b949350505050565b5f60ff82169050919050565b615505816154f0565b811461550f575f5ffd5b50565b5f81359050615520816154fc565b92915050565b5f5f6040838503121561553c5761553b614c55565b5b5f61554985828601614d57565b925050602061555a85828601615512565b9150509250929050565b5f5ffd5b5f5f83601f84011261557d5761557c614ea8565b5b8235905067ffffffffffffffff81111561559a57615599615564565b5b6020830191508360018202830111156155b6576155b56150a7565b5b9250929050565b5f5f5f5f5f5f5f60c0888a0312156155d8576155d7614c55565b5b5f6155e58a828b01614d57565b97505060206155f68a828b01615512565b96505060406156078a828b01614e94565b955050606088013567ffffffffffffffff81111561562857615627614c59565b5b6156348a828b01615568565b9450945050608088013567ffffffffffffffff81111561565757615656614c59565b5b6156638a828b01614fa7565b92505060a088013567ffffffffffffffff81111561568457615683614c59565b5b6156908a828b01614fa7565b91505092959891949750929550565b5f5f5f5f5f608086880312156156b8576156b7614c55565b5b5f6156c588828901614d57565b95505060206156d688828901615512565b945050604086013567ffffffffffffffff8111156156f7576156f6614c59565b5b61570388828901615568565b9350935050606086013567ffffffffffffffff81111561572657615725614c59565b5b61573288828901614fa7565b9150509295509295909350565b5f65ffffffffffff82169050919050565b6157598161573f565b8114615763575f5ffd5b50565b5f8135905061577481615750565b92915050565b5f6020828403121561578f5761578e614c55565b5b5f61579c84828501615766565b91505092915050565b5f5f5f5f606085870312156157bd576157bc614c55565b5b5f6157ca87828801614d57565b94505060206157db87828801615512565b935050604085013567ffffffffffffffff8111156157fc576157fb614c59565b5b61580887828801615568565b925092505092959194509250565b5f67ffffffffffffffff8211156158305761582f614eb0565b5b61583982614dbe565b9050602081019050919050565b5f61585861585384615816565b614f0e565b90508281526020810184848401111561587457615873614eac565b5b61587f848285614f58565b509392505050565b5f82601f83011261589b5761589a614ea8565b5b81356158ab848260208601615846565b91505092915050565b5f5f5f5f608085870312156158cc576158cb614c55565b5b5f85013567ffffffffffffffff8111156158e9576158e8614c59565b5b6158f587828801615113565b945050602085013567ffffffffffffffff81111561591657615915614c59565b5b615922878288016151d3565b935050604085013567ffffffffffffffff81111561594357615942614c59565b5b61594f878288016152b1565b925050606085013567ffffffffffffffff8111156159705761596f614c59565b5b61597c87828801615887565b91505092959194509250565b5f6020828403121561599d5761599c614c55565b5b5f6159aa84828501614e94565b91505092915050565b5f7fff0000000000000000000000000000000000000000000000000000000000000082169050919050565b6159e7816159b3565b82525050565b5f81519050919050565b5f82825260208201905092915050565b5f819050602082019050919050565b615a1f81614d10565b82525050565b5f615a308383615a16565b60208301905092915050565b5f602082019050919050565b5f615a52826159ed565b615a5c81856159f7565b9350615a6783615a07565b805f5b83811015615a97578151615a7e8882615a25565b9750615a8983615a3c565b925050600181019050615a6a565b5085935050505092915050565b5f60e082019050615ab75f83018a6159de565b8181036020830152615ac98189614dce565b90508181036040830152615add8188614dce565b9050615aec6060830187614d19565b615af96080830186614e56565b615b0660a08301856153c9565b81810360c0830152615b188184615a48565b905098975050505050505050565b5f5f5f5f60808587031215615b3e57615b3d614c55565b5b5f615b4b87828801614d57565b9450506020615b5c87828801615512565b9350506040615b6d87828801614e94565b925050606085013567ffffffffffffffff811115615b8e57615b8d614c59565b5b615b9a87828801614fa7565b91505092959194509250565b615baf8161573f565b82525050565b5f602082019050615bc85f830184615ba6565b92915050565b5f5f5f60608486031215615be557615be4614c55565b5b5f615bf286828701614e94565b9350506020615c0386828701614d57565b925050604084013567ffffffffffffffff811115615c2457615c23614c59565b5b615c3086828701614fa7565b9150509250925092565b5f615c4482614e26565b9050919050565b5f615c5582615c3a565b9050919050565b615c6581615c4b565b8114615c6f575f5ffd5b50565b5f81359050615c8081615c5c565b92915050565b5f60208284031215615c9b57615c9a614c55565b5b5f615ca884828501615c72565b91505092915050565b5f5f5f5f5f60a08688031215615cca57615cc9614c55565b5b5f615cd788828901614e94565b9550506020615ce888828901614e94565b945050604086013567ffffffffffffffff811115615d0957615d08614c59565b5b615d15888289016151d3565b935050606086013567ffffffffffffffff811115615d3657615d35614c59565b5b615d42888289016151d3565b925050608086013567ffffffffffffffff811115615d6357615d62614c59565b5b615d6f88828901614fa7565b9150509295509295909350565b5f5f83601f840112615d9157615d90614ea8565b5b8235905067ffffffffffffffff811115615dae57615dad615564565b5b602083019150836001820283011115615dca57615dc96150a7565b5b9250929050565b5f5f5f5f60608587031215615de957615de8614c55565b5b5f615df687828801614e94565b9450506020615e0787828801614d57565b935050604085013567ffffffffffffffff811115615e2857615e27614c59565b5b615e3487828801615d7c565b925092505092959194509250565b5f63ffffffff82169050919050565b615e5a81615e42565b8114615e64575f5ffd5b50565b5f81359050615e7581615e51565b92915050565b5f60208284031215615e9057615e8f614c55565b5b5f615e9d84828501615e67565b91505092915050565b5f5f60408385031215615ebc57615ebb614c55565b5b5f615ec985828601614e94565b9250506020615eda85828601614d57565b9150509250929050565b5f5f5f5f5f60a08688031215615efd57615efc614c55565b5b5f615f0a88828901614e94565b9550506020615f1b88828901614e94565b9450506040615f2c88828901614d57565b9350506060615f3d88828901614d57565b925050608086013567ffffffffffffffff811115615f5e57615f5d614c59565b5b615f6a88828901614fa7565b9150509295509295909350565b5f819050919050565b5f615f9a615f95615f9084614e26565b615f77565b614e26565b9050919050565b5f615fab82615f80565b9050919050565b5f615fbc82615fa1565b9050919050565b615fcc81615fb2565b82525050565b5f602082019050615fe55f830184615fc3565b92915050565b7f4e487b71000000000000000000000000000000000000000000000000000000005f52602260045260245ffd5b5f600282049050600182168061602f57607f821691505b60208210810361604257616041615feb565b5b50919050565b5f61606261605d6160588461573f565b615f77565b614d10565b9050919050565b61607281616048565b82525050565b5f60408201905061608b5f830185614d19565b6160986020830184616069565b9392505050565b7f4e487b71000000000000000000000000000000000000000000000000000000005f52603260045260245ffd5b5f6040820190506160df5f830185614d19565b6160ec6020830184614e56565b9392505050565b5f61610561610084615816565b614f0e565b90508281526020810184848401111561612157616120614eac565b5b61612c848285614db0565b509392505050565b5f82601f83011261614857616147614ea8565b5b81516161588482602086016160f3565b91505092915050565b5f6020828403121561617657616175614c55565b5b5f82015167ffffffffffffffff81111561619357616192614c59565b5b61619f84828501616134565b91505092915050565b5f815190506161b681615750565b92915050565b5f602082840312156161d1576161d0614c55565b5b5f6161de848285016161a8565b91505092915050565b7f4e487b71000000000000000000000000000000000000000000000000000000005f52601160045260245ffd5b5f61621e8261573f565b91506162298361573f565b9250828201905065ffffffffffff811115616247576162466161e7565b5b92915050565b5f81905092915050565b5f616262838561624d565b935061626f838584614f58565b82840190509392505050565b5f616287828486616257565b91508190509392505050565b5f81519050919050565b5f82825260208201905092915050565b5f819050602082019050919050565b6162c581614e45565b82525050565b5f6162d683836162bc565b60208301905092915050565b5f602082019050919050565b5f6162f882616293565b616302818561629d565b935061630d836162ad565b805f5b8381101561633d57815161632488826162cb565b975061632f836162e2565b925050600181019050616310565b5085935050505092915050565b5f81519050919050565b5f82825260208201905092915050565b5f819050602082019050919050565b5f81519050919050565b5f82825260208201905092915050565b5f61639782616373565b6163a1818561637d565b93506163b1818560208601614db0565b6163ba81614dbe565b840191505092915050565b5f6163d0838361638d565b905092915050565b5f602082019050919050565b5f6163ee8261634a565b6163f88185616354565b93508360208202850161640a85616364565b805f5b85811015616445578484038952815161642685826163c5565b9450616431836163d8565b925060208a0199505060018101905061640d565b50829750879550505050505092915050565b5f6080820190508181035f83015261646f81876162ee565b905081810360208301526164838186615a48565b9050818103604083015261649781856163e4565b90506164a660608301846153c9565b95945050505050565b5f6040820190506164c25f830185614d19565b6164cf6020830184614d19565b9392505050565b5f6060820190506164e95f830186614d19565b6164f66020830185615455565b61650360408301846153c9565b949350505050565b61651481614cdd565b811461651e575f5ffd5b50565b5f8151905061652f8161650b565b92915050565b5f6020828403121561654a57616549614c55565b5b5f61655784828501616521565b91505092915050565b616569816154f0565b82525050565b5f60e0820190506165825f83018a6153c9565b61658f6020830189614d19565b61659c6040830188616560565b6165a96060830187614e56565b6165b66080830186614d19565b6165c360a08301856153c9565b6165d060c08301846153c9565b98975050505050505050565b5f6080820190506165ef5f830187614d19565b6165fc6020830186616560565b6166096040830185614d19565b818103606083015261661b8184614dce565b905095945050505050565b5f82825260208201905092915050565b5f61664082616373565b61664a8185616626565b935061665a818560208601614db0565b61666381614dbe565b840191505092915050565b5f60a0820190506166815f830188614d19565b61668e6020830187616560565b61669b6040830186614d19565b81810360608301526166ad8185614dce565b905081810360808301526166c18184616636565b90509695505050505050565b5f6040820190506166e05f830185616069565b6166ed6020830184616069565b9392505050565b5f6166fe8261573f565b91506167098361573f565b9250828203905065ffffffffffff811115616727576167266161e7565b5b92915050565b5f6060820190506167405f830186614e56565b61674d6020830185614d19565b61675a6040830184614d19565b949350505050565b5f60a0820190506167755f8301886153c9565b6167826020830187614d19565b61678f6040830186616560565b61679c6060830185614e56565b6167a96080830184614d19565b9695505050505050565b5f6040820190506167c65f830185614e56565b6167d36020830184614d19565b9392505050565b5f815190506167e881614d41565b92915050565b5f6020828403121561680357616802614c55565b5b5f616810848285016167da565b91505092915050565b5f61682382614d10565b915061682e83614d10565b9250828203905081811115616846576168456161e7565b5b92915050565b5f60408201905061685f5f830185614e56565b61686c6020830184614e56565b9392505050565b5f819050919050565b5f61689661689161688c84616873565b615f77565b614d10565b9050919050565b6168a68161687c565b82525050565b5f6020820190506168bf5f83018461689d565b92915050565b5f6168df6168da6168d584615e42565b615f77565b614d10565b9050919050565b6168ef816168c5565b82525050565b5f6040820190506169085f8301856168e6565b61691560208301846168e6565b9392505050565b5f819050919050565b5f61693f61693a6169358461691c565b615f77565b6154f0565b9050919050565b61694f81616925565b82525050565b5f6040820190506169685f830185616946565b6169756020830184614d19565b9392505050565b5f815f1b9050919050565b5f6169a161699c61699784616873565b61697c565b6152de565b9050919050565b6169b181616987565b82525050565b5f60a0820190508181035f8301526169cf81886162ee565b905081810360208301526169e38187615a48565b905081810360408301526169f781866163e4565b9050616a0660608301856169a8565b616a1360808301846153c9565b9695505050505050565b5f81519050616a2b816152e7565b92915050565b5f60208284031215616a4657616a45614c55565b5b5f616a5384828501616a1d565b91505092915050565b5f60c0820190508181035f830152616a7481896162ee565b90508181036020830152616a888188615a48565b90508181036040830152616a9c81876163e4565b9050616aab60608301866169a8565b616ab860808301856153c9565b616ac560a0830184614d19565b979650505050505050565b5f616ada82614d10565b9150616ae583614d10565b9250828201905080821115616afd57616afc6161e7565b5b92915050565b5f819050919050565b5f616b26616b21616b1c84616b03565b615f77565b6154f0565b9050919050565b616b3681616b0c565b82525050565b5f604082019050616b4f5f830185616b2d565b616b5c6020830184614d19565b9392505050565b5f81519050919050565b5f82825260208201905092915050565b5f819050602082019050919050565b5f82825260208201905092915050565b5f616ba682614d96565b616bb08185616b8c565b9350616bc0818560208601614db0565b616bc981614dbe565b840191505092915050565b5f616bdf8383616b9c565b905092915050565b5f602082019050919050565b5f616bfd82616b63565b616c078185616b6d565b935083602082028501616c1985616b7d565b805f5b85811015616c545784840389528151616c358582616bd4565b9450616c4083616be7565b925060208a01995050600181019050616c1c565b50829750879550505050505092915050565b5f61012082019050616c7a5f83018c614d19565b616c87602083018b614e56565b8181036040830152616c99818a6162ee565b90508181036060830152616cad8189615a48565b90508181036080830152616cc18188616bf3565b905081810360a0830152616cd581876163e4565b9050616ce460c0830186614d19565b616cf160e0830185614d19565b818103610100830152616d048184614dce565b90509a9950505050505050505050565b7f4e487b71000000000000000000000000000000000000000000000000000000005f52601260045260245ffd5b5f616d4b826154f0565b9150616d56836154f0565b9250828201905060ff811115616d6f57616d6e6161e7565b5b92915050565b5f8160011c9050919050565b5f5f8291508390505b6001851115616dca57808604811115616da657616da56161e7565b5b6001851615616db55780820291505b8081029050616dc385616d75565b9450616d8a565b94509492505050565b5f82616de25760019050616e9d565b81616def575f9050616e9d565b8160018114616e055760028114616e0f57616e3e565b6001915050616e9d565b60ff841115616e2157616e206161e7565b5b8360020a915084821115616e3857616e376161e7565b5b50616e9d565b5060208310610133831016604e8410600b8410161715616e735782820a905083811115616e6e57616e6d6161e7565b5b616e9d565b616e808484846001616d81565b92509050818404811115616e9757616e966161e7565b5b81810290505b9392505050565b5f616eae82614d10565b9150616eb9836154f0565b9250616ee67fffffffffffffffffffffffffffffffffffffffffffffffffffffffffffffffff8484616dd3565b905092915050565b5f604082019050616f015f8301856153c9565b8181036020830152616f138184616636565b90509392505050565b5f616f2682616373565b616f30818561624d565b9350616f40818560208601614db0565b80840191505092915050565b5f616f578284616f1c565b915081905092915050565b5f616f6c82614d10565b9150616f7783614d10565b9250828202616f8581614d10565b91508282048414831517616f9c57616f9b6161e7565b5b5092915050565b5f819050919050565b5f616fc6616fc1616fbc84616fa3565b615f77565b6154f0565b9050919050565b616fd681616fac565b82525050565b5f604082019050616fef5f830185616fcd565b616ffc6020830184614d19565b9392505050565b5f60a0820190506170165f8301886153c9565b61702360208301876153c9565b61703060408301866153c9565b61703d6060830185614d19565b61704a6080830184614e56565b9695505050505050565b5f6080820190506170675f8301876153c9565b6170746020830186616560565b61708160408301856153c9565b61708e60608301846153c9565b95945050505050565b5f6170a182614d10565b91506170ac83614d10565b9250826170bc576170bb616d14565b5b82820490509291505056fea2646970667358221220af73317725e1a25d95df36f9ca7678a3544ec23ca0a803835bf2f631096b83df64736f6c634300081e0033","linkReferences":{}},"methodIdentifiers":{"BALLOT_TYPEHASH()":"deaaa7cc","CLOCK_MODE()":"4bf5d7e9","COUNTING_MODE()":"dd4e2ba5","EXTENDED_BALLOT_TYPEHASH()":"2fe3e261","cancel(address[],uint256[],bytes[],bytes32)":"452115d6","castVote(uint256,uint8)":"56781388","castVoteBySig(uint256,uint8,address,bytes)":"8ff262e3","castVoteWithReason(uint256,uint8,string)":"7b3c71d3","castVoteWithReasonAndParams(uint256,uint8,string,bytes)":"5f398a14","castVoteWithReasonAndParamsBySig(uint256,uint8,address,string,bytes,bytes)":"5b8d0e0d","clock()":"91ddadf4","eip712Domain()":"84b0196e","execute(address[],uint256[],bytes[],bytes32)":"2656227d","getProposalId(address[],uint256[],bytes[],bytes32)":"a8f8a668","getVotes(address,uint256)":"eb9019d4","getVotesWithParams(address,uint256,bytes)":"9a802a6d","hasVoted(uint256,address)":"43859632","hashProposal(address[],uint256[],bytes[],bytes32)":"c59057e4","name()":"06fdde03","nonces(address)":"7ecebe00","onERC1155BatchReceived(address,address,uint256[],uint256[],bytes)":"bc197c81","onERC1155Received(address,address,uint256,uint256,bytes)":"f23a6e61","onERC721Received(address,address,uint256,bytes)":"150b7a02","proposalDeadline(uint256)":"c01f9e37","proposalEta(uint256)":"ab58fb8e","proposalNeedsQueuing(uint256)":"a9a95294","proposalProposer(uint256)":"143489d0","proposalSnapshot(uint256)":"2d63f693","proposalThreshold()":"b58131b0","proposalVotes(uint256)":"544ffc9c","propose(address[],uint256[],bytes[],string)":"7d5e81e2","queue(address[],uint256[],bytes[],bytes32)":"160cbed7","quorum(uint256)":"f8ce560a","quorumDenominator()":"97c3d334","quorumNumerator()":"a7713a70","quorumNumerator(uint256)":"60c4247f","relay(address,uint256,bytes)":"c28bc2fa","setProposalThreshold(uint256)":"ece40cc1","setVotingDelay(uint48)":"79051887","setVotingPeriod(uint32)":"e540d01d","state(uint256)":"3e4f49e6","supportsInterface(bytes4)":"01ffc9a7","timelock()":"d33219b4","token()":"fc0c546a","updateQuorumNumerator(uint256)":"06f3f9e6","updateTimelock(address)":"a890c910","version()":"54fd4d50","votingDelay()":"3932abb1","votingPeriod()":"02a251a3"},"id":70}