{"abi":[{"type":"constructor","inputs":[{"name":"_asset","type":"address","internalType":"address"},{"name":"_liquidityPool","type":"address","internalType":"address"},{"name":"_name","type":"string","internalType":"string"},{"name":"_symbol","type":"string","internalType":"string"}],"stateMutability":"nonpayable"},{"type":"function","name":"FEE_DENOMINATOR","inputs":[],"outputs":[{"name":"","type":"uint256","internalType":"uint256"}],"stateMutability":"view"},{"type":"function","name":"MAX_PERFORMANCE_FEE","inputs":[],"outputs":[{"name":"","type":"uint256","internalType":"uint256"}],"stateMutability":"view"},{"type":"function","name":"allowance","inputs":[{"name":"owner","type":"address","internalType":"address"},{"name":"spender","type":"address","internalType":"address"}],"outputs":[{"name":"","type":"uint256","internalType":"uint256"}],"stateMutability":"view"},{"type":"function","name":"approve","inputs":[{"name":"spender","type":"address","internalType":"address"},{"name":"value","type":"uint256","internalType":"uint256"}],"outputs":[{"name":"","type":"bool","internalType":"bool"}],"stateMutability":"nonpayable"},{"type":"function","name":"asset","inputs":[],"outputs":[{"name":"","type":"address","internalType":"contract IERC20"}],"stateMutability":"view"},{"type":"function","name":"balanceOf","inputs":[{"name":"account","type":"address","internalType":"address"}],"outputs":[{"name":"","type":"uint256","internalType":"uint256"}],"stateMutability":"view"},{"type":"function","name":"decimals","inputs":[],"outputs":[{"name":"","type":"uint8","internalType":"uint8"}],"stateMutability":"view"},{"type":"function","name":"deposit","inputs":[{"name":"assets","type":"uint256","internalType":"uint256"},{"name":"receiver","type":"address","internalType":"address"}],"outputs":[{"name":"shares","type":"uint256","internalType":"uint256"}],"stateMutability":"nonpayable"},{"type":"function","name":"emergencyWithdraw","inputs":[],"outputs":[],"stateMutability":"nonpayable"},{"type":"function","name":"executeStrategy","inputs":[],"outputs":[],"stateMutability":"nonpayable"},{"type":"function","name":"feeRecipient","inputs":[],"outputs":[{"name":"","type":"address","internalType":"address"}],"stateMutability":"view"},{"type":"function","name":"getVaultInfo","inputs":[],"outputs":[{"name":"_totalAssets","type":"uint256","internalType":"uint256"},{"name":"_totalShares","type":"uint256","internalType":"uint256"},{"name":"_sharePrice","type":"uint256","internalType":"uint256"},{"name":"_lastHarvest","type":"uint256","internalType":"uint256"},{"name":"_performanceFee","type":"uint256","internalType":"uint256"}],"stateMutability":"view"},{"type":"function","name":"harvest","inputs":[],"outputs":[],"stateMutability":"nonpayable"},{"type":"function","name":"lastDepositTime","inputs":[{"name":"","type":"address","internalType":"address"}],"outputs":[{"name":"","type":"uint256","internalType":"uint256"}],"stateMutability":"view"},{"type":"function","name":"lastHarvest","inputs":[],"outputs":[{"name":"","type":"uint256","internalType":"uint256"}],"stateMutability":"view"},{"type":"function","name":"liquidityPool","inputs":[],"outputs":[{"name":"","type":"address","internalType":"contract LiquidityPool"}],"stateMutability":"view"},{"type":"function","name":"lockPeriod","inputs":[],"outputs":[{"name":"","type":"uint256","internalType":"uint256"}],"stateMutability":"view"},{"type":"function","name":"name","inputs":[],"outputs":[{"name":"","type":"string","internalType":"string"}],"stateMutability":"view"},{"type":"function","name":"owner","inputs":[],"outputs":[{"name":"","type":"address","internalType":"address"}],"stateMutability":"view"},{"type":"function","name":"pause","inputs":[],"outputs":[],"stateMutability":"nonpayable"},{"type":"function","name":"paused","inputs":[],"outputs":[{"name":"","type":"bool","internalType":"bool"}],"stateMutability":"view"},{"type":"function","name":"performanceFee","inputs":[],"outputs":[{"name":"","type":"uint256","internalType":"uint256"}],"stateMutability":"view"},{"type":"function","name":"previewDeposit","inputs":[{"name":"assets","type":"uint256","internalType":"uint256"}],"outputs":[{"name":"","type":"uint256","internalType":"uint256"}],"stateMutability":"view"},{"type":"function","name":"previewWithdraw","inputs":[{"name":"shares","type":"uint256","internalType":"uint256"}],"outputs":[{"name":"","type":"uint256","internalType":"uint256"}],"stateMutability":"view"},{"type":"function","name":"renounceOwnership","inputs":[],"outputs":[],"stateMutability":"nonpayable"},{"type":"function","name":"setFeeRecipient","inputs":[{"name":"_feeRecipient","type":"address","internalType":"address"}],"outputs":[],"stateMutability":"nonpayable"},{"type":"function","name":"setLockPeriod","inputs":[{"name":"_lockPeriod","type":"uint256","internalType":"uint256"}],"outputs":[],"stateMutability":"nonpayable"},{"type":"function","name":"setPerformanceFee","inputs":[{"name":"_fee","type":"uint256","internalType":"uint256"}],"outputs":[],"stateMutability":"nonpayable"},{"type":"function","name":"setStrategy","inputs":[{"name":"_strategy","type":"address","internalType":"address"}],"outputs":[],"stateMutability":"nonpayable"},{"type":"function","name":"strategy","inputs":[],"outputs":[{"name":"","type":"address","internalType":"address"}],"stateMutability":"view"},{"type":"function","name":"symbol","inputs":[],"outputs":[{"name":"","type":"string","internalType":"string"}],"stateMutability":"view"},{"type":"function","name":"totalAssets","inputs":[],"outputs":[{"name":"","type":"uint256","internalType":"uint256"}],"stateMutability":"view"},{"type":"function","name":"totalSupply","inputs":[],"outputs":[{"name":"","type":"uint256","internalType":"uint256"}],"stateMutability":"view"},{"type":"function","name":"transfer","inputs":[{"name":"to","type":"address","internalType":"address"},{"name":"value","type":"uint256","internalType":"uint256"}],"outputs":[{"name":"","type":"bool","internalType":"bool"}],"stateMutability":"nonpayable"},{"type":"function","name":"transferFrom","inputs":[{"name":"from","type":"address","internalType":"address"},{"name":"to","type":"address","internalType":"address"},{"name":"value","type":"uint256","internalType":"uint256"}],"outputs":[{"name":"","type":"bool","internalType":"bool"}],"stateMutability":"nonpayable"},{"type":"function","name":"transferOwnership","inputs":[{"name":"newOwner","type":"address","internalType":"address"}],"outputs":[],"stateMutability":"nonpayable"},{"type":"function","name":"unpause","inputs":[],"outputs":[],"stateMutability":"nonpayable"},{"type":"function","name":"withdraw","inputs":[{"name":"shares","type":"uint256","internalType":"uint256"},{"name":"receiver","type":"address","internalType":"address"},{"name":"owner","type":"address","internalType":"address"}],"outputs":[{"name":"assets","type":"uint256","internalType":"uint256"}],"stateMutability":"nonpayable"},{"type":"event","name":"Approval","inputs":[{"name":"owner","type":"address","indexed":true,"internalType":"address"},{"name":"spender","type":"address","indexed":true,"internalType":"address"},{"name":"value","type":"uint256","indexed":false,"internalType":"uint256"}],"anonymous":false},{"type":"event","name":"Deposit","inputs":[{"name":"user","type":"address","indexed":true,"internalType":"address"},{"name":"assets","type":"uint256","indexed":false,"internalType":"uint256"},{"name":"shares","type":"uint256","indexed":false,"internalType":"uint256"}],"anonymous":false},{"type":"event","name":"EmergencyWithdraw","inputs":[{"name":"amount","type":"uint256","indexed":false,"internalType":"uint256"}],"anonymous":false},{"type":"event","name":"Harvest","inputs":[{"name":"yield","type":"uint256","indexed":false,"internalType":"uint256"},{"name":"fee","type":"uint256","indexed":false,"internalType":"uint256"}],"anonymous":false},{"type":"event","name":"OwnershipTransferred","inputs":[{"name":"previousOwner","type":"address","indexed":true,"internalType":"address"},{"name":"newOwner","type":"address","indexed":true,"internalType":"address"}],"anonymous":false},{"type":"event","name":"Paused","inputs":[{"name":"account","type":"address","indexed":false,"internalType":"address"}],"anonymous":false},{"type":"event","name":"PerformanceFeeUpdated","inputs":[{"name":"oldFee","type":"uint256","indexed":false,"internalType":"uint256"},{"name":"newFee","type":"uint256","indexed":false,"internalType":"uint256"}],"anonymous":false},{"type":"event","name":"StrategyUpdated","inputs":[{"name":"oldStrategy","type":"address","indexed":true,"internalType":"address"},{"name":"newStrategy","type":"address","indexed":true,"internalType":"address"}],"anonymous":false},{"type":"event","name":"Transfer","inputs":[{"name":"from","type":"address","indexed":true,"internalType":"address"},{"name":"to","type":"address","indexed":true,"internalType":"address"},{"name":"value","type":"uint256","indexed":false,"internalType":"uint256"}],"anonymous":false},{"type":"event","name":"Unpaused","inputs":[{"name":"account","type":"address","indexed":false,"internalType":"address"}],"anonymous":false},{"type":"event","name":"Withdraw","inputs":[{"name":"user","type":"address","indexed":true,"internalType":"address"},{"name":"assets","type":"uint256","indexed":false,"internalType":"uint256"},{"name":"shares","type":"uint256","indexed":false,"internalType":"uint256"}],"anonymous":false},{"type":"error","name":"ERC20InsufficientAllowance","inputs":[{"name":"spender","type":"address","internalType":"address"},{"name":"allowance","type":"uint256","internalType":"uint256"},{"name":"needed","type":"uint256","internalType":"uint256"}]},{"type":"error","name":"ERC20InsufficientBalance","inputs":[{"name":"sender","type":"address","internalType":"address"},{"name":"balance","type":"uint256","internalType":"uint256"},{"name":"needed","type":"uint256","internalType":"uint256"}]},{"type":"error","name":"ERC20InvalidApprover","inputs":[{"name":"approver","type":"address","internalType":"address"}]},{"type":"error","name":"ERC20InvalidReceiver","inputs":[{"name":"receiver","type":"address","internalType":"address"}]},{"type":"error","name":"ERC20InvalidSender","inputs":[{"name":"sender","type":"address","internalType":"address"}]},{"type":"error","name":"ERC20InvalidSpender","inputs":[{"name":"spender","type":"address","internalType":"address"}]},{"type":"error","name":"EnforcedPause","inputs":[]},{"type":"error","name":"ExpectedPause","inputs":[]},{"type":"error","name":"OwnableInvalidOwner","inputs":[{"name":"owner","type":"address","internalType":"address"}]},{"type":"error","name":"OwnableUnauthorizedAccount","inputs":[{"name":"account","type":"address","internalType":"address"}]},{"type":"error","name":"ReentrancyGuardReentrantCall","inputs":[]},{"type":"error","name":"SafeERC20FailedOperation","inputs":[{"name":"token","type":"address","internalType":"address"}]}],"bytecode":{"object":"0x60a06040526103e8600a5562015180600e5534801561001c575f5ffd5b50604051613d37380380613d37833981810160405281019061003e9190610535565b338282816003908161005091906107e1565b50806004908161006091906107e1565b50505060016005819055505f73ffffffffffffffffffffffffffffffffffffffff168173ffffffffffffffffffffffffffffffffffffffff16036100db575f6040517f1e4fbdf70000000000000000000000000000000000000000000000000000000081526004016100d291906108bf565b60405180910390fd5b6100ea816102cb60201b60201c565b505f73ffffffffffffffffffffffffffffffffffffffff168473ffffffffffffffffffffffffffffffffffffffff1603610159576040517f08c379a000000000000000000000000000000000000000000000000000000000815260040161015090610932565b60405180910390fd5b5f73ffffffffffffffffffffffffffffffffffffffff168373ffffffffffffffffffffffffffffffffffffffff16036101c7576040517f08c379a00000000000000000000000000000000000000000000000000000000081526004016101be906109c0565b60405180910390fd5b8373ffffffffffffffffffffffffffffffffffffffff1660808173ffffffffffffffffffffffffffffffffffffffff16815250508260075f6101000a81548173ffffffffffffffffffffffffffffffffffffffff021916908373ffffffffffffffffffffffffffffffffffffffff16021790555033600b5f6101000a81548173ffffffffffffffffffffffffffffffffffffffff021916908373ffffffffffffffffffffffffffffffffffffffff16021790555033600c5f6101000a81548173ffffffffffffffffffffffffffffffffffffffff021916908373ffffffffffffffffffffffffffffffffffffffff16021790555042600981905550505050506109de565b5f60065f9054906101000a900473ffffffffffffffffffffffffffffffffffffffff1690508160065f6101000a81548173ffffffffffffffffffffffffffffffffffffffff021916908373ffffffffffffffffffffffffffffffffffffffff1602179055508173ffffffffffffffffffffffffffffffffffffffff168173ffffffffffffffffffffffffffffffffffffffff167f8be0079c531659141344cd1fd0a4f28419497f9722a3daafe3b4186f6b6457e060405160405180910390a35050565b5f604051905090565b5f5ffd5b5f5ffd5b5f73ffffffffffffffffffffffffffffffffffffffff82169050919050565b5f6103c88261039f565b9050919050565b6103d8816103be565b81146103e2575f5ffd5b50565b5f815190506103f3816103cf565b92915050565b5f5ffd5b5f5ffd5b5f601f19601f8301169050919050565b7f4e487b71000000000000000000000000000000000000000000000000000000005f52604160045260245ffd5b61044782610401565b810181811067ffffffffffffffff8211171561046657610465610411565b5b80604052505050565b5f61047861038e565b9050610484828261043e565b919050565b5f67ffffffffffffffff8211156104a3576104a2610411565b5b6104ac82610401565b9050602081019050919050565b8281835e5f83830152505050565b5f6104d96104d484610489565b61046f565b9050828152602081018484840111156104f5576104f46103fd565b5b6105008482856104b9565b509392505050565b5f82601f83011261051c5761051b6103f9565b5b815161052c8482602086016104c7565b91505092915050565b5f5f5f5f6080858703121561054d5761054c610397565b5b5f61055a878288016103e5565b945050602061056b878288016103e5565b935050604085015167ffffffffffffffff81111561058c5761058b61039b565b5b61059887828801610508565b925050606085015167ffffffffffffffff8111156105b9576105b861039b565b5b6105c587828801610508565b91505092959194509250565b5f81519050919050565b7f4e487b71000000000000000000000000000000000000000000000000000000005f52602260045260245ffd5b5f600282049050600182168061061f57607f821691505b602082108103610632576106316105db565b5b50919050565b5f819050815f5260205f209050919050565b5f6020601f8301049050919050565b5f82821b905092915050565b5f600883026106947fffffffffffffffffffffffffffffffffffffffffffffffffffffffffffffffff82610659565b61069e8683610659565b95508019841693508086168417925050509392505050565b5f819050919050565b5f819050919050565b5f6106e26106dd6106d8846106b6565b6106bf565b6106b6565b9050919050565b5f819050919050565b6106fb836106c8565b61070f610707826106e9565b848454610665565b825550505050565b5f5f905090565b610726610717565b6107318184846106f2565b505050565b5b81811015610754576107495f8261071e565b600181019050610737565b5050565b601f8211156107995761076a81610638565b6107738461064a565b81016020851015610782578190505b61079661078e8561064a565b830182610736565b50505b505050565b5f82821c905092915050565b5f6107b95f198460080261079e565b1980831691505092915050565b5f6107d183836107aa565b9150826002028217905092915050565b6107ea826105d1565b67ffffffffffffffff81111561080357610802610411565b5b61080d8254610608565b610818828285610758565b5f60209050601f831160018114610849575f8415610837578287015190505b61084185826107c6565b8655506108a8565b601f19841661085786610638565b5f5b8281101561087e57848901518255600182019150602085019450602081019050610859565b8683101561089b5784890151610897601f8916826107aa565b8355505b6001600288020188555050505b505050505050565b6108b9816103be565b82525050565b5f6020820190506108d25f8301846108b0565b92915050565b5f82825260208201905092915050565b7f41737365742063616e6e6f74206265207a65726f2061646472657373000000005f82015250565b5f61091c601c836108d8565b9150610927826108e8565b602082019050919050565b5f6020820190508181035f83015261094981610910565b9050919050565b7f4c697175696469747920706f6f6c2063616e6e6f74206265207a65726f2061645f8201527f6472657373000000000000000000000000000000000000000000000000000000602082015250565b5f6109aa6025836108d8565b91506109b582610950565b604082019050919050565b5f6020820190508181035f8301526109d78161099e565b9050919050565b608051613309610a2e5f395f818161093601528181610a0a01528181610b1c01528181610c0601528181610d1601528181610f7a015281816115bd0152818161167f015261172d01526133095ff3fe608060405234801561000f575f5ffd5b5060043610610230575f3560e01c806370a082311161012e578063a9059cbb116100b6578063dd62ed3e1161007a578063dd62ed3e14610628578063e74b981b14610658578063ef8b30f714610674578063f1a392da146106a4578063f2fde38b146106c257610230565b8063a9059cbb14610582578063b460af94146105b2578063bdca9165146105e2578063d73792a914610600578063db2e21bc1461061e57610230565b80638456cb59116100fd5780638456cb5914610500578063877887821461050a5780638da5cb5b1461052857806395d89b4114610546578063a8c62e761461056457610230565b806370a0823114610488578063715018a6146104b8578063779972da146104c25780637f98aa71146104de57610230565b806338d52e0f116101bc578063469048401161018057806346904840146103e25780635c975abb14610400578063665a11ca1461041e5780636e553f651461043c57806370897b231461046c57610230565b806338d52e0f146103885780633f4ba83a146103a65780633fd8b02f146103b057806344647185146103ce5780634641257d146103d857610230565b80630a28a477116102035780630a28a477146102d057806318160ddd1461030057806323b872dd1461031e578063313ce5671461034e57806333a100ca1461036c57610230565b806301e1d11414610234578063025277531461025257806306fdde0314610282578063095ea7b3146102a0575b5f5ffd5b61023c6106de565b604051610249919061267a565b60405180910390f35b61026c600480360381019061026791906126f1565b6106e4565b604051610279919061267a565b60405180910390f35b61028a6106f9565b604051610297919061278c565b60405180910390f35b6102ba60048036038101906102b591906127d6565b610789565b6040516102c7919061282e565b60405180910390f35b6102ea60048036038101906102e59190612847565b6107ab565b6040516102f7919061267a565b60405180910390f35b6103086107bc565b604051610315919061267a565b60405180910390f35b61033860048036038101906103339190612872565b6107c5565b604051610345919061282e565b60405180910390f35b6103566107f3565b60405161036391906128dd565b60405180910390f35b610386600480360381019061038191906126f1565b6107fb565b005b610390610934565b60405161039d9190612951565b60405180910390f35b6103ae610958565b005b6103b861096a565b6040516103c5919061267a565b60405180910390f35b6103d6610970565b005b6103e0610b6c565b005b6103ea610dc2565b6040516103f79190612979565b60405180910390f35b610408610de7565b604051610415919061282e565b60405180910390f35b610426610dfd565b60405161043391906129b2565b60405180910390f35b610456600480360381019061045191906129cb565b610e22565b604051610463919061267a565b60405180910390f35b61048660048036038101906104819190612847565b61103f565b005b6104a2600480360381019061049d91906126f1565b6110d6565b6040516104af919061267a565b60405180910390f35b6104c061111b565b005b6104dc60048036038101906104d79190612847565b61112e565b005b6104e6611186565b6040516104f7959493929190612a09565b60405180910390f35b6105086111e2565b005b6105126111f4565b60405161051f919061267a565b60405180910390f35b6105306111fa565b60405161053d9190612979565b60405180910390f35b61054e611222565b60405161055b919061278c565b60405180910390f35b61056c6112b2565b6040516105799190612979565b60405180910390f35b61059c600480360381019061059791906127d6565b6112d7565b6040516105a9919061282e565b60405180910390f35b6105cc60048036038101906105c79190612a5a565b6112f9565b6040516105d9919061267a565b60405180910390f35b6105ea611660565b6040516105f7919061267a565b60405180910390f35b610608611666565b604051610615919061267a565b60405180910390f35b61062661166c565b005b610642600480360381019061063d9190612aaa565b6117ac565b60405161064f919061267a565b60405180910390f35b610672600480360381019061066d91906126f1565b61182e565b005b61068e60048036038101906106899190612847565b6118e7565b60405161069b919061267a565b60405180910390f35b6106ac6118f8565b6040516106b9919061267a565b60405180910390f35b6106dc60048036038101906106d791906126f1565b6118fe565b005b60085481565b600d602052805f5260405f205f915090505481565b60606003805461070890612b15565b80601f016020809104026020016040519081016040528092919081815260200182805461073490612b15565b801561077f5780601f106107565761010080835404028352916020019161077f565b820191905f5260205f20905b81548152906001019060200180831161076257829003601f168201915b5050505050905090565b5f5f610793611982565b90506107a0818585611989565b600191505092915050565b5f6107b58261199b565b9050919050565b5f600254905090565b5f5f6107cf611982565b90506107dc8582856119d9565b6107e7858585611a6c565b60019150509392505050565b5f6012905090565b610803611b5c565b5f73ffffffffffffffffffffffffffffffffffffffff168173ffffffffffffffffffffffffffffffffffffffff1603610871576040517f08c379a000000000000000000000000000000000000000000000000000000000815260040161086890612b8f565b60405180910390fd5b5f600b5f9054906101000a900473ffffffffffffffffffffffffffffffffffffffff16905081600b5f6101000a81548173ffffffffffffffffffffffffffffffffffffffff021916908373ffffffffffffffffffffffffffffffffffffffff1602179055508173ffffffffffffffffffffffffffffffffffffffff168173ffffffffffffffffffffffffffffffffffffffff167fe4cec16b1a7e6b7979e923da619a8b1e5fd0f0fb6e5c1cf647f350430ee61ca960405160405180910390a35050565b7f000000000000000000000000000000000000000000000000000000000000000081565b610960611b5c565b610968611be3565b565b600e5481565b600b5f9054906101000a900473ffffffffffffffffffffffffffffffffffffffff1673ffffffffffffffffffffffffffffffffffffffff163373ffffffffffffffffffffffffffffffffffffffff16146109ff576040517f08c379a00000000000000000000000000000000000000000000000000000000081526004016109f690612bf7565b60405180910390fd5b610a07611c45565b5f7f000000000000000000000000000000000000000000000000000000000000000073ffffffffffffffffffffffffffffffffffffffff166370a08231306040518263ffffffff1660e01b8152600401610a619190612979565b602060405180830381865afa158015610a7c573d5f5f3e3d5ffd5b505050506040513d601f19601f82011682018060405250810190610aa09190612c29565b90505f8111610ae4576040517f08c379a0000000000000000000000000000000000000000000000000000000008152600401610adb90612c9e565b60405180910390fd5b5f600282610af29190612d16565b9050610b6060075f9054906101000a900473ffffffffffffffffffffffffffffffffffffffff16827f000000000000000000000000000000000000000000000000000000000000000073ffffffffffffffffffffffffffffffffffffffff16611c8b9092919063ffffffff16565b5050610b6a611d98565b565b600b5f9054906101000a900473ffffffffffffffffffffffffffffffffffffffff1673ffffffffffffffffffffffffffffffffffffffff163373ffffffffffffffffffffffffffffffffffffffff1614610bfb576040517f08c379a0000000000000000000000000000000000000000000000000000000008152600401610bf290612bf7565b60405180910390fd5b610c03611c45565b5f7f000000000000000000000000000000000000000000000000000000000000000073ffffffffffffffffffffffffffffffffffffffff166370a08231306040518263ffffffff1660e01b8152600401610c5d9190612979565b602060405180830381865afa158015610c78573d5f5f3e3d5ffd5b505050506040513d601f19601f82011682018060405250810190610c9c9190612c29565b9050600854811115610db7575f60085482610cb79190612d46565b90505f612710600a5483610ccb9190612d79565b610cd59190612d16565b90505f8183610ce49190612d46565b90505f821115610d5b57610d5a600c5f9054906101000a900473ffffffffffffffffffffffffffffffffffffffff16837f000000000000000000000000000000000000000000000000000000000000000073ffffffffffffffffffffffffffffffffffffffff16611da29092919063ffffffff16565b5b8060085f828254610d6c9190612dba565b92505081905550426009819055507f6c8433a8e155f0af04dba058d4e4695f7da554578963d876bdf4a6d8d6399d9c8383604051610dab929190612ded565b60405180910390a15050505b50610dc0611d98565b565b600c5f9054906101000a900473ffffffffffffffffffffffffffffffffffffffff1681565b5f600660149054906101000a900460ff16905090565b60075f9054906101000a900473ffffffffffffffffffffffffffffffffffffffff1681565b5f610e2b611c45565b610e33611e21565b5f8311610e75576040517f08c379a0000000000000000000000000000000000000000000000000000000008152600401610e6c90612e5e565b60405180910390fd5b5f73ffffffffffffffffffffffffffffffffffffffff168273ffffffffffffffffffffffffffffffffffffffff1603610ee3576040517f08c379a0000000000000000000000000000000000000000000000000000000008152600401610eda90612ec6565b60405180910390fd5b610eec836118e7565b90505f8111610f30576040517f08c379a0000000000000000000000000000000000000000000000000000000008152600401610f2790612f2e565b60405180910390fd5b42600d5f8473ffffffffffffffffffffffffffffffffffffffff1673ffffffffffffffffffffffffffffffffffffffff1681526020019081526020015f2081905550610fbf3330857f000000000000000000000000000000000000000000000000000000000000000073ffffffffffffffffffffffffffffffffffffffff16611e62909392919063ffffffff16565b8260085f828254610fd09190612dba565b92505081905550610fe18282611ee4565b3373ffffffffffffffffffffffffffffffffffffffff167f90890809c654f11d6e72a28fa60149770a0d11ec6c92319d6ceb2bb0a4ea1a158483604051611029929190612ded565b60405180910390a2611039611d98565b92915050565b611047611b5c565b6107d081111561108c576040517f08c379a000000000000000000000000000000000000000000000000000000000815260040161108390612f96565b60405180910390fd5b5f600a54905081600a819055507f607b1c943753982194530bf7133a5972ea2626e028005410efa54ab20035caf881836040516110ca929190612ded565b60405180910390a15050565b5f5f5f8373ffffffffffffffffffffffffffffffffffffffff1673ffffffffffffffffffffffffffffffffffffffff1681526020019081526020015f20549050919050565b611123611b5c565b61112c5f611f63565b565b611136611b5c565b62278d0081111561117c576040517f08c379a000000000000000000000000000000000000000000000000000000000815260040161117390612ffe565b60405180910390fd5b80600e8190555050565b5f5f5f5f5f60085494506111986107bc565b93505f84116111af57670de0b6b3a76400006111cf565b83670de0b6b3a7640000866111c49190612d79565b6111ce9190612d16565b5b92506009549150600a5490509091929394565b6111ea611b5c565b6111f2612026565b565b600a5481565b5f60065f9054906101000a900473ffffffffffffffffffffffffffffffffffffffff16905090565b60606004805461123190612b15565b80601f016020809104026020016040519081016040528092919081815260200182805461125d90612b15565b80156112a85780601f1061127f576101008083540402835291602001916112a8565b820191905f5260205f20905b81548152906001019060200180831161128b57829003601f168201915b5050505050905090565b600b5f9054906101000a900473ffffffffffffffffffffffffffffffffffffffff1681565b5f5f6112e1611982565b90506112ee818585611a6c565b600191505092915050565b5f611302611c45565b5f8411611344576040517f08c379a000000000000000000000000000000000000000000000000000000000815260040161133b90612f2e565b60405180910390fd5b5f73ffffffffffffffffffffffffffffffffffffffff168373ffffffffffffffffffffffffffffffffffffffff16036113b2576040517f08c379a00000000000000000000000000000000000000000000000000000000081526004016113a990612ec6565b60405180910390fd5b600e54600d5f8473ffffffffffffffffffffffffffffffffffffffff1673ffffffffffffffffffffffffffffffffffffffff1681526020019081526020015f20546113fd9190612dba565b42101561143f576040517f08c379a000000000000000000000000000000000000000000000000000000000815260040161143690613066565b60405180910390fd5b8173ffffffffffffffffffffffffffffffffffffffff163373ffffffffffffffffffffffffffffffffffffffff1614611502575f61147d83336117ac565b90507fffffffffffffffffffffffffffffffffffffffffffffffffffffffffffffffff811461150057848110156114e9576040517f08c379a00000000000000000000000000000000000000000000000000000000081526004016114e0906130ce565b60405180910390fd5b6114ff833387846114fa9190612d46565b611989565b5b505b61150b846107ab565b90505f811161154f576040517f08c379a000000000000000000000000000000000000000000000000000000000815260040161154690612e5e565b60405180910390fd5b600854811115611594576040517f08c379a000000000000000000000000000000000000000000000000000000000815260040161158b90613136565b60405180910390fd5b61159e8285612089565b8060085f8282546115af9190612d46565b9250508190555061160183827f000000000000000000000000000000000000000000000000000000000000000073ffffffffffffffffffffffffffffffffffffffff16611da29092919063ffffffff16565b3373ffffffffffffffffffffffffffffffffffffffff167ff279e6a1f5e320cca91135676d9cb6e44ca8a08c0b88342bcdb1144f6511b5688286604051611649929190612ded565b60405180910390a2611659611d98565b9392505050565b6107d081565b61271081565b611674611b5c565b61167c612108565b5f7f000000000000000000000000000000000000000000000000000000000000000073ffffffffffffffffffffffffffffffffffffffff166370a08231306040518263ffffffff1660e01b81526004016116d69190612979565b602060405180830381865afa1580156116f1573d5f5f3e3d5ffd5b505050506040513d601f19601f820116820180604052508101906117159190612c29565b90505f8111156117a95761177161172a6111fa565b827f000000000000000000000000000000000000000000000000000000000000000073ffffffffffffffffffffffffffffffffffffffff16611da29092919063ffffffff16565b7f99d7f8b71cfb9126984f7a5eed3a40e64a8959e9b0e442221546fb04ec6a489c816040516117a0919061267a565b60405180910390a15b50565b5f60015f8473ffffffffffffffffffffffffffffffffffffffff1673ffffffffffffffffffffffffffffffffffffffff1681526020019081526020015f205f8373ffffffffffffffffffffffffffffffffffffffff1673ffffffffffffffffffffffffffffffffffffffff1681526020019081526020015f2054905092915050565b611836611b5c565b5f73ffffffffffffffffffffffffffffffffffffffff168173ffffffffffffffffffffffffffffffffffffffff16036118a4576040517f08c379a000000000000000000000000000000000000000000000000000000000815260040161189b906131c4565b60405180910390fd5b80600c5f6101000a81548173ffffffffffffffffffffffffffffffffffffffff021916908373ffffffffffffffffffffffffffffffffffffffff16021790555050565b5f6118f182612148565b9050919050565b60095481565b611906611b5c565b5f73ffffffffffffffffffffffffffffffffffffffff168173ffffffffffffffffffffffffffffffffffffffff1603611976575f6040517f1e4fbdf700000000000000000000000000000000000000000000000000000000815260040161196d9190612979565b60405180910390fd5b61197f81611f63565b50565b5f33905090565b6119968383836001612186565b505050565b5f5f6119a56107bc565b90505f81036119b757829150506119d4565b80600854846119c69190612d79565b6119d09190612d16565b9150505b919050565b5f6119e484846117ac565b90507fffffffffffffffffffffffffffffffffffffffffffffffffffffffffffffffff811015611a665781811015611a57578281836040517ffb8f41b2000000000000000000000000000000000000000000000000000000008152600401611a4e939291906131e2565b60405180910390fd5b611a6584848484035f612186565b5b50505050565b5f73ffffffffffffffffffffffffffffffffffffffff168373ffffffffffffffffffffffffffffffffffffffff1603611adc575f6040517f96c6fd1e000000000000000000000000000000000000000000000000000000008152600401611ad39190612979565b60405180910390fd5b5f73ffffffffffffffffffffffffffffffffffffffff168273ffffffffffffffffffffffffffffffffffffffff1603611b4c575f6040517fec442f05000000000000000000000000000000000000000000000000000000008152600401611b439190612979565b60405180910390fd5b611b57838383612355565b505050565b611b64611982565b73ffffffffffffffffffffffffffffffffffffffff16611b826111fa565b73ffffffffffffffffffffffffffffffffffffffff1614611be157611ba5611982565b6040517f118cdaa7000000000000000000000000000000000000000000000000000000008152600401611bd89190612979565b60405180910390fd5b565b611beb612108565b5f600660146101000a81548160ff0219169083151502179055507f5db9ee0a495bf2e6ff9c91a7834c1ba4fdd244a5e8aa4e537bd38aeae4b073aa611c2e611982565b604051611c3b9190612979565b60405180910390a1565b600260055403611c81576040517f3ee5aeb500000000000000000000000000000000000000000000000000000000815260040160405180910390fd5b6002600581905550565b5f8373ffffffffffffffffffffffffffffffffffffffff1663095ea7b38484604051602401611cbb929190613217565b604051602081830303815290604052915060e01b6020820180517bffffffffffffffffffffffffffffffffffffffffffffffffffffffff83818316178352505050509050611d09848261256e565b611d9257611d87848573ffffffffffffffffffffffffffffffffffffffff1663095ea7b3865f604051602401611d40929190613277565b604051602081830303815290604052915060e01b6020820180517bffffffffffffffffffffffffffffffffffffffffffffffffffffffff83818316178352505050506125c7565b611d9184826125c7565b5b50505050565b6001600581905550565b611e1c838473ffffffffffffffffffffffffffffffffffffffff1663a9059cbb8585604051602401611dd5929190613217565b604051602081830303815290604052915060e01b6020820180517bffffffffffffffffffffffffffffffffffffffffffffffffffffffff83818316178352505050506125c7565b505050565b611e29610de7565b15611e60576040517fd93c066500000000000000000000000000000000000000000000000000000000815260040160405180910390fd5b565b611ede848573ffffffffffffffffffffffffffffffffffffffff166323b872dd868686604051602401611e979392919061329e565b604051602081830303815290604052915060e01b6020820180517bffffffffffffffffffffffffffffffffffffffffffffffffffffffff83818316178352505050506125c7565b50505050565b5f73ffffffffffffffffffffffffffffffffffffffff168273ffffffffffffffffffffffffffffffffffffffff1603611f54575f6040517fec442f05000000000000000000000000000000000000000000000000000000008152600401611f4b9190612979565b60405180910390fd5b611f5f5f8383612355565b5050565b5f60065f9054906101000a900473ffffffffffffffffffffffffffffffffffffffff1690508160065f6101000a81548173ffffffffffffffffffffffffffffffffffffffff021916908373ffffffffffffffffffffffffffffffffffffffff1602179055508173ffffffffffffffffffffffffffffffffffffffff168173ffffffffffffffffffffffffffffffffffffffff167f8be0079c531659141344cd1fd0a4f28419497f9722a3daafe3b4186f6b6457e060405160405180910390a35050565b61202e611e21565b6001600660146101000a81548160ff0219169083151502179055507f62e78cea01bee320cd4e420270b5ea74000d11b0c9f74754ebdbfc544b05a258612072611982565b60405161207f9190612979565b60405180910390a1565b5f73ffffffffffffffffffffffffffffffffffffffff168273ffffffffffffffffffffffffffffffffffffffff16036120f9575f6040517f96c6fd1e0000000000000000000000000000000000000000000000000000000081526004016120f09190612979565b60405180910390fd5b612104825f83612355565b5050565b612110610de7565b612146576040517f8dfc202b00000000000000000000000000000000000000000000000000000000815260040160405180910390fd5b565b5f5f6121526107bc565b90505f81036121645782915050612181565b60085481846121739190612d79565b61217d9190612d16565b9150505b919050565b5f73ffffffffffffffffffffffffffffffffffffffff168473ffffffffffffffffffffffffffffffffffffffff16036121f6575f6040517fe602df050000000000000000000000000000000000000000000000000000000081526004016121ed9190612979565b60405180910390fd5b5f73ffffffffffffffffffffffffffffffffffffffff168373ffffffffffffffffffffffffffffffffffffffff1603612266575f6040517f94280d6200000000000000000000000000000000000000000000000000000000815260040161225d9190612979565b60405180910390fd5b8160015f8673ffffffffffffffffffffffffffffffffffffffff1673ffffffffffffffffffffffffffffffffffffffff1681526020019081526020015f205f8573ffffffffffffffffffffffffffffffffffffffff1673ffffffffffffffffffffffffffffffffffffffff1681526020019081526020015f2081905550801561234f578273ffffffffffffffffffffffffffffffffffffffff168473ffffffffffffffffffffffffffffffffffffffff167f8c5be1e5ebec7d5bd14f71427d1e84f3dd0314c0f7b2291e5b200ac8c7c3b92584604051612346919061267a565b60405180910390a35b50505050565b5f73ffffffffffffffffffffffffffffffffffffffff168373ffffffffffffffffffffffffffffffffffffffff16036123a5578060025f8282546123999190612dba565b92505081905550612473565b5f5f5f8573ffffffffffffffffffffffffffffffffffffffff1673ffffffffffffffffffffffffffffffffffffffff1681526020019081526020015f205490508181101561242e578381836040517fe450d38c000000000000000000000000000000000000000000000000000000008152600401612425939291906131e2565b60405180910390fd5b8181035f5f8673ffffffffffffffffffffffffffffffffffffffff1673ffffffffffffffffffffffffffffffffffffffff1681526020019081526020015f2081905550505b5f73ffffffffffffffffffffffffffffffffffffffff168273ffffffffffffffffffffffffffffffffffffffff16036124ba578060025f8282540392505081905550612504565b805f5f8473ffffffffffffffffffffffffffffffffffffffff1673ffffffffffffffffffffffffffffffffffffffff1681526020019081526020015f205f82825401925050819055505b8173ffffffffffffffffffffffffffffffffffffffff168373ffffffffffffffffffffffffffffffffffffffff167fddf252ad1be2c89b69c2b068fc378daa952ba7f163c4a11628f55a4df523b3ef83604051612561919061267a565b60405180910390a3505050565b5f5f5f5f60205f8651602088015f8a5af192503d91505f5190508280156125bc57505f82146125a057600181146125bb565b5f8673ffffffffffffffffffffffffffffffffffffffff163b115b5b935050505092915050565b5f5f60205f8451602086015f885af1806125e6576040513d5f823e3d81fd5b3d92505f519150505f82146125ff57600181141561261a565b5f8473ffffffffffffffffffffffffffffffffffffffff163b145b1561265c57836040517f5274afe70000000000000000000000000000000000000000000000000000000081526004016126539190612979565b60405180910390fd5b50505050565b5f819050919050565b61267481612662565b82525050565b5f60208201905061268d5f83018461266b565b92915050565b5f5ffd5b5f73ffffffffffffffffffffffffffffffffffffffff82169050919050565b5f6126c082612697565b9050919050565b6126d0816126b6565b81146126da575f5ffd5b50565b5f813590506126eb816126c7565b92915050565b5f6020828403121561270657612705612693565b5b5f612713848285016126dd565b91505092915050565b5f81519050919050565b5f82825260208201905092915050565b8281835e5f83830152505050565b5f601f19601f8301169050919050565b5f61275e8261271c565b6127688185612726565b9350612778818560208601612736565b61278181612744565b840191505092915050565b5f6020820190508181035f8301526127a48184612754565b905092915050565b6127b581612662565b81146127bf575f5ffd5b50565b5f813590506127d0816127ac565b92915050565b5f5f604083850312156127ec576127eb612693565b5b5f6127f9858286016126dd565b925050602061280a858286016127c2565b9150509250929050565b5f8115159050919050565b61282881612814565b82525050565b5f6020820190506128415f83018461281f565b92915050565b5f6020828403121561285c5761285b612693565b5b5f612869848285016127c2565b91505092915050565b5f5f5f6060848603121561288957612888612693565b5b5f612896868287016126dd565b93505060206128a7868287016126dd565b92505060406128b8868287016127c2565b9150509250925092565b5f60ff82169050919050565b6128d7816128c2565b82525050565b5f6020820190506128f05f8301846128ce565b92915050565b5f819050919050565b5f61291961291461290f84612697565b6128f6565b612697565b9050919050565b5f61292a826128ff565b9050919050565b5f61293b82612920565b9050919050565b61294b81612931565b82525050565b5f6020820190506129645f830184612942565b92915050565b612973816126b6565b82525050565b5f60208201905061298c5f83018461296a565b92915050565b5f61299c82612920565b9050919050565b6129ac81612992565b82525050565b5f6020820190506129c55f8301846129a3565b92915050565b5f5f604083850312156129e1576129e0612693565b5b5f6129ee858286016127c2565b92505060206129ff858286016126dd565b9150509250929050565b5f60a082019050612a1c5f83018861266b565b612a29602083018761266b565b612a36604083018661266b565b612a43606083018561266b565b612a50608083018461266b565b9695505050505050565b5f5f5f60608486031215612a7157612a70612693565b5b5f612a7e868287016127c2565b9350506020612a8f868287016126dd565b9250506040612aa0868287016126dd565b9150509250925092565b5f5f60408385031215612ac057612abf612693565b5b5f612acd858286016126dd565b9250506020612ade858286016126dd565b9150509250929050565b7f4e487b71000000000000000000000000000000000000000000000000000000005f52602260045260245ffd5b5f6002820490506001821680612b2c57607f821691505b602082108103612b3f57612b3e612ae8565b5b50919050565b7f53747261746567792063616e6e6f74206265207a65726f2061646472657373005f82015250565b5f612b79601f83612726565b9150612b8482612b45565b602082019050919050565b5f6020820190508181035f830152612ba681612b6d565b9050919050565b7f4f6e6c792073747261746567792063616e2063616c6c000000000000000000005f82015250565b5f612be1601683612726565b9150612bec82612bad565b602082019050919050565b5f6020820190508181035f830152612c0e81612bd5565b9050919050565b5f81519050612c23816127ac565b92915050565b5f60208284031215612c3e57612c3d612693565b5b5f612c4b84828501612c15565b91505092915050565b7f4e6f2061737365747320746f20696e76657374000000000000000000000000005f82015250565b5f612c88601383612726565b9150612c9382612c54565b602082019050919050565b5f6020820190508181035f830152612cb581612c7c565b9050919050565b7f4e487b71000000000000000000000000000000000000000000000000000000005f52601260045260245ffd5b7f4e487b71000000000000000000000000000000000000000000000000000000005f52601160045260245ffd5b5f612d2082612662565b9150612d2b83612662565b925082612d3b57612d3a612cbc565b5b828204905092915050565b5f612d5082612662565b9150612d5b83612662565b9250828203905081811115612d7357612d72612ce9565b5b92915050565b5f612d8382612662565b9150612d8e83612662565b9250828202612d9c81612662565b91508282048414831517612db357612db2612ce9565b5b5092915050565b5f612dc482612662565b9150612dcf83612662565b9250828201905080821115612de757612de6612ce9565b5b92915050565b5f604082019050612e005f83018561266b565b612e0d602083018461266b565b9392505050565b7f417373657473206d75737420626520706f7369746976650000000000000000005f82015250565b5f612e48601783612726565b9150612e5382612e14565b602082019050919050565b5f6020820190508181035f830152612e7581612e3c565b9050919050565b7f52656365697665722063616e6e6f74206265207a65726f2061646472657373005f82015250565b5f612eb0601f83612726565b9150612ebb82612e7c565b602082019050919050565b5f6020820190508181035f830152612edd81612ea4565b9050919050565b7f536861726573206d75737420626520706f7369746976650000000000000000005f82015250565b5f612f18601783612726565b9150612f2382612ee4565b602082019050919050565b5f6020820190508181035f830152612f4581612f0c565b9050919050565b7f46656520746f6f206869676800000000000000000000000000000000000000005f82015250565b5f612f80600c83612726565b9150612f8b82612f4c565b602082019050919050565b5f6020820190508181035f830152612fad81612f74565b9050919050565b7f4c6f636b20706572696f6420746f6f206c6f6e670000000000000000000000005f82015250565b5f612fe8601483612726565b9150612ff382612fb4565b602082019050919050565b5f6020820190508181035f83015261301581612fdc565b9050919050565b7f5769746864726177616c207374696c6c206c6f636b65640000000000000000005f82015250565b5f613050601783612726565b915061305b8261301c565b602082019050919050565b5f6020820190508181035f83015261307d81613044565b9050919050565b7f496e73756666696369656e7420616c6c6f77616e6365000000000000000000005f82015250565b5f6130b8601683612726565b91506130c382613084565b602082019050919050565b5f6020820190508181035f8301526130e5816130ac565b9050919050565b7f496e73756666696369656e742061737365747320696e207661756c74000000005f82015250565b5f613120601c83612726565b915061312b826130ec565b602082019050919050565b5f6020820190508181035f83015261314d81613114565b9050919050565b7f46656520726563697069656e742063616e6e6f74206265207a65726f206164645f8201527f7265737300000000000000000000000000000000000000000000000000000000602082015250565b5f6131ae602483612726565b91506131b982613154565b604082019050919050565b5f6020820190508181035f8301526131db816131a2565b9050919050565b5f6060820190506131f55f83018661296a565b613202602083018561266b565b61320f604083018461266b565b949350505050565b5f60408201905061322a5f83018561296a565b613237602083018461266b565b9392505050565b5f819050919050565b5f61326161325c6132578461323e565b6128f6565b612662565b9050919050565b61327181613247565b82525050565b5f60408201905061328a5f83018561296a565b6132976020830184613268565b9392505050565b5f6060820190506132b15f83018661296a565b6132be602083018561296a565b6132cb604083018461266b565b94935050505056fea26469706673582212209475c640b74d7e124d0922eda38ba719d12f3c670a4388ed1b728223c7fd09aa64736f6c634300081e0033","linkReferences":{}},"methodIdentifiers":{"FEE_DENOMINATOR()":"d73792a9","MAX_PERFORMANCE_FEE()":"bdca9165","allowance(address,address)":"dd62ed3e","approve(address,uint256)":"095ea7b3","asset()":"38d52e0f","balanceOf(address)":"70a08231","decimals()":"313ce567","deposit(uint256,address)":"6e553f65","emergencyWithdraw()":"db2e21bc","executeStrategy()":"44647185","feeRecipient()":"46904840","getVaultInfo()":"7f98aa71","harvest()":"4641257d","lastDepositTime(address)":"02527753","lastHarvest()":"f1a392da","liquidityPool()":"665a11ca","lockPeriod()":"3fd8b02f","name()":"06fdde03","owner()":"8da5cb5b","pause()":"8456cb59","paused()":"5c975abb","performanceFee()":"87788782","previewDeposit(uint256)":"ef8b30f7","previewWithdraw(uint256)":"0a28a477","renounceOwnership()":"715018a6","setFeeRecipient(address)":"e74b981b","setLockPeriod(uint256)":"779972da","setPerformanceFee(uint256)":"70897b23","setStrategy(address)":"33a100ca","strategy()":"a8c62e76","symbol()":"95d89b41","totalAssets()":"01e1d114","totalSupply()":"18160ddd","transfer(address,uint256)":"a9059cbb","transferFrom(address,address,uint256)":"23b872dd","transferOwnership(address)":"f2fde38b","unpause()":"3f4ba83a","withdraw(uint256,address,address)":"b460af94"},"id":55}