{"abi":[{"type":"constructor","inputs":[{"name":"_tokenA","type":"address","internalType":"address"},{"name":"_tokenB","type":"address","internalType":"address"},{"name":"_name","type":"string","internalType":"string"},{"name":"_symbol","type":"string","internalType":"string"}],"stateMutability":"nonpayable"},{"type":"function","name":"FEE_DENOMINATOR","inputs":[],"outputs":[{"name":"","type":"uint256","internalType":"uint256"}],"stateMutability":"view"},{"type":"function","name":"FEE_RATE","inputs":[],"outputs":[{"name":"","type":"uint256","internalType":"uint256"}],"stateMutability":"view"},{"type":"function","name":"addLiquidity","inputs":[{"name":"amountADesired","type":"uint256","internalType":"uint256"},{"name":"amountBDesired","type":"uint256","internalType":"uint256"},{"name":"amountAMin","type":"uint256","internalType":"uint256"},{"name":"amountBMin","type":"uint256","internalType":"uint256"},{"name":"to","type":"address","internalType":"address"}],"outputs":[{"name":"liquidity","type":"uint256","internalType":"uint256"}],"stateMutability":"nonpayable"},{"type":"function","name":"allowance","inputs":[{"name":"owner","type":"address","internalType":"address"},{"name":"spender","type":"address","internalType":"address"}],"outputs":[{"name":"","type":"uint256","internalType":"uint256"}],"stateMutability":"view"},{"type":"function","name":"approve","inputs":[{"name":"spender","type":"address","internalType":"address"},{"name":"value","type":"uint256","internalType":"uint256"}],"outputs":[{"name":"","type":"bool","internalType":"bool"}],"stateMutability":"nonpayable"},{"type":"function","name":"balanceOf","inputs":[{"name":"account","type":"address","internalType":"address"}],"outputs":[{"name":"","type":"uint256","internalType":"uint256"}],"stateMutability":"view"},{"type":"function","name":"decimals","inputs":[],"outputs":[{"name":"","type":"uint8","internalType":"uint8"}],"stateMutability":"view"},{"type":"function","name":"getAmountIn","inputs":[{"name":"amountOut","type":"uint256","internalType":"uint256"},{"name":"reserveIn","type":"uint256","internalType":"uint256"},{"name":"reserveOut","type":"uint256","internalType":"uint256"}],"outputs":[{"name":"amountIn","type":"uint256","internalType":"uint256"}],"stateMutability":"pure"},{"type":"function","name":"getAmountOut","inputs":[{"name":"amountIn","type":"uint256","internalType":"uint256"},{"name":"reserveIn","type":"uint256","internalType":"uint256"},{"name":"reserveOut","type":"uint256","internalType":"uint256"}],"outputs":[{"name":"amountOut","type":"uint256","internalType":"uint256"}],"stateMutability":"pure"},{"type":"function","name":"getReserves","inputs":[],"outputs":[{"name":"","type":"uint256","internalType":"uint256"},{"name":"","type":"uint256","internalType":"uint256"},{"name":"","type":"uint256","internalType":"uint256"}],"stateMutability":"view"},{"type":"function","name":"lastUpdated","inputs":[],"outputs":[{"name":"","type":"uint256","internalType":"uint256"}],"stateMutability":"view"},{"type":"function","name":"name","inputs":[],"outputs":[{"name":"","type":"string","internalType":"string"}],"stateMutability":"view"},{"type":"function","name":"owner","inputs":[],"outputs":[{"name":"","type":"address","internalType":"address"}],"stateMutability":"view"},{"type":"function","name":"removeLiquidity","inputs":[{"name":"liquidity","type":"uint256","internalType":"uint256"},{"name":"amountAMin","type":"uint256","internalType":"uint256"},{"name":"amountBMin","type":"uint256","internalType":"uint256"},{"name":"to","type":"address","internalType":"address"}],"outputs":[{"name":"amountA","type":"uint256","internalType":"uint256"},{"name":"amountB","type":"uint256","internalType":"uint256"}],"stateMutability":"nonpayable"},{"type":"function","name":"renounceOwnership","inputs":[],"outputs":[],"stateMutability":"nonpayable"},{"type":"function","name":"reserveA","inputs":[],"outputs":[{"name":"","type":"uint256","internalType":"uint256"}],"stateMutability":"view"},{"type":"function","name":"reserveB","inputs":[],"outputs":[{"name":"","type":"uint256","internalType":"uint256"}],"stateMutability":"view"},{"type":"function","name":"swapAForB","inputs":[{"name":"amountIn","type":"uint256","internalType":"uint256"},{"name":"amountOutMin","type":"uint256","internalType":"uint256"},{"name":"to","type":"address","internalType":"address"}],"outputs":[{"name":"amountOut","type":"uint256","internalType":"uint256"}],"stateMutability":"nonpayable"},{"type":"function","name":"swapBForA","inputs":[{"name":"amountIn","type":"uint256","internalType":"uint256"},{"name":"amountOutMin","type":"uint256","internalType":"uint256"},{"name":"to","type":"address","internalType":"address"}],"outputs":[{"name":"amountOut","type":"uint256","internalType":"uint256"}],"stateMutability":"nonpayable"},{"type":"function","name":"symbol","inputs":[],"outputs":[{"name":"","type":"string","internalType":"string"}],"stateMutability":"view"},{"type":"function","name":"tokenA","inputs":[],"outputs":[{"name":"","type":"address","internalType":"contract IERC20"}],"stateMutability":"view"},{"type":"function","name":"tokenB","inputs":[],"outputs":[{"name":"","type":"address","internalType":"contract IERC20"}],"stateMutability":"view"},{"type":"function","name":"totalSupply","inputs":[],"outputs":[{"name":"","type":"uint256","internalType":"uint256"}],"stateMutability":"view"},{"type":"function","name":"transfer","inputs":[{"name":"to","type":"address","internalType":"address"},{"name":"value","type":"uint256","internalType":"uint256"}],"outputs":[{"name":"","type":"bool","internalType":"bool"}],"stateMutability":"nonpayable"},{"type":"function","name":"transferFrom","inputs":[{"name":"from","type":"address","internalType":"address"},{"name":"to","type":"address","internalType":"address"},{"name":"value","type":"uint256","internalType":"uint256"}],"outputs":[{"name":"","type":"bool","internalType":"bool"}],"stateMutability":"nonpayable"},{"type":"function","name":"transferOwnership","inputs":[{"name":"newOwner","type":"address","internalType":"address"}],"outputs":[],"stateMutability":"nonpayable"},{"type":"event","name":"AddLiquidity","inputs":[{"name":"provider","type":"address","indexed":true,"internalType":"address"},{"name":"amountA","type":"uint256","indexed":false,"internalType":"uint256"},{"name":"amountB","type":"uint256","indexed":false,"internalType":"uint256"},{"name":"liquidity","type":"uint256","indexed":false,"internalType":"uint256"}],"anonymous":false},{"type":"event","name":"Approval","inputs":[{"name":"owner","type":"address","indexed":true,"internalType":"address"},{"name":"spender","type":"address","indexed":true,"internalType":"address"},{"name":"value","type":"uint256","indexed":false,"internalType":"uint256"}],"anonymous":false},{"type":"event","name":"OwnershipTransferred","inputs":[{"name":"previousOwner","type":"address","indexed":true,"internalType":"address"},{"name":"newOwner","type":"address","indexed":true,"internalType":"address"}],"anonymous":false},{"type":"event","name":"RemoveLiquidity","inputs":[{"name":"provider","type":"address","indexed":true,"internalType":"address"},{"name":"amountA","type":"uint256","indexed":false,"internalType":"uint256"},{"name":"amountB","type":"uint256","indexed":false,"internalType":"uint256"},{"name":"liquidity","type":"uint256","indexed":false,"internalType":"uint256"}],"anonymous":false},{"type":"event","name":"Swap","inputs":[{"name":"user","type":"address","indexed":true,"internalType":"address"},{"name":"tokenIn","type":"address","indexed":true,"internalType":"address"},{"name":"tokenOut","type":"address","indexed":true,"internalType":"address"},{"name":"amountIn","type":"uint256","indexed":false,"internalType":"uint256"},{"name":"amountOut","type":"uint256","indexed":false,"internalType":"uint256"}],"anonymous":false},{"type":"event","name":"Transfer","inputs":[{"name":"from","type":"address","indexed":true,"internalType":"address"},{"name":"to","type":"address","indexed":true,"internalType":"address"},{"name":"value","type":"uint256","indexed":false,"internalType":"uint256"}],"anonymous":false},{"type":"error","name":"ERC20InsufficientAllowance","inputs":[{"name":"spender","type":"address","internalType":"address"},{"name":"allowance","type":"uint256","internalType":"uint256"},{"name":"needed","type":"uint256","internalType":"uint256"}]},{"type":"error","name":"ERC20InsufficientBalance","inputs":[{"name":"sender","type":"address","internalType":"address"},{"name":"balance","type":"uint256","internalType":"uint256"},{"name":"needed","type":"uint256","internalType":"uint256"}]},{"type":"error","name":"ERC20InvalidApprover","inputs":[{"name":"approver","type":"address","internalType":"address"}]},{"type":"error","name":"ERC20InvalidReceiver","inputs":[{"name":"receiver","type":"address","internalType":"address"}]},{"type":"error","name":"ERC20InvalidSender","inputs":[{"name":"sender","type":"address","internalType":"address"}]},{"type":"error","name":"ERC20InvalidSpender","inputs":[{"name":"spender","type":"address","internalType":"address"}]},{"type":"error","name":"OwnableInvalidOwner","inputs":[{"name":"owner","type":"address","internalType":"address"}]},{"type":"error","name":"OwnableUnauthorizedAccount","inputs":[{"name":"account","type":"address","internalType":"address"}]},{"type":"error","name":"ReentrancyGuardReentrantCall","inputs":[]}],"bytecode":{"object":"0x60c060405234801561000f575f5ffd5b50604051613e16380380613e1683398181016040528101906100319190610503565b338282816003908161004391906107af565b50806004908161005391906107af565b50505060016005819055505f73ffffffffffffffffffffffffffffffffffffffff168173ffffffffffffffffffffffffffffffffffffffff16036100ce575f6040517f1e4fbdf70000000000000000000000000000000000000000000000000000000081526004016100c5919061088d565b60405180910390fd5b6100dd8161029960201b60201c565b505f73ffffffffffffffffffffffffffffffffffffffff168473ffffffffffffffffffffffffffffffffffffffff160361014c576040517f08c379a000000000000000000000000000000000000000000000000000000000815260040161014390610900565b60405180910390fd5b5f73ffffffffffffffffffffffffffffffffffffffff168373ffffffffffffffffffffffffffffffffffffffff16036101ba576040517f08c379a00000000000000000000000000000000000000000000000000000000081526004016101b190610968565b60405180910390fd5b8273ffffffffffffffffffffffffffffffffffffffff168473ffffffffffffffffffffffffffffffffffffffff1603610228576040517f08c379a000000000000000000000000000000000000000000000000000000000815260040161021f906109d0565b60405180910390fd5b8373ffffffffffffffffffffffffffffffffffffffff1660808173ffffffffffffffffffffffffffffffffffffffff16815250508273ffffffffffffffffffffffffffffffffffffffff1660a08173ffffffffffffffffffffffffffffffffffffffff1681525050505050506109ee565b5f60065f9054906101000a900473ffffffffffffffffffffffffffffffffffffffff1690508160065f6101000a81548173ffffffffffffffffffffffffffffffffffffffff021916908373ffffffffffffffffffffffffffffffffffffffff1602179055508173ffffffffffffffffffffffffffffffffffffffff168173ffffffffffffffffffffffffffffffffffffffff167f8be0079c531659141344cd1fd0a4f28419497f9722a3daafe3b4186f6b6457e060405160405180910390a35050565b5f604051905090565b5f5ffd5b5f5ffd5b5f73ffffffffffffffffffffffffffffffffffffffff82169050919050565b5f6103968261036d565b9050919050565b6103a68161038c565b81146103b0575f5ffd5b50565b5f815190506103c18161039d565b92915050565b5f5ffd5b5f5ffd5b5f601f19601f8301169050919050565b7f4e487b71000000000000000000000000000000000000000000000000000000005f52604160045260245ffd5b610415826103cf565b810181811067ffffffffffffffff82111715610434576104336103df565b5b80604052505050565b5f61044661035c565b9050610452828261040c565b919050565b5f67ffffffffffffffff821115610471576104706103df565b5b61047a826103cf565b9050602081019050919050565b8281835e5f83830152505050565b5f6104a76104a284610457565b61043d565b9050828152602081018484840111156104c3576104c26103cb565b5b6104ce848285610487565b509392505050565b5f82601f8301126104ea576104e96103c7565b5b81516104fa848260208601610495565b91505092915050565b5f5f5f5f6080858703121561051b5761051a610365565b5b5f610528878288016103b3565b9450506020610539878288016103b3565b935050604085015167ffffffffffffffff81111561055a57610559610369565b5b610566878288016104d6565b925050606085015167ffffffffffffffff81111561058757610586610369565b5b610593878288016104d6565b91505092959194509250565b5f81519050919050565b7f4e487b71000000000000000000000000000000000000000000000000000000005f52602260045260245ffd5b5f60028204905060018216806105ed57607f821691505b602082108103610600576105ff6105a9565b5b50919050565b5f819050815f5260205f209050919050565b5f6020601f8301049050919050565b5f82821b905092915050565b5f600883026106627fffffffffffffffffffffffffffffffffffffffffffffffffffffffffffffffff82610627565b61066c8683610627565b95508019841693508086168417925050509392505050565b5f819050919050565b5f819050919050565b5f6106b06106ab6106a684610684565b61068d565b610684565b9050919050565b5f819050919050565b6106c983610696565b6106dd6106d5826106b7565b848454610633565b825550505050565b5f5f905090565b6106f46106e5565b6106ff8184846106c0565b505050565b5b81811015610722576107175f826106ec565b600181019050610705565b5050565b601f8211156107675761073881610606565b61074184610618565b81016020851015610750578190505b61076461075c85610618565b830182610704565b50505b505050565b5f82821c905092915050565b5f6107875f198460080261076c565b1980831691505092915050565b5f61079f8383610778565b9150826002028217905092915050565b6107b88261059f565b67ffffffffffffffff8111156107d1576107d06103df565b5b6107db82546105d6565b6107e6828285610726565b5f60209050601f831160018114610817575f8415610805578287015190505b61080f8582610794565b865550610876565b601f19841661082586610606565b5f5b8281101561084c57848901518255600182019150602085019450602081019050610827565b868310156108695784890151610865601f891682610778565b8355505b6001600288020188555050505b505050505050565b6108878161038c565b82525050565b5f6020820190506108a05f83018461087e565b92915050565b5f82825260208201905092915050565b7f546f6b656e20412063616e6e6f74206265207a65726f206164647265737300005f82015250565b5f6108ea601e836108a6565b91506108f5826108b6565b602082019050919050565b5f6020820190508181035f830152610917816108de565b9050919050565b7f546f6b656e20422063616e6e6f74206265207a65726f206164647265737300005f82015250565b5f610952601e836108a6565b915061095d8261091e565b602082019050919050565b5f6020820190508181035f83015261097f81610946565b9050919050565b7f546f6b656e73206d75737420626520646966666572656e7400000000000000005f82015250565b5f6109ba6018836108a6565b91506109c582610986565b602082019050919050565b5f6020820190508181035f8301526109e7816109ae565b9050919050565b60805160a05161337b610a9b5f395f81816108b50152818161095101528181610aad01528181610bcf01528181610f49015281816110ba015281816111df015281816116840152818161181e01528181611b460152611cd301525f81816108170152818161098801528181610a0f01528181610b6101528181610fe70152818161108301528181611141015281816115e60152818161178001528181611aaa0152611c35015261337b5ff3fe608060405234801561000f575f5ffd5b506004361061018c575f3560e01c8063715018a6116100dc578063d0b06f5d11610095578063dd62ed3e1161006f578063dd62ed3e146104a2578063e0ab0772146104d2578063e39b0eb514610502578063f2fde38b146105335761018c565b8063d0b06f5d14610448578063d73792a914610466578063dc5fa6c5146104845761018c565b8063715018a61461037257806385f8c2591461037c5780638da5cb5b146103ac57806395d89b41146103ca5780639a552bf2146103e8578063a9059cbb146104185761018c565b806318160ddd116101495780632d11c58a116101235780632d11c58a146102e8578063313ce567146103065780635f64b55b1461032457806370a08231146103425761018c565b806318160ddd1461027c57806319e36f3b1461029a57806323b872dd146102b85761018c565b8063054d50d41461019057806306fdde03146101c05780630902f1ac146101de578063095ea7b3146101fe5780630e58123f1461022e5780630fc63d101461025e575b5f5ffd5b6101aa60048036038101906101a591906126cf565b61054f565b6040516101b7919061272e565b60405180910390f35b6101c861063f565b6040516101d591906127b7565b60405180910390f35b6101e66106cf565b6040516101f5939291906127d7565b60405180910390f35b61021860048036038101906102139190612866565b6106e6565b60405161022591906128be565b60405180910390f35b610248600480360381019061024391906128d7565b610708565b604051610255919061272e565b60405180910390f35b610266610b5f565b6040516102739190612982565b60405180910390f35b610284610b83565b604051610291919061272e565b60405180910390f35b6102a2610b8c565b6040516102af919061272e565b60405180910390f35b6102d260048036038101906102cd919061299b565b610b92565b6040516102df91906128be565b60405180910390f35b6102f0610bc0565b6040516102fd919061272e565b60405180910390f35b61030e610bc5565b60405161031b9190612a06565b60405180910390f35b61032c610bcd565b6040516103399190612982565b60405180910390f35b61035c60048036038101906103579190612a1f565b610bf1565b604051610369919061272e565b60405180910390f35b61037a610c36565b005b610396600480360381019061039191906126cf565b610c49565b6040516103a3919061272e565b60405180910390f35b6103b4610d82565b6040516103c19190612a59565b60405180910390f35b6103d2610daa565b6040516103df91906127b7565b60405180910390f35b61040260048036038101906103fd91906128d7565b610e3a565b60405161040f919061272e565b60405180910390f35b610432600480360381019061042d9190612866565b611291565b60405161043f91906128be565b60405180910390f35b6104506112b3565b60405161045d919061272e565b60405180910390f35b61046e6112b9565b60405161047b919061272e565b60405180910390f35b61048c6112bf565b604051610499919061272e565b60405180910390f35b6104bc60048036038101906104b79190612a72565b6112c5565b6040516104c9919061272e565b60405180910390f35b6104ec60048036038101906104e79190612ab0565b611347565b6040516104f9919061272e565b60405180910390f35b61051c60048036038101906105179190612b27565b6118d2565b60405161052a929190612b8b565b60405180910390f35b61054d60048036038101906105489190612a1f565b611d87565b005b5f5f8411610592576040517f08c379a000000000000000000000000000000000000000000000000000000000815260040161058990612bfc565b60405180910390fd5b5f831180156105a057505f82115b6105df576040517f08c379a00000000000000000000000000000000000000000000000000000000081526004016105d690612c64565b60405180910390fd5b5f60036103e86105ef9190612caf565b856105fa9190612ce2565b90505f83826106099190612ce2565b90505f826103e88761061b9190612ce2565b6106259190612d23565b905080826106339190612d83565b93505050509392505050565b60606003805461064e90612de0565b80601f016020809104026020016040519081016040528092919081815260200182805461067a90612de0565b80156106c55780601f1061069c576101008083540402835291602001916106c5565b820191905f5260205f20905b8154815290600101906020018083116106a857829003601f168201915b5050505050905090565b5f5f5f600754600854600954925092509250909192565b5f5f6106f0611e0b565b90506106fd818585611e12565b600191505092915050565b5f610711611e24565b5f8411610753576040517f08c379a000000000000000000000000000000000000000000000000000000000815260040161074a90612bfc565b60405180910390fd5b5f73ffffffffffffffffffffffffffffffffffffffff168273ffffffffffffffffffffffffffffffffffffffff16036107c1576040517f08c379a00000000000000000000000000000000000000000000000000000000081526004016107b890612e5a565b60405180910390fd5b6107d08460075460085461054f565b905082811015610815576040517f08c379a000000000000000000000000000000000000000000000000000000000815260040161080c90612ec2565b60405180910390fd5b7f000000000000000000000000000000000000000000000000000000000000000073ffffffffffffffffffffffffffffffffffffffff166323b872dd3330876040518463ffffffff1660e01b815260040161087293929190612ee0565b6020604051808303815f875af115801561088e573d5f5f3e3d5ffd5b505050506040513d601f19601f820116820180604052508101906108b29190612f3f565b507f000000000000000000000000000000000000000000000000000000000000000073ffffffffffffffffffffffffffffffffffffffff1663a9059cbb83836040518363ffffffff1660e01b815260040161090e929190612f6a565b6020604051808303815f875af115801561092a573d5f5f3e3d5ffd5b505050506040513d601f19601f8201168201806040525081019061094e9190612f3f565b507f000000000000000000000000000000000000000000000000000000000000000073ffffffffffffffffffffffffffffffffffffffff167f000000000000000000000000000000000000000000000000000000000000000073ffffffffffffffffffffffffffffffffffffffff163373ffffffffffffffffffffffffffffffffffffffff167fcd3829a3813dc3cdd188fd3d01dcf3268c16be2fdd2dd21d0665418816e460628785604051610a05929190612b8b565b60405180910390a47f000000000000000000000000000000000000000000000000000000000000000073ffffffffffffffffffffffffffffffffffffffff166370a08231306040518263ffffffff1660e01b8152600401610a669190612a59565b602060405180830381865afa158015610a81573d5f5f3e3d5ffd5b505050506040513d601f19601f82011682018060405250810190610aa59190612fa5565b6007819055507f000000000000000000000000000000000000000000000000000000000000000073ffffffffffffffffffffffffffffffffffffffff166370a08231306040518263ffffffff1660e01b8152600401610b049190612a59565b602060405180830381865afa158015610b1f573d5f5f3e3d5ffd5b505050506040513d601f19601f82011682018060405250810190610b439190612fa5565b60088190555042600981905550610b58611e6a565b9392505050565b7f000000000000000000000000000000000000000000000000000000000000000081565b5f600254905090565b60085481565b5f5f610b9c611e0b565b9050610ba9858285611e74565b610bb4858585611f07565b60019150509392505050565b600381565b5f6012905090565b7f000000000000000000000000000000000000000000000000000000000000000081565b5f5f5f8373ffffffffffffffffffffffffffffffffffffffff1673ffffffffffffffffffffffffffffffffffffffff1681526020019081526020015f20549050919050565b610c3e611ff7565b610c475f61207e565b565b5f5f8411610c8c576040517f08c379a0000000000000000000000000000000000000000000000000000000008152600401610c839061301a565b60405180910390fd5b5f83118015610c9a57505f82115b610cd9576040517f08c379a0000000000000000000000000000000000000000000000000000000008152600401610cd090612c64565b60405180910390fd5b818410610d1b576040517f08c379a0000000000000000000000000000000000000000000000000000000008152600401610d1290613082565b60405180910390fd5b5f6103e88585610d2b9190612ce2565b610d359190612ce2565b90505f60036103e8610d479190612caf565b8685610d539190612caf565b610d5d9190612ce2565b905060018183610d6d9190612d83565b610d779190612d23565b925050509392505050565b5f60065f9054906101000a900473ffffffffffffffffffffffffffffffffffffffff16905090565b606060048054610db990612de0565b80601f0160208091040260200160405190810160405280929190818152602001828054610de590612de0565b8015610e305780601f10610e0757610100808354040283529160200191610e30565b820191905f5260205f20905b815481529060010190602001808311610e1357829003601f168201915b5050505050905090565b5f610e43611e24565b5f8411610e85576040517f08c379a0000000000000000000000000000000000000000000000000000000008152600401610e7c90612bfc565b60405180910390fd5b5f73ffffffffffffffffffffffffffffffffffffffff168273ffffffffffffffffffffffffffffffffffffffff1603610ef3576040517f08c379a0000000000000000000000000000000000000000000000000000000008152600401610eea90612e5a565b60405180910390fd5b610f028460085460075461054f565b905082811015610f47576040517f08c379a0000000000000000000000000000000000000000000000000000000008152600401610f3e90612ec2565b60405180910390fd5b7f000000000000000000000000000000000000000000000000000000000000000073ffffffffffffffffffffffffffffffffffffffff166323b872dd3330876040518463ffffffff1660e01b8152600401610fa493929190612ee0565b6020604051808303815f875af1158015610fc0573d5f5f3e3d5ffd5b505050506040513d601f19601f82011682018060405250810190610fe49190612f3f565b507f000000000000000000000000000000000000000000000000000000000000000073ffffffffffffffffffffffffffffffffffffffff1663a9059cbb83836040518363ffffffff1660e01b8152600401611040929190612f6a565b6020604051808303815f875af115801561105c573d5f5f3e3d5ffd5b505050506040513d601f19601f820116820180604052508101906110809190612f3f565b507f000000000000000000000000000000000000000000000000000000000000000073ffffffffffffffffffffffffffffffffffffffff167f000000000000000000000000000000000000000000000000000000000000000073ffffffffffffffffffffffffffffffffffffffff163373ffffffffffffffffffffffffffffffffffffffff167fcd3829a3813dc3cdd188fd3d01dcf3268c16be2fdd2dd21d0665418816e460628785604051611137929190612b8b565b60405180910390a47f000000000000000000000000000000000000000000000000000000000000000073ffffffffffffffffffffffffffffffffffffffff166370a08231306040518263ffffffff1660e01b81526004016111989190612a59565b602060405180830381865afa1580156111b3573d5f5f3e3d5ffd5b505050506040513d601f19601f820116820180604052508101906111d79190612fa5565b6007819055507f000000000000000000000000000000000000000000000000000000000000000073ffffffffffffffffffffffffffffffffffffffff166370a08231306040518263ffffffff1660e01b81526004016112369190612a59565b602060405180830381865afa158015611251573d5f5f3e3d5ffd5b505050506040513d601f19601f820116820180604052508101906112759190612fa5565b6008819055504260098190555061128a611e6a565b9392505050565b5f5f61129b611e0b565b90506112a8818585611f07565b600191505092915050565b60095481565b6103e881565b60075481565b5f60015f8473ffffffffffffffffffffffffffffffffffffffff1673ffffffffffffffffffffffffffffffffffffffff1681526020019081526020015f205f8373ffffffffffffffffffffffffffffffffffffffff1673ffffffffffffffffffffffffffffffffffffffff1681526020019081526020015f2054905092915050565b5f611350611e24565b5f8611801561135e57505f85115b61139d576040517f08c379a0000000000000000000000000000000000000000000000000000000008152600401611394906130ea565b60405180910390fd5b5f73ffffffffffffffffffffffffffffffffffffffff168273ffffffffffffffffffffffffffffffffffffffff160361140b576040517f08c379a000000000000000000000000000000000000000000000000000000000815260040161140290612e5a565b60405180910390fd5b5f5f5f60075414801561141f57505f600854145b1561145f578791508690506103e8611441828461143c9190612ce2565b612141565b61144b9190612caf565b925061145a60016103e86121b2565b6115a2565b5f6007546008548a6114719190612ce2565b61147b9190612d83565b90508781116114d257858110156114c7576040517f08c379a00000000000000000000000000000000000000000000000000000000081526004016114be90613152565b60405180910390fd5b889250809150611547565b5f6008546007548a6114e49190612ce2565b6114ee9190612d83565b90508981111580156115005750878110155b61153f576040517f08c379a0000000000000000000000000000000000000000000000000000000008152600401611536906131ba565b60405180910390fd5b809350889250505b5f600754611553610b83565b8561155e9190612ce2565b6115689190612d83565b90505f600854611576610b83565b856115819190612ce2565b61158b9190612d83565b905080821061159a578061159c565b815b95505050505b5f83116115e4576040517f08c379a00000000000000000000000000000000000000000000000000000000081526004016115db90613222565b60405180910390fd5b7f000000000000000000000000000000000000000000000000000000000000000073ffffffffffffffffffffffffffffffffffffffff166323b872dd3330856040518463ffffffff1660e01b815260040161164193929190612ee0565b6020604051808303815f875af115801561165d573d5f5f3e3d5ffd5b505050506040513d601f19601f820116820180604052508101906116819190612f3f565b507f000000000000000000000000000000000000000000000000000000000000000073ffffffffffffffffffffffffffffffffffffffff166323b872dd3330846040518463ffffffff1660e01b81526004016116df93929190612ee0565b6020604051808303815f875af11580156116fb573d5f5f3e3d5ffd5b505050506040513d601f19601f8201168201806040525081019061171f9190612f3f565b5061172a84846121b2565b3373ffffffffffffffffffffffffffffffffffffffff167fbeb3885786d637a474cbc287c0a44587231633a077f0bd30354d5a4b18996fce838386604051611774939291906127d7565b60405180910390a250507f000000000000000000000000000000000000000000000000000000000000000073ffffffffffffffffffffffffffffffffffffffff166370a08231306040518263ffffffff1660e01b81526004016117d79190612a59565b602060405180830381865afa1580156117f2573d5f5f3e3d5ffd5b505050506040513d601f19601f820116820180604052508101906118169190612fa5565b6007819055507f000000000000000000000000000000000000000000000000000000000000000073ffffffffffffffffffffffffffffffffffffffff166370a08231306040518263ffffffff1660e01b81526004016118759190612a59565b602060405180830381865afa158015611890573d5f5f3e3d5ffd5b505050506040513d601f19601f820116820180604052508101906118b49190612fa5565b600881905550426009819055506118c9611e6a565b95945050505050565b5f5f6118dc611e24565b5f861161191e576040517f08c379a00000000000000000000000000000000000000000000000000000000081526004016119159061328a565b60405180910390fd5b5f73ffffffffffffffffffffffffffffffffffffffff168373ffffffffffffffffffffffffffffffffffffffff160361198c576040517f08c379a000000000000000000000000000000000000000000000000000000000815260040161198390612e5a565b60405180910390fd5b8561199633610bf1565b10156119d7576040517f08c379a00000000000000000000000000000000000000000000000000000000081526004016119ce906132f2565b60405180910390fd5b5f6119e0610b83565b905080600754886119f19190612ce2565b6119fb9190612d83565b92508060085488611a0c9190612ce2565b611a169190612d83565b915085831015611a5b576040517f08c379a0000000000000000000000000000000000000000000000000000000008152600401611a52906131ba565b60405180910390fd5b84821015611a9e576040517f08c379a0000000000000000000000000000000000000000000000000000000008152600401611a9590613152565b60405180910390fd5b611aa83388612231565b7f000000000000000000000000000000000000000000000000000000000000000073ffffffffffffffffffffffffffffffffffffffff1663a9059cbb85856040518363ffffffff1660e01b8152600401611b03929190612f6a565b6020604051808303815f875af1158015611b1f573d5f5f3e3d5ffd5b505050506040513d601f19601f82011682018060405250810190611b439190612f3f565b507f000000000000000000000000000000000000000000000000000000000000000073ffffffffffffffffffffffffffffffffffffffff1663a9059cbb85846040518363ffffffff1660e01b8152600401611b9f929190612f6a565b6020604051808303815f875af1158015611bbb573d5f5f3e3d5ffd5b505050506040513d601f19601f82011682018060405250810190611bdf9190612f3f565b503373ffffffffffffffffffffffffffffffffffffffff167f59c3a0b60c6ab7deb62e1440c9e72441db6db7dfe514dba8cb18e60c0d896efa84848a604051611c2a939291906127d7565b60405180910390a2507f000000000000000000000000000000000000000000000000000000000000000073ffffffffffffffffffffffffffffffffffffffff166370a08231306040518263ffffffff1660e01b8152600401611c8c9190612a59565b602060405180830381865afa158015611ca7573d5f5f3e3d5ffd5b505050506040513d601f19601f82011682018060405250810190611ccb9190612fa5565b6007819055507f000000000000000000000000000000000000000000000000000000000000000073ffffffffffffffffffffffffffffffffffffffff166370a08231306040518263ffffffff1660e01b8152600401611d2a9190612a59565b602060405180830381865afa158015611d45573d5f5f3e3d5ffd5b505050506040513d601f19601f82011682018060405250810190611d699190612fa5565b60088190555042600981905550611d7e611e6a565b94509492505050565b611d8f611ff7565b5f73ffffffffffffffffffffffffffffffffffffffff168173ffffffffffffffffffffffffffffffffffffffff1603611dff575f6040517f1e4fbdf7000000000000000000000000000000000000000000000000000000008152600401611df69190612a59565b60405180910390fd5b611e088161207e565b50565b5f33905090565b611e1f83838360016122b0565b505050565b600260055403611e60576040517f3ee5aeb500000000000000000000000000000000000000000000000000000000815260040160405180910390fd5b6002600581905550565b6001600581905550565b5f611e7f84846112c5565b90507fffffffffffffffffffffffffffffffffffffffffffffffffffffffffffffffff811015611f015781811015611ef2578281836040517ffb8f41b2000000000000000000000000000000000000000000000000000000008152600401611ee993929190613310565b60405180910390fd5b611f0084848484035f6122b0565b5b50505050565b5f73ffffffffffffffffffffffffffffffffffffffff168373ffffffffffffffffffffffffffffffffffffffff1603611f77575f6040517f96c6fd1e000000000000000000000000000000000000000000000000000000008152600401611f6e9190612a59565b60405180910390fd5b5f73ffffffffffffffffffffffffffffffffffffffff168273ffffffffffffffffffffffffffffffffffffffff1603611fe7575f6040517fec442f05000000000000000000000000000000000000000000000000000000008152600401611fde9190612a59565b60405180910390fd5b611ff283838361247f565b505050565b611fff611e0b565b73ffffffffffffffffffffffffffffffffffffffff1661201d610d82565b73ffffffffffffffffffffffffffffffffffffffff161461207c57612040611e0b565b6040517f118cdaa70000000000000000000000000000000000000000000000000000000081526004016120739190612a59565b60405180910390fd5b565b5f60065f9054906101000a900473ffffffffffffffffffffffffffffffffffffffff1690508160065f6101000a81548173ffffffffffffffffffffffffffffffffffffffff021916908373ffffffffffffffffffffffffffffffffffffffff1602179055508173ffffffffffffffffffffffffffffffffffffffff168173ffffffffffffffffffffffffffffffffffffffff167f8be0079c531659141344cd1fd0a4f28419497f9722a3daafe3b4186f6b6457e060405160405180910390a35050565b5f5f8203612151575f90506121ad565b5f60026001846121619190612d23565b61216b9190612d83565b90505f8390505b808210156121a757819050600282838661218c9190612d83565b6121969190612d23565b6121a09190612d83565b9150612172565b80925050505b919050565b5f73ffffffffffffffffffffffffffffffffffffffff168273ffffffffffffffffffffffffffffffffffffffff1603612222575f6040517fec442f050000000000000000000000000000000000000000000000000000000081526004016122199190612a59565b60405180910390fd5b61222d5f838361247f565b5050565b5f73ffffffffffffffffffffffffffffffffffffffff168273ffffffffffffffffffffffffffffffffffffffff16036122a1575f6040517f96c6fd1e0000000000000000000000000000000000000000000000000000000081526004016122989190612a59565b60405180910390fd5b6122ac825f8361247f565b5050565b5f73ffffffffffffffffffffffffffffffffffffffff168473ffffffffffffffffffffffffffffffffffffffff1603612320575f6040517fe602df050000000000000000000000000000000000000000000000000000000081526004016123179190612a59565b60405180910390fd5b5f73ffffffffffffffffffffffffffffffffffffffff168373ffffffffffffffffffffffffffffffffffffffff1603612390575f6040517f94280d620000000000000000000000000000000000000000000000000000000081526004016123879190612a59565b60405180910390fd5b8160015f8673ffffffffffffffffffffffffffffffffffffffff1673ffffffffffffffffffffffffffffffffffffffff1681526020019081526020015f205f8573ffffffffffffffffffffffffffffffffffffffff1673ffffffffffffffffffffffffffffffffffffffff1681526020019081526020015f20819055508015612479578273ffffffffffffffffffffffffffffffffffffffff168473ffffffffffffffffffffffffffffffffffffffff167f8c5be1e5ebec7d5bd14f71427d1e84f3dd0314c0f7b2291e5b200ac8c7c3b92584604051612470919061272e565b60405180910390a35b50505050565b5f73ffffffffffffffffffffffffffffffffffffffff168373ffffffffffffffffffffffffffffffffffffffff16036124cf578060025f8282546124c39190612d23565b9250508190555061259d565b5f5f5f8573ffffffffffffffffffffffffffffffffffffffff1673ffffffffffffffffffffffffffffffffffffffff1681526020019081526020015f2054905081811015612558578381836040517fe450d38c00000000000000000000000000000000000000000000000000000000815260040161254f93929190613310565b60405180910390fd5b8181035f5f8673ffffffffffffffffffffffffffffffffffffffff1673ffffffffffffffffffffffffffffffffffffffff1681526020019081526020015f2081905550505b5f73ffffffffffffffffffffffffffffffffffffffff168273ffffffffffffffffffffffffffffffffffffffff16036125e4578060025f828254039250508190555061262e565b805f5f8473ffffffffffffffffffffffffffffffffffffffff1673ffffffffffffffffffffffffffffffffffffffff1681526020019081526020015f205f82825401925050819055505b8173ffffffffffffffffffffffffffffffffffffffff168373ffffffffffffffffffffffffffffffffffffffff167fddf252ad1be2c89b69c2b068fc378daa952ba7f163c4a11628f55a4df523b3ef8360405161268b919061272e565b60405180910390a3505050565b5f5ffd5b5f819050919050565b6126ae8161269c565b81146126b8575f5ffd5b50565b5f813590506126c9816126a5565b92915050565b5f5f5f606084860312156126e6576126e5612698565b5b5f6126f3868287016126bb565b9350506020612704868287016126bb565b9250506040612715868287016126bb565b9150509250925092565b6127288161269c565b82525050565b5f6020820190506127415f83018461271f565b92915050565b5f81519050919050565b5f82825260208201905092915050565b8281835e5f83830152505050565b5f601f19601f8301169050919050565b5f61278982612747565b6127938185612751565b93506127a3818560208601612761565b6127ac8161276f565b840191505092915050565b5f6020820190508181035f8301526127cf818461277f565b905092915050565b5f6060820190506127ea5f83018661271f565b6127f7602083018561271f565b612804604083018461271f565b949350505050565b5f73ffffffffffffffffffffffffffffffffffffffff82169050919050565b5f6128358261280c565b9050919050565b6128458161282b565b811461284f575f5ffd5b50565b5f813590506128608161283c565b92915050565b5f5f6040838503121561287c5761287b612698565b5b5f61288985828601612852565b925050602061289a858286016126bb565b9150509250929050565b5f8115159050919050565b6128b8816128a4565b82525050565b5f6020820190506128d15f8301846128af565b92915050565b5f5f5f606084860312156128ee576128ed612698565b5b5f6128fb868287016126bb565b935050602061290c868287016126bb565b925050604061291d86828701612852565b9150509250925092565b5f819050919050565b5f61294a6129456129408461280c565b612927565b61280c565b9050919050565b5f61295b82612930565b9050919050565b5f61296c82612951565b9050919050565b61297c81612962565b82525050565b5f6020820190506129955f830184612973565b92915050565b5f5f5f606084860312156129b2576129b1612698565b5b5f6129bf86828701612852565b93505060206129d086828701612852565b92505060406129e1868287016126bb565b9150509250925092565b5f60ff82169050919050565b612a00816129eb565b82525050565b5f602082019050612a195f8301846129f7565b92915050565b5f60208284031215612a3457612a33612698565b5b5f612a4184828501612852565b91505092915050565b612a538161282b565b82525050565b5f602082019050612a6c5f830184612a4a565b92915050565b5f5f60408385031215612a8857612a87612698565b5b5f612a9585828601612852565b9250506020612aa685828601612852565b9150509250929050565b5f5f5f5f5f60a08688031215612ac957612ac8612698565b5b5f612ad6888289016126bb565b9550506020612ae7888289016126bb565b9450506040612af8888289016126bb565b9350506060612b09888289016126bb565b9250506080612b1a88828901612852565b9150509295509295909350565b5f5f5f5f60808587031215612b3f57612b3e612698565b5b5f612b4c878288016126bb565b9450506020612b5d878288016126bb565b9350506040612b6e878288016126bb565b9250506060612b7f87828801612852565b91505092959194509250565b5f604082019050612b9e5f83018561271f565b612bab602083018461271f565b9392505050565b7f416d6f756e7420696e206d75737420626520706f7369746976650000000000005f82015250565b5f612be6601a83612751565b9150612bf182612bb2565b602082019050919050565b5f6020820190508181035f830152612c1381612bda565b9050919050565b7f496e73756666696369656e74206c6971756964697479000000000000000000005f82015250565b5f612c4e601683612751565b9150612c5982612c1a565b602082019050919050565b5f6020820190508181035f830152612c7b81612c42565b9050919050565b7f4e487b71000000000000000000000000000000000000000000000000000000005f52601160045260245ffd5b5f612cb98261269c565b9150612cc48361269c565b9250828203905081811115612cdc57612cdb612c82565b5b92915050565b5f612cec8261269c565b9150612cf78361269c565b9250828202612d058161269c565b91508282048414831517612d1c57612d1b612c82565b5b5092915050565b5f612d2d8261269c565b9150612d388361269c565b9250828201905080821115612d5057612d4f612c82565b5b92915050565b7f4e487b71000000000000000000000000000000000000000000000000000000005f52601260045260245ffd5b5f612d8d8261269c565b9150612d988361269c565b925082612da857612da7612d56565b5b828204905092915050565b7f4e487b71000000000000000000000000000000000000000000000000000000005f52602260045260245ffd5b5f6002820490506001821680612df757607f821691505b602082108103612e0a57612e09612db3565b5b50919050565b7f526563697069656e742063616e6e6f74206265207a65726f20616464726573735f82015250565b5f612e44602083612751565b9150612e4f82612e10565b602082019050919050565b5f6020820190508181035f830152612e7181612e38565b9050919050565b7f496e73756666696369656e74206f757470757420616d6f756e740000000000005f82015250565b5f612eac601a83612751565b9150612eb782612e78565b602082019050919050565b5f6020820190508181035f830152612ed981612ea0565b9050919050565b5f606082019050612ef35f830186612a4a565b612f006020830185612a4a565b612f0d604083018461271f565b949350505050565b612f1e816128a4565b8114612f28575f5ffd5b50565b5f81519050612f3981612f15565b92915050565b5f60208284031215612f5457612f53612698565b5b5f612f6184828501612f2b565b91505092915050565b5f604082019050612f7d5f830185612a4a565b612f8a602083018461271f565b9392505050565b5f81519050612f9f816126a5565b92915050565b5f60208284031215612fba57612fb9612698565b5b5f612fc784828501612f91565b91505092915050565b7f416d6f756e74206f7574206d75737420626520706f73697469766500000000005f82015250565b5f613004601b83612751565b915061300f82612fd0565b602082019050919050565b5f6020820190508181035f83015261303181612ff8565b9050919050565b7f416d6f756e74206f7574206578636565647320726573657276650000000000005f82015250565b5f61306c601a83612751565b915061307782613038565b602082019050919050565b5f6020820190508181035f83015261309981613060565b9050919050565b7f416d6f756e7473206d75737420626520706f73697469766500000000000000005f82015250565b5f6130d4601883612751565b91506130df826130a0565b602082019050919050565b5f6020820190508181035f830152613101816130c8565b9050919050565b7f496e73756666696369656e74204220616d6f756e7400000000000000000000005f82015250565b5f61313c601583612751565b915061314782613108565b602082019050919050565b5f6020820190508181035f83015261316981613130565b9050919050565b7f496e73756666696369656e74204120616d6f756e7400000000000000000000005f82015250565b5f6131a4601583612751565b91506131af82613170565b602082019050919050565b5f6020820190508181035f8301526131d181613198565b9050919050565b7f4c697175696469747920616d6f756e7420746f6f20736d616c6c0000000000005f82015250565b5f61320c601a83612751565b9150613217826131d8565b602082019050919050565b5f6020820190508181035f83015261323981613200565b9050919050565b7f4c6971756964697479206d75737420626520706f7369746976650000000000005f82015250565b5f613274601a83612751565b915061327f82613240565b602082019050919050565b5f6020820190508181035f8301526132a181613268565b9050919050565b7f496e73756666696369656e74206c69717569646974792062616c616e636500005f82015250565b5f6132dc601e83612751565b91506132e7826132a8565b602082019050919050565b5f6020820190508181035f830152613309816132d0565b9050919050565b5f6060820190506133235f830186612a4a565b613330602083018561271f565b61333d604083018461271f565b94935050505056fea26469706673582212204a77999fbbb58c64b8d9735eaec146893d0bb5d4fa4d5f1b04d8a65546a730ac64736f6c634300081e0033","linkReferences":{}},"methodIdentifiers":{"FEE_DENOMINATOR()":"d73792a9","FEE_RATE()":"2d11c58a","addLiquidity(uint256,uint256,uint256,uint256,address)":"e0ab0772","allowance(address,address)":"dd62ed3e","approve(address,uint256)":"095ea7b3","balanceOf(address)":"70a08231","decimals()":"313ce567","getAmountIn(uint256,uint256,uint256)":"85f8c259","getAmountOut(uint256,uint256,uint256)":"054d50d4","getReserves()":"0902f1ac","lastUpdated()":"d0b06f5d","name()":"06fdde03","owner()":"8da5cb5b","removeLiquidity(uint256,uint256,uint256,address)":"e39b0eb5","renounceOwnership()":"715018a6","reserveA()":"dc5fa6c5","reserveB()":"19e36f3b","swapAForB(uint256,uint256,address)":"0e58123f","swapBForA(uint256,uint256,address)":"9a552bf2","symbol()":"95d89b41","tokenA()":"0fc63d10","tokenB()":"5f64b55b","totalSupply()":"18160ddd","transfer(address,uint256)":"a9059cbb","transferFrom(address,address,uint256)":"23b872dd","transferOwnership(address)":"f2fde38b"},"id":48}