{"abi":[{"type":"constructor","inputs":[{"name":"teamWallet","type":"address","internalType":"address"},{"name":"communityWallet","type":"address","internalType":"address"},{"name":"ecosystemWallet","type":"address","internalType":"address"},{"name":"treasuryWallet","type":"address","internalType":"address"}],"stateMutability":"nonpayable"},{"type":"function","name":"CLOCK_MODE","inputs":[],"outputs":[{"name":"","type":"string","internalType":"string"}],"stateMutability":"pure"},{"type":"function","name":"COMMUNITY_ALLOCATION","inputs":[],"outputs":[{"name":"","type":"uint256","internalType":"uint256"}],"stateMutability":"view"},{"type":"function","name":"DOMAIN_SEPARATOR","inputs":[],"outputs":[{"name":"","type":"bytes32","internalType":"bytes32"}],"stateMutability":"view"},{"type":"function","name":"ECOSYSTEM_ALLOCATION","inputs":[],"outputs":[{"name":"","type":"uint256","internalType":"uint256"}],"stateMutability":"view"},{"type":"function","name":"TEAM_ALLOCATION","inputs":[],"outputs":[{"name":"","type":"uint256","internalType":"uint256"}],"stateMutability":"view"},{"type":"function","name":"TOTAL_SUPPLY","inputs":[],"outputs":[{"name":"","type":"uint256","internalType":"uint256"}],"stateMutability":"view"},{"type":"function","name":"TREASURY_ALLOCATION","inputs":[],"outputs":[{"name":"","type":"uint256","internalType":"uint256"}],"stateMutability":"view"},{"type":"function","name":"allowance","inputs":[{"name":"owner","type":"address","internalType":"address"},{"name":"spender","type":"address","internalType":"address"}],"outputs":[{"name":"","type":"uint256","internalType":"uint256"}],"stateMutability":"view"},{"type":"function","name":"approve","inputs":[{"name":"spender","type":"address","internalType":"address"},{"name":"value","type":"uint256","internalType":"uint256"}],"outputs":[{"name":"","type":"bool","internalType":"bool"}],"stateMutability":"nonpayable"},{"type":"function","name":"balanceOf","inputs":[{"name":"account","type":"address","internalType":"address"}],"outputs":[{"name":"","type":"uint256","internalType":"uint256"}],"stateMutability":"view"},{"type":"function","name":"checkpoints","inputs":[{"name":"account","type":"address","internalType":"address"},{"name":"pos","type":"uint32","internalType":"uint32"}],"outputs":[{"name":"","type":"tuple","internalType":"struct Checkpoints.Checkpoint208","components":[{"name":"_key","type":"uint48","internalType":"uint48"},{"name":"_value","type":"uint208","internalType":"uint208"}]}],"stateMutability":"view"},{"type":"function","name":"clock","inputs":[],"outputs":[{"name":"","type":"uint48","internalType":"uint48"}],"stateMutability":"view"},{"type":"function","name":"decimals","inputs":[],"outputs":[{"name":"","type":"uint8","internalType":"uint8"}],"stateMutability":"view"},{"type":"function","name":"delegate","inputs":[{"name":"delegatee","type":"address","internalType":"address"}],"outputs":[],"stateMutability":"nonpayable"},{"type":"function","name":"delegateBySig","inputs":[{"name":"delegatee","type":"address","internalType":"address"},{"name":"nonce","type":"uint256","internalType":"uint256"},{"name":"expiry","type":"uint256","internalType":"uint256"},{"name":"v","type":"uint8","internalType":"uint8"},{"name":"r","type":"bytes32","internalType":"bytes32"},{"name":"s","type":"bytes32","internalType":"bytes32"}],"outputs":[],"stateMutability":"nonpayable"},{"type":"function","name":"delegates","inputs":[{"name":"account","type":"address","internalType":"address"}],"outputs":[{"name":"","type":"address","internalType":"address"}],"stateMutability":"view"},{"type":"function","name":"eip712Domain","inputs":[],"outputs":[{"name":"fields","type":"bytes1","internalType":"bytes1"},{"name":"name","type":"string","internalType":"string"},{"name":"version","type":"string","internalType":"string"},{"name":"chainId","type":"uint256","internalType":"uint256"},{"name":"verifyingContract","type":"address","internalType":"address"},{"name":"salt","type":"bytes32","internalType":"bytes32"},{"name":"extensions","type":"uint256[]","internalType":"uint256[]"}],"stateMutability":"view"},{"type":"function","name":"getPastTotalSupply","inputs":[{"name":"timepoint","type":"uint256","internalType":"uint256"}],"outputs":[{"name":"","type":"uint256","internalType":"uint256"}],"stateMutability":"view"},{"type":"function","name":"getPastVotes","inputs":[{"name":"account","type":"address","internalType":"address"},{"name":"timepoint","type":"uint256","internalType":"uint256"}],"outputs":[{"name":"","type":"uint256","internalType":"uint256"}],"stateMutability":"view"},{"type":"function","name":"getVotes","inputs":[{"name":"account","type":"address","internalType":"address"}],"outputs":[{"name":"","type":"uint256","internalType":"uint256"}],"stateMutability":"view"},{"type":"function","name":"name","inputs":[],"outputs":[{"name":"","type":"string","internalType":"string"}],"stateMutability":"view"},{"type":"function","name":"nonces","inputs":[{"name":"owner","type":"address","internalType":"address"}],"outputs":[{"name":"","type":"uint256","internalType":"uint256"}],"stateMutability":"view"},{"type":"function","name":"numCheckpoints","inputs":[{"name":"account","type":"address","internalType":"address"}],"outputs":[{"name":"","type":"uint32","internalType":"uint32"}],"stateMutability":"view"},{"type":"function","name":"owner","inputs":[],"outputs":[{"name":"","type":"address","internalType":"address"}],"stateMutability":"view"},{"type":"function","name":"permit","inputs":[{"name":"owner","type":"address","internalType":"address"},{"name":"spender","type":"address","internalType":"address"},{"name":"value","type":"uint256","internalType":"uint256"},{"name":"deadline","type":"uint256","internalType":"uint256"},{"name":"v","type":"uint8","internalType":"uint8"},{"name":"r","type":"bytes32","internalType":"bytes32"},{"name":"s","type":"bytes32","internalType":"bytes32"}],"outputs":[],"stateMutability":"nonpayable"},{"type":"function","name":"renounceOwnership","inputs":[],"outputs":[],"stateMutability":"nonpayable"},{"type":"function","name":"symbol","inputs":[],"outputs":[{"name":"","type":"string","internalType":"string"}],"stateMutability":"view"},{"type":"function","name":"totalSupply","inputs":[],"outputs":[{"name":"","type":"uint256","internalType":"uint256"}],"stateMutability":"view"},{"type":"function","name":"transfer","inputs":[{"name":"to","type":"address","internalType":"address"},{"name":"value","type":"uint256","internalType":"uint256"}],"outputs":[{"name":"","type":"bool","internalType":"bool"}],"stateMutability":"nonpayable"},{"type":"function","name":"transferFrom","inputs":[{"name":"from","type":"address","internalType":"address"},{"name":"to","type":"address","internalType":"address"},{"name":"value","type":"uint256","internalType":"uint256"}],"outputs":[{"name":"","type":"bool","internalType":"bool"}],"stateMutability":"nonpayable"},{"type":"function","name":"transferOwnership","inputs":[{"name":"newOwner","type":"address","internalType":"address"}],"outputs":[],"stateMutability":"nonpayable"},{"type":"event","name":"Approval","inputs":[{"name":"owner","type":"address","indexed":true,"internalType":"address"},{"name":"spender","type":"address","indexed":true,"internalType":"address"},{"name":"value","type":"uint256","indexed":false,"internalType":"uint256"}],"anonymous":false},{"type":"event","name":"DelegateChanged","inputs":[{"name":"delegator","type":"address","indexed":true,"internalType":"address"},{"name":"fromDelegate","type":"address","indexed":true,"internalType":"address"},{"name":"toDelegate","type":"address","indexed":true,"internalType":"address"}],"anonymous":false},{"type":"event","name":"DelegateVotesChanged","inputs":[{"name":"delegate","type":"address","indexed":true,"internalType":"address"},{"name":"previousVotes","type":"uint256","indexed":false,"internalType":"uint256"},{"name":"newVotes","type":"uint256","indexed":false,"internalType":"uint256"}],"anonymous":false},{"type":"event","name":"EIP712DomainChanged","inputs":[],"anonymous":false},{"type":"event","name":"OwnershipTransferred","inputs":[{"name":"previousOwner","type":"address","indexed":true,"internalType":"address"},{"name":"newOwner","type":"address","indexed":true,"internalType":"address"}],"anonymous":false},{"type":"event","name":"Transfer","inputs":[{"name":"from","type":"address","indexed":true,"internalType":"address"},{"name":"to","type":"address","indexed":true,"internalType":"address"},{"name":"value","type":"uint256","indexed":false,"internalType":"uint256"}],"anonymous":false},{"type":"error","name":"CheckpointUnorderedInsertion","inputs":[]},{"type":"error","name":"ECDSAInvalidSignature","inputs":[]},{"type":"error","name":"ECDSAInvalidSignatureLength","inputs":[{"name":"length","type":"uint256","internalType":"uint256"}]},{"type":"error","name":"ECDSAInvalidSignatureS","inputs":[{"name":"s","type":"bytes32","internalType":"bytes32"}]},{"type":"error","name":"ERC20ExceededSafeSupply","inputs":[{"name":"increasedSupply","type":"uint256","internalType":"uint256"},{"name":"cap","type":"uint256","internalType":"uint256"}]},{"type":"error","name":"ERC20InsufficientAllowance","inputs":[{"name":"spender","type":"address","internalType":"address"},{"name":"allowance","type":"uint256","internalType":"uint256"},{"name":"needed","type":"uint256","internalType":"uint256"}]},{"type":"error","name":"ERC20InsufficientBalance","inputs":[{"name":"sender","type":"address","internalType":"address"},{"name":"balance","type":"uint256","internalType":"uint256"},{"name":"needed","type":"uint256","internalType":"uint256"}]},{"type":"error","name":"ERC20InvalidApprover","inputs":[{"name":"approver","type":"address","internalType":"address"}]},{"type":"error","name":"ERC20InvalidReceiver","inputs":[{"name":"receiver","type":"address","internalType":"address"}]},{"type":"error","name":"ERC20InvalidSender","inputs":[{"name":"sender","type":"address","internalType":"address"}]},{"type":"error","name":"ERC20InvalidSpender","inputs":[{"name":"spender","type":"address","internalType":"address"}]},{"type":"error","name":"ERC2612ExpiredSignature","inputs":[{"name":"deadline","type":"uint256","internalType":"uint256"}]},{"type":"error","name":"ERC2612InvalidSigner","inputs":[{"name":"signer","type":"address","internalType":"address"},{"name":"owner","type":"address","internalType":"address"}]},{"type":"error","name":"ERC5805FutureLookup","inputs":[{"name":"timepoint","type":"uint256","internalType":"uint256"},{"name":"clock","type":"uint48","internalType":"uint48"}]},{"type":"error","name":"ERC6372InconsistentClock","inputs":[]},{"type":"error","name":"InvalidAccountNonce","inputs":[{"name":"account","type":"address","internalType":"address"},{"name":"currentNonce","type":"uint256","internalType":"uint256"}]},{"type":"error","name":"InvalidShortString","inputs":[]},{"type":"error","name":"OwnableInvalidOwner","inputs":[{"name":"owner","type":"address","internalType":"address"}]},{"type":"error","name":"OwnableUnauthorizedAccount","inputs":[{"name":"account","type":"address","internalType":"address"}]},{"type":"error","name":"SafeCastOverflowedUintDowncast","inputs":[{"name":"bits","type":"uint8","internalType":"uint8"},{"name":"value","type":"uint256","internalType":"uint256"}]},{"type":"error","name":"StringTooLong","inputs":[{"name":"str","type":"string","internalType":"string"}]},{"type":"error","name":"VotesExpiredSignature","inputs":[{"name":"expiry","type":"uint256","internalType":"uint256"}]}],"bytecode":{"object":"0x610160604052348015610010575f5ffd5b50604051615604380380615604833981810160405281019061003291906112c9565b336040518060400160405280601981526020017f44654669205175616e7420506c6174666f726d20546f6b656e00000000000000815250806040518060400160405280600181526020017f31000000000000000000000000000000000000000000000000000000000000008152506040518060400160405280601981526020017f44654669205175616e7420506c6174666f726d20546f6b656e000000000000008152506040518060400160405280600381526020017f4451500000000000000000000000000000000000000000000000000000000000815250816003908161011b919061156a565b50806004908161012b919061156a565b50505061014260058361048760201b90919060201c565b610120818152505061015e60068261048760201b90919060201c565b6101408181525050818051906020012060e08181525050808051906020012061010081815250504660a0818152505061019b6104d460201b60201c565b608081815250503073ffffffffffffffffffffffffffffffffffffffff1660c08173ffffffffffffffffffffffffffffffffffffffff16815250505050505f73ffffffffffffffffffffffffffffffffffffffff168173ffffffffffffffffffffffffffffffffffffffff1603610249575f6040517f1e4fbdf70000000000000000000000000000000000000000000000000000000081526004016102409190611648565b60405180910390fd5b6102588161052e60201b60201c565b505f73ffffffffffffffffffffffffffffffffffffffff168473ffffffffffffffffffffffffffffffffffffffff16036102c7576040517f08c379a00000000000000000000000000000000000000000000000000000000081526004016102be906116e1565b60405180910390fd5b5f73ffffffffffffffffffffffffffffffffffffffff168373ffffffffffffffffffffffffffffffffffffffff1603610335576040517f08c379a000000000000000000000000000000000000000000000000000000000815260040161032c9061176f565b60405180910390fd5b5f73ffffffffffffffffffffffffffffffffffffffff168273ffffffffffffffffffffffffffffffffffffffff16036103a3576040517f08c379a000000000000000000000000000000000000000000000000000000000815260040161039a906117fd565b60405180910390fd5b5f73ffffffffffffffffffffffffffffffffffffffff168173ffffffffffffffffffffffffffffffffffffffff1603610411576040517f08c379a00000000000000000000000000000000000000000000000000000000081526004016104089061188b565b60405180910390fd5b61042c846aa56fa5b99019a5c80000006105f160201b60201c565b610448836b014adf4b7320334b900000006105f160201b60201c565b610463826af8277896582678ac0000006105f160201b60201c565b61047e816a52b7d2dcc80cd2e40000006105f160201b60201c565b50505050611c5d565b5f6020835110156104a8576104a18361067660201b60201c565b90506104ce565b826104b8836106db60201b60201c565b5f0190816104c6919061156a565b5060ff5f1b90505b92915050565b5f7f8b73c3c69bb8fe3d512ecc4cf759cc79239f7b179b0ffacaa9a75d522b39400f60e0516101005146306040516020016105139594939291906118d0565b60405160208183030381529060405280519060200120905090565b5f600b5f9054906101000a900473ffffffffffffffffffffffffffffffffffffffff16905081600b5f6101000a81548173ffffffffffffffffffffffffffffffffffffffff021916908373ffffffffffffffffffffffffffffffffffffffff1602179055508173ffffffffffffffffffffffffffffffffffffffff168173ffffffffffffffffffffffffffffffffffffffff167f8be0079c531659141344cd1fd0a4f28419497f9722a3daafe3b4186f6b6457e060405160405180910390a35050565b5f73ffffffffffffffffffffffffffffffffffffffff168273ffffffffffffffffffffffffffffffffffffffff1603610661575f6040517fec442f050000000000000000000000000000000000000000000000000000000081526004016106589190611648565b60405180910390fd5b6106725f83836106e460201b60201c565b5050565b5f5f829050601f815111156106c257826040517f305a27a90000000000000000000000000000000000000000000000000000000081526004016106b99190611977565b60405180910390fd5b8051816106ce906119c4565b5f1c175f1b915050919050565b5f819050919050565b6106f58383836106fa60201b60201c565b505050565b61070b8383836107c060201b60201c565b5f73ffffffffffffffffffffffffffffffffffffffff168373ffffffffffffffffffffffffffffffffffffffff16036107aa575f61074d6109d960201b60201c565b90505f61075e6109e260201b60201c565b9050808211156107a75781816040517f1cb15d2600000000000000000000000000000000000000000000000000000000815260040161079e929190611a2a565b60405180910390fd5b50505b6107bb838383610a0560201b60201c565b505050565b5f73ffffffffffffffffffffffffffffffffffffffff168373ffffffffffffffffffffffffffffffffffffffff1603610810578060025f8282546108049190611a7e565b925050819055506108de565b5f5f5f8573ffffffffffffffffffffffffffffffffffffffff1673ffffffffffffffffffffffffffffffffffffffff1681526020019081526020015f2054905081811015610899578381836040517fe450d38c00000000000000000000000000000000000000000000000000000000815260040161089093929190611ab1565b60405180910390fd5b8181035f5f8673ffffffffffffffffffffffffffffffffffffffff1673ffffffffffffffffffffffffffffffffffffffff1681526020019081526020015f2081905550505b5f73ffffffffffffffffffffffffffffffffffffffff168273ffffffffffffffffffffffffffffffffffffffff1603610925578060025f828254039250508190555061096f565b805f5f8473ffffffffffffffffffffffffffffffffffffffff1673ffffffffffffffffffffffffffffffffffffffff1681526020019081526020015f205f82825401925050819055505b8173ffffffffffffffffffffffffffffffffffffffff168373ffffffffffffffffffffffffffffffffffffffff167fddf252ad1be2c89b69c2b068fc378daa952ba7f163c4a11628f55a4df523b3ef836040516109cc9190611ae6565b60405180910390a3505050565b5f600254905090565b5f79ffffffffffffffffffffffffffffffffffffffffffffffffffff8016905090565b5f73ffffffffffffffffffffffffffffffffffffffff168373ffffffffffffffffffffffffffffffffffffffff1603610a6457610a61600a610af560201b610ea117610a5684610b0a60201b60201c565b610b7760201b60201c565b50505b5f73ffffffffffffffffffffffffffffffffffffffff168273ffffffffffffffffffffffffffffffffffffffff1603610ac357610ac0600a610bbf60201b610eb617610ab584610b0a60201b60201c565b610b7760201b60201c565b50505b610af0610ad584610bd460201b60201c565b610ae484610bd460201b60201c565b83610c3960201b60201c565b505050565b5f8183610b029190611b24565b905092915050565b5f79ffffffffffffffffffffffffffffffffffffffffffffffffffff8016821115610b6f5760d0826040517f6dfcc650000000000000000000000000000000000000000000000000000000008152600401610b66929190611bb6565b60405180910390fd5b819050919050565b5f5f610bb3610b8a610ecf60201b60201c565b610ba3610b9c88610ed660201b60201c565b868860201c565b87610f3e60201b9092919060201c565b91509150935093915050565b5f8183610bcc9190611bdd565b905092915050565b5f60085f8373ffffffffffffffffffffffffffffffffffffffff1673ffffffffffffffffffffffffffffffffffffffff1681526020019081526020015f205f9054906101000a900473ffffffffffffffffffffffffffffffffffffffff169050919050565b8173ffffffffffffffffffffffffffffffffffffffff168373ffffffffffffffffffffffffffffffffffffffff1614158015610c7457505f81115b15610eca575f73ffffffffffffffffffffffffffffffffffffffff168373ffffffffffffffffffffffffffffffffffffffff1614610da1575f5f610d1260095f8773ffffffffffffffffffffffffffffffffffffffff1673ffffffffffffffffffffffffffffffffffffffff1681526020019081526020015f20610bbf60201b610eb617610d0786610b0a60201b60201c565b610b7760201b60201c565b79ffffffffffffffffffffffffffffffffffffffffffffffffffff16915079ffffffffffffffffffffffffffffffffffffffffffffffffffff1691508473ffffffffffffffffffffffffffffffffffffffff167fdec2bacdd2f05b59de34da9b523dff8be42e5e38e818c82fdb0bae774387a7248383604051610d96929190611a2a565b60405180910390a250505b5f73ffffffffffffffffffffffffffffffffffffffff168273ffffffffffffffffffffffffffffffffffffffff1614610ec9575f5f610e3a60095f8673ffffffffffffffffffffffffffffffffffffffff1673ffffffffffffffffffffffffffffffffffffffff1681526020019081526020015f20610af560201b610ea117610e2f86610b0a60201b60201c565b610b7760201b60201c565b79ffffffffffffffffffffffffffffffffffffffffffffffffffff16915079ffffffffffffffffffffffffffffffffffffffffffffffffffff1691508373ffffffffffffffffffffffffffffffffffffffff167fdec2bacdd2f05b59de34da9b523dff8be42e5e38e818c82fdb0bae774387a7248383604051610ebe929190611a2a565b60405180910390a250505b5b505050565b5f42905090565b5f5f825f018054905090505f8114610f3457610f06835f01600183610efb9190611c2a565b610f5f60201b60201c565b5f0160069054906101000a900479ffffffffffffffffffffffffffffffffffffffffffffffffffff16610f36565b5f5b915050919050565b5f5f610f53855f018585610f7160201b60201c565b91509150935093915050565b5f825f528160205f2001905092915050565b5f5f5f858054905090505f811115611183575f610fa087600184610f959190611c2a565b610f5f60201b60201c565b90505f815f015f9054906101000a900465ffffffffffff1690505f825f0160069054906101000a900479ffffffffffffffffffffffffffffffffffffffffffffffffffff1690508765ffffffffffff168265ffffffffffff161115611031576040517f2520601d00000000000000000000000000000000000000000000000000000000815260040160405180910390fd5b8765ffffffffffff168265ffffffffffff160361109b5786835f0160066101000a81548179ffffffffffffffffffffffffffffffffffffffffffffffffffff021916908379ffffffffffffffffffffffffffffffffffffffffffffffffffff160217905550611174565b8860405180604001604052808a65ffffffffffff1681526020018979ffffffffffffffffffffffffffffffffffffffffffffffffffff16815250908060018154018082558091505060019003905f5260205f20015f909190919091505f820151815f015f6101000a81548165ffffffffffff021916908365ffffffffffff1602179055506020820151815f0160066101000a81548179ffffffffffffffffffffffffffffffffffffffffffffffffffff021916908379ffffffffffffffffffffffffffffffffffffffffffffffffffff16021790555050505b80879550955050505050611263565b8560405180604001604052808765ffffffffffff1681526020018679ffffffffffffffffffffffffffffffffffffffffffffffffffff16815250908060018154018082558091505060019003905f5260205f20015f909190919091505f820151815f015f6101000a81548165ffffffffffff021916908365ffffffffffff1602179055506020820151815f0160066101000a81548179ffffffffffffffffffffffffffffffffffffffffffffffffffff021916908379ffffffffffffffffffffffffffffffffffffffffffffffffffff16021790555050505f8492509250505b935093915050565b5f5ffd5b5f73ffffffffffffffffffffffffffffffffffffffff82169050919050565b5f6112988261126f565b9050919050565b6112a88161128e565b81146112b2575f5ffd5b50565b5f815190506112c38161129f565b92915050565b5f5f5f5f608085870312156112e1576112e061126b565b5b5f6112ee878288016112b5565b94505060206112ff878288016112b5565b9350506040611310878288016112b5565b9250506060611321878288016112b5565b91505092959194509250565b5f81519050919050565b7f4e487b71000000000000000000000000000000000000000000000000000000005f52604160045260245ffd5b7f4e487b71000000000000000000000000000000000000000000000000000000005f52602260045260245ffd5b5f60028204905060018216806113a857607f821691505b6020821081036113bb576113ba611364565b5b50919050565b5f819050815f5260205f209050919050565b5f6020601f8301049050919050565b5f82821b905092915050565b5f6008830261141d7fffffffffffffffffffffffffffffffffffffffffffffffffffffffffffffffff826113e2565b61142786836113e2565b95508019841693508086168417925050509392505050565b5f819050919050565b5f819050919050565b5f61146b6114666114618461143f565b611448565b61143f565b9050919050565b5f819050919050565b61148483611451565b61149861149082611472565b8484546113ee565b825550505050565b5f5f905090565b6114af6114a0565b6114ba81848461147b565b505050565b5b818110156114dd576114d25f826114a7565b6001810190506114c0565b5050565b601f821115611522576114f3816113c1565b6114fc846113d3565b8101602085101561150b578190505b61151f611517856113d3565b8301826114bf565b50505b505050565b5f82821c905092915050565b5f6115425f1984600802611527565b1980831691505092915050565b5f61155a8383611533565b9150826002028217905092915050565b6115738261132d565b67ffffffffffffffff81111561158c5761158b611337565b5b6115968254611391565b6115a18282856114e1565b5f60209050601f8311600181146115d2575f84156115c0578287015190505b6115ca858261154f565b865550611631565b601f1984166115e0866113c1565b5f5b82811015611607578489015182556001820191506020850194506020810190506115e2565b868310156116245784890151611620601f891682611533565b8355505b6001600288020188555050505b505050505050565b6116428161128e565b82525050565b5f60208201905061165b5f830184611639565b92915050565b5f82825260208201905092915050565b7f5465616d2077616c6c65742063616e6e6f74206265207a65726f2061646472655f8201527f7373000000000000000000000000000000000000000000000000000000000000602082015250565b5f6116cb602283611661565b91506116d682611671565b604082019050919050565b5f6020820190508181035f8301526116f8816116bf565b9050919050565b7f436f6d6d756e6974792077616c6c65742063616e6e6f74206265207a65726f205f8201527f6164647265737300000000000000000000000000000000000000000000000000602082015250565b5f611759602783611661565b9150611764826116ff565b604082019050919050565b5f6020820190508181035f8301526117868161174d565b9050919050565b7f45636f73797374656d2077616c6c65742063616e6e6f74206265207a65726f205f8201527f6164647265737300000000000000000000000000000000000000000000000000602082015250565b5f6117e7602783611661565b91506117f28261178d565b604082019050919050565b5f6020820190508181035f830152611814816117db565b9050919050565b7f54726561737572792077616c6c65742063616e6e6f74206265207a65726f20615f8201527f6464726573730000000000000000000000000000000000000000000000000000602082015250565b5f611875602683611661565b91506118808261181b565b604082019050919050565b5f6020820190508181035f8301526118a281611869565b9050919050565b5f819050919050565b6118bb816118a9565b82525050565b6118ca8161143f565b82525050565b5f60a0820190506118e35f8301886118b2565b6118f060208301876118b2565b6118fd60408301866118b2565b61190a60608301856118c1565b6119176080830184611639565b9695505050505050565b8281835e5f83830152505050565b5f601f19601f8301169050919050565b5f6119498261132d565b6119538185611661565b9350611963818560208601611921565b61196c8161192f565b840191505092915050565b5f6020820190508181035f83015261198f818461193f565b905092915050565b5f81519050919050565b5f819050602082019050919050565b5f6119bb82516118a9565b80915050919050565b5f6119ce82611997565b826119d8846119a1565b90506119e3816119b0565b92506020821015611a2357611a1e7fffffffffffffffffffffffffffffffffffffffffffffffffffffffffffffffff836020036008026113e2565b831692505b5050919050565b5f604082019050611a3d5f8301856118c1565b611a4a60208301846118c1565b9392505050565b7f4e487b71000000000000000000000000000000000000000000000000000000005f52601160045260245ffd5b5f611a888261143f565b9150611a938361143f565b9250828201905080821115611aab57611aaa611a51565b5b92915050565b5f606082019050611ac45f830186611639565b611ad160208301856118c1565b611ade60408301846118c1565b949350505050565b5f602082019050611af95f8301846118c1565b92915050565b5f79ffffffffffffffffffffffffffffffffffffffffffffffffffff82169050919050565b5f611b2e82611aff565b9150611b3983611aff565b9250828201905079ffffffffffffffffffffffffffffffffffffffffffffffffffff811115611b6b57611b6a611a51565b5b92915050565b5f819050919050565b5f60ff82169050919050565b5f611ba0611b9b611b9684611b71565b611448565b611b7a565b9050919050565b611bb081611b86565b82525050565b5f604082019050611bc95f830185611ba7565b611bd660208301846118c1565b9392505050565b5f611be782611aff565b9150611bf283611aff565b9250828203905079ffffffffffffffffffffffffffffffffffffffffffffffffffff811115611c2457611c23611a51565b5b92915050565b5f611c348261143f565b9150611c3f8361143f565b9250828203905081811115611c5757611c56611a51565b5b92915050565b60805160a05160c05160e051610100516101205161014051613956611cae5f395f61157c01525f61154101525f61198401525f61196301525f61106a01525f6110c001525f6110e901526139565ff3fe608060405234801561000f575f5ffd5b50600436106101e3575f3560e01c80638da5cb5b1161010d578063a9059cbb116100a0578063dd62ed3e1161006f578063dd62ed3e146105b1578063f1127ed8146105e1578063f2fde38b14610611578063fd99cbed1461062d576101e3565b8063a9059cbb1461052b578063bf1ad7e01461055b578063c3cda52014610579578063d505accf14610595576101e3565b806391ddadf4116100dc57806391ddadf4146104a157806395d89b41146104bf578063993eb1c5146104dd5780639ab24eb0146104fb576101e3565b80638da5cb5b146104175780638e539e8c14610435578063902d55a51461046557806390534f2414610483576101e3565b80634bf5d7e91161018557806370a082311161015457806370a0823114610389578063715018a6146103b95780637ecebe00146103c357806384b0196e146103f3576101e3565b80634bf5d7e9146102ef578063587cde1e1461030d5780635c19a95c1461033d5780636fcfff4514610359576101e3565b806323b872dd116101c157806323b872dd14610253578063313ce567146102835780633644e515146102a15780633a46b1a8146102bf576101e3565b806306fdde03146101e7578063095ea7b31461020557806318160ddd14610235575b5f5ffd5b6101ef61064b565b6040516101fc9190612c79565b60405180910390f35b61021f600480360381019061021a9190612d2a565b6106db565b60405161022c9190612d82565b60405180910390f35b61023d6106fd565b60405161024a9190612daa565b60405180910390f35b61026d60048036038101906102689190612dc3565b610706565b60405161027a9190612d82565b60405180910390f35b61028b610734565b6040516102989190612e2e565b60405180910390f35b6102a961073c565b6040516102b69190612e5f565b60405180910390f35b6102d960048036038101906102d49190612d2a565b61074a565b6040516102e69190612daa565b60405180910390f35b6102f76107c6565b6040516103049190612c79565b60405180910390f35b61032760048036038101906103229190612e78565b610803565b6040516103349190612eb2565b60405180910390f35b61035760048036038101906103529190612e78565b610868565b005b610373600480360381019061036e9190612e78565b610881565b6040516103809190612ee9565b60405180910390f35b6103a3600480360381019061039e9190612e78565b610892565b6040516103b09190612daa565b60405180910390f35b6103c16108d7565b005b6103dd60048036038101906103d89190612e78565b6108ea565b6040516103ea9190612daa565b60405180910390f35b6103fb6108fb565b60405161040e9796959493929190612ff3565b60405180910390f35b61041f6109a0565b60405161042c9190612eb2565b60405180910390f35b61044f600480360381019061044a9190613075565b6109c8565b60405161045c9190612daa565b60405180910390f35b61046d610a08565b60405161047a9190612daa565b60405180910390f35b61048b610a18565b6040516104989190612daa565b60405180910390f35b6104a9610a27565b6040516104b691906130c0565b60405180910390f35b6104c7610a2e565b6040516104d49190612c79565b60405180910390f35b6104e5610abe565b6040516104f29190612daa565b60405180910390f35b61051560048036038101906105109190612e78565b610ace565b6040516105229190612daa565b60405180910390f35b61054560048036038101906105409190612d2a565b610b37565b6040516105529190612d82565b60405180910390f35b610563610b59565b6040516105709190612daa565b60405180910390f35b610593600480360381019061058e919061312d565b610b68565b005b6105af60048036038101906105aa91906131b6565b610c2d565b005b6105cb60048036038101906105c69190613253565b610d72565b6040516105d89190612daa565b60405180910390f35b6105fb60048036038101906105f691906132bb565b610df4565b6040516106089190613369565b60405180910390f35b61062b60048036038101906106269190612e78565b610e0e565b005b610635610e92565b6040516106429190612daa565b60405180910390f35b60606003805461065a906133af565b80601f0160208091040260200160405190810160405280929190818152602001828054610686906133af565b80156106d15780601f106106a8576101008083540402835291602001916106d1565b820191905f5260205f20905b8154815290600101906020018083116106b457829003601f168201915b5050505050905090565b5f5f6106e5610ecb565b90506106f2818585610ed2565b600191505092915050565b5f600254905090565b5f5f610710610ecb565b905061071d858285610ee4565b610728858585610f77565b60019150509392505050565b5f6012905090565b5f610745611067565b905090565b5f6107a26107578361111d565b60095f8673ffffffffffffffffffffffffffffffffffffffff1673ffffffffffffffffffffffffffffffffffffffff1681526020019081526020015f2061118890919063ffffffff16565b79ffffffffffffffffffffffffffffffffffffffffffffffffffff16905092915050565b60606040518060400160405280600e81526020017f6d6f64653d74696d657374616d70000000000000000000000000000000000000815250905090565b5f60085f8373ffffffffffffffffffffffffffffffffffffffff1673ffffffffffffffffffffffffffffffffffffffff1681526020019081526020015f205f9054906101000a900473ffffffffffffffffffffffffffffffffffffffff169050919050565b5f610871610ecb565b905061087d8183611278565b5050565b5f61088b82611388565b9050919050565b5f5f5f8373ffffffffffffffffffffffffffffffffffffffff1673ffffffffffffffffffffffffffffffffffffffff1681526020019081526020015f20549050919050565b6108df6113dd565b6108e85f611464565b565b5f6108f482611527565b9050919050565b5f6060805f5f5f606061090c611538565b610914611573565b46305f5f1b5f67ffffffffffffffff811115610933576109326133df565b5b6040519080825280602002602001820160405280156109615781602001602082028036833780820191505090505b507f0f00000000000000000000000000000000000000000000000000000000000000959493929190965096509650965096509650965090919293949596565b5f600b5f9054906101000a900473ffffffffffffffffffffffffffffffffffffffff16905090565b5f6109e56109d58361111d565b600a61118890919063ffffffff16565b79ffffffffffffffffffffffffffffffffffffffffffffffffffff169050919050565b6b033b2e3c9fd0803ce800000081565b6af8277896582678ac00000081565b5f42905090565b606060048054610a3d906133af565b80601f0160208091040260200160405190810160405280929190818152602001828054610a69906133af565b8015610ab45780601f10610a8b57610100808354040283529160200191610ab4565b820191905f5260205f20905b815481529060010190602001808311610a9757829003601f168201915b5050505050905090565b6b014adf4b7320334b9000000081565b5f610b1460095f8473ffffffffffffffffffffffffffffffffffffffff1673ffffffffffffffffffffffffffffffffffffffff1681526020019081526020015f206115ae565b79ffffffffffffffffffffffffffffffffffffffffffffffffffff169050919050565b5f5f610b41610ecb565b9050610b4e818585610f77565b600191505092915050565b6a52b7d2dcc80cd2e400000081565b83421115610bad57836040517f4683af0e000000000000000000000000000000000000000000000000000000008152600401610ba49190612daa565b60405180910390fd5b5f610c0e610c067fe48329057bfd03d55e49b547132e39cffd9c1820ad7b9d4c5307691425d15adf898989604051602001610beb949392919061340c565b60405160208183030381529060405280519060200120611610565b858585611629565b9050610c1a8187611657565b610c248188611278565b50505050505050565b83421115610c7257836040517f62791302000000000000000000000000000000000000000000000000000000008152600401610c699190612daa565b60405180910390fd5b5f7f6e71edae12b1b97f4d1f60370fef10105fa2faae0126114a169c64845d6126c9888888610ca08c6116ae565b89604051602001610cb69695949392919061344f565b6040516020818303038152906040528051906020012090505f610cd882611610565b90505f610ce782878787611629565b90508973ffffffffffffffffffffffffffffffffffffffff168173ffffffffffffffffffffffffffffffffffffffff1614610d5b57808a6040517f4b800e46000000000000000000000000000000000000000000000000000000008152600401610d529291906134ae565b60405180910390fd5b610d668a8a8a610ed2565b50505050505050505050565b5f60015f8473ffffffffffffffffffffffffffffffffffffffff1673ffffffffffffffffffffffffffffffffffffffff1681526020019081526020015f205f8373ffffffffffffffffffffffffffffffffffffffff1673ffffffffffffffffffffffffffffffffffffffff1681526020019081526020015f2054905092915050565b610dfc612bcd565b610e068383611701565b905092915050565b610e166113dd565b5f73ffffffffffffffffffffffffffffffffffffffff168173ffffffffffffffffffffffffffffffffffffffff1603610e86575f6040517f1e4fbdf7000000000000000000000000000000000000000000000000000000008152600401610e7d9190612eb2565b60405180910390fd5b610e8f81611464565b50565b6aa56fa5b99019a5c800000081565b5f8183610eae9190613502565b905092915050565b5f8183610ec3919061354f565b905092915050565b5f33905090565b610edf8383836001611760565b505050565b5f610eef8484610d72565b90507fffffffffffffffffffffffffffffffffffffffffffffffffffffffffffffffff811015610f715781811015610f62578281836040517ffb8f41b2000000000000000000000000000000000000000000000000000000008152600401610f599392919061359c565b60405180910390fd5b610f7084848484035f611760565b5b50505050565b5f73ffffffffffffffffffffffffffffffffffffffff168373ffffffffffffffffffffffffffffffffffffffff1603610fe7575f6040517f96c6fd1e000000000000000000000000000000000000000000000000000000008152600401610fde9190612eb2565b60405180910390fd5b5f73ffffffffffffffffffffffffffffffffffffffff168273ffffffffffffffffffffffffffffffffffffffff1603611057575f6040517fec442f0500000000000000000000000000000000000000000000000000000000815260040161104e9190612eb2565b60405180910390fd5b61106283838361192f565b505050565b5f7f000000000000000000000000000000000000000000000000000000000000000073ffffffffffffffffffffffffffffffffffffffff163073ffffffffffffffffffffffffffffffffffffffff161480156110e257507f000000000000000000000000000000000000000000000000000000000000000046145b1561110f577f0000000000000000000000000000000000000000000000000000000000000000905061111a565b61111761193f565b90505b90565b5f5f611127610a27565b90508065ffffffffffff1683106111775782816040517fecd3f81e00000000000000000000000000000000000000000000000000000000815260040161116e9291906135d1565b60405180910390fd5b611180836119d4565b915050919050565b5f5f835f018054905090505f5f90505f829050600583111561120c575f6111ae84611a2d565b846111b991906135f8565b90506111c7875f0182611bc7565b5f015f9054906101000a900465ffffffffffff1665ffffffffffff168665ffffffffffff1610156111fa5780915061120a565b600181611207919061362b565b92505b505b5f61121b875f01878585611bd9565b90505f811461126a5761123c875f0160018361123791906135f8565b611bc7565b5f0160069054906101000a900479ffffffffffffffffffffffffffffffffffffffffffffffffffff1661126c565b5f5b94505050505092915050565b5f61128283610803565b90508160085f8573ffffffffffffffffffffffffffffffffffffffff1673ffffffffffffffffffffffffffffffffffffffff1681526020019081526020015f205f6101000a81548173ffffffffffffffffffffffffffffffffffffffff021916908373ffffffffffffffffffffffffffffffffffffffff1602179055508173ffffffffffffffffffffffffffffffffffffffff168173ffffffffffffffffffffffffffffffffffffffff168473ffffffffffffffffffffffffffffffffffffffff167f3134e8a2e6d97e929a7e54011ea5485d7d196dd5f0ba4d4ef95803e8e3fc257f60405160405180910390a4611383818361137e86611c4e565b611c5f565b505050565b5f6113d66113d160095f8573ffffffffffffffffffffffffffffffffffffffff1673ffffffffffffffffffffffffffffffffffffffff1681526020019081526020015f20611ecf565b611ede565b9050919050565b6113e5610ecb565b73ffffffffffffffffffffffffffffffffffffffff166114036109a0565b73ffffffffffffffffffffffffffffffffffffffff161461146257611426610ecb565b6040517f118cdaa70000000000000000000000000000000000000000000000000000000081526004016114599190612eb2565b60405180910390fd5b565b5f600b5f9054906101000a900473ffffffffffffffffffffffffffffffffffffffff16905081600b5f6101000a81548173ffffffffffffffffffffffffffffffffffffffff021916908373ffffffffffffffffffffffffffffffffffffffff1602179055508173ffffffffffffffffffffffffffffffffffffffff168173ffffffffffffffffffffffffffffffffffffffff167f8be0079c531659141344cd1fd0a4f28419497f9722a3daafe3b4186f6b6457e060405160405180910390a35050565b5f61153182611f35565b9050919050565b606061156e60057f0000000000000000000000000000000000000000000000000000000000000000611f7b90919063ffffffff16565b905090565b60606115a960067f0000000000000000000000000000000000000000000000000000000000000000611f7b90919063ffffffff16565b905090565b5f5f825f018054905090505f8114611606576115d8835f016001836115d391906135f8565b611bc7565b5f0160069054906101000a900479ffffffffffffffffffffffffffffffffffffffffffffffffffff16611608565b5f5b915050919050565b5f61162261161c611067565b83612028565b9050919050565b5f5f5f5f61163988888888612068565b925092509250611649828261214f565b829350505050949350505050565b5f611661836116ae565b90508082146116a95782816040517f752d88c00000000000000000000000000000000000000000000000000000000081526004016116a092919061365e565b60405180910390fd5b505050565b5f60075f8373ffffffffffffffffffffffffffffffffffffffff1673ffffffffffffffffffffffffffffffffffffffff1681526020019081526020015f205f815480929190600101919050559050919050565b611709612bcd565b6117588260095f8673ffffffffffffffffffffffffffffffffffffffff1673ffffffffffffffffffffffffffffffffffffffff1681526020019081526020015f206122b190919063ffffffff16565b905092915050565b5f73ffffffffffffffffffffffffffffffffffffffff168473ffffffffffffffffffffffffffffffffffffffff16036117d0575f6040517fe602df050000000000000000000000000000000000000000000000000000000081526004016117c79190612eb2565b60405180910390fd5b5f73ffffffffffffffffffffffffffffffffffffffff168373ffffffffffffffffffffffffffffffffffffffff1603611840575f6040517f94280d620000000000000000000000000000000000000000000000000000000081526004016118379190612eb2565b60405180910390fd5b8160015f8673ffffffffffffffffffffffffffffffffffffffff1673ffffffffffffffffffffffffffffffffffffffff1681526020019081526020015f205f8573ffffffffffffffffffffffffffffffffffffffff1673ffffffffffffffffffffffffffffffffffffffff1681526020019081526020015f20819055508015611929578273ffffffffffffffffffffffffffffffffffffffff168473ffffffffffffffffffffffffffffffffffffffff167f8c5be1e5ebec7d5bd14f71427d1e84f3dd0314c0f7b2291e5b200ac8c7c3b925846040516119209190612daa565b60405180910390a35b50505050565b61193a838383612380565b505050565b5f7f8b73c3c69bb8fe3d512ecc4cf759cc79239f7b179b0ffacaa9a75d522b39400f7f00000000000000000000000000000000000000000000000000000000000000007f000000000000000000000000000000000000000000000000000000000000000046306040516020016119b9959493929190613685565b60405160208183030381529060405280519060200120905090565b5f65ffffffffffff8016821115611a25576030826040517f6dfcc650000000000000000000000000000000000000000000000000000000008152600401611a1c929190613718565b60405180910390fd5b819050919050565b5f60018211611a3e57819050611bc2565b5f8290505f600190507001000000000000000000000000000000008210611a6e57608082901c9150604081901b90505b680100000000000000008210611a8d57604082901c9150602081901b90505b6401000000008210611aa857602082901c9150601081901b90505b620100008210611ac157601082901c9150600881901b90505b6101008210611ad957600882901c9150600481901b90505b60108210611af057600482901c9150600281901b90505b60048210611b0057600181901b90505b600181600302901c90506001818581611b1c57611b1b61373f565b5b048201901c90506001818581611b3557611b3461373f565b5b048201901c90506001818581611b4e57611b4d61373f565b5b048201901c90506001818581611b6757611b6661373f565b5b048201901c90506001818581611b8057611b7f61373f565b5b048201901c90506001818581611b9957611b9861373f565b5b048201901c9050611bbb818581611bb357611bb261373f565b5b04821161242e565b8103925050505b919050565b5f825f528160205f2001905092915050565b5f5b81831015611c43575f611bee8484612439565b90508465ffffffffffff16611c038783611bc7565b5f015f9054906101000a900465ffffffffffff1665ffffffffffff161115611c2d57809250611c3d565b600181611c3a919061362b565b93505b50611bdb565b819050949350505050565b5f611c5882610892565b9050919050565b8173ffffffffffffffffffffffffffffffffffffffff168373ffffffffffffffffffffffffffffffffffffffff1614158015611c9a57505f81115b15611eca575f73ffffffffffffffffffffffffffffffffffffffff168373ffffffffffffffffffffffffffffffffffffffff1614611db4575f5f611d2560095f8773ffffffffffffffffffffffffffffffffffffffff1673ffffffffffffffffffffffffffffffffffffffff1681526020019081526020015f20610eb6611d208661245e565b6124cb565b79ffffffffffffffffffffffffffffffffffffffffffffffffffff16915079ffffffffffffffffffffffffffffffffffffffffffffffffffff1691508473ffffffffffffffffffffffffffffffffffffffff167fdec2bacdd2f05b59de34da9b523dff8be42e5e38e818c82fdb0bae774387a7248383604051611da992919061376c565b60405180910390a250505b5f73ffffffffffffffffffffffffffffffffffffffff168273ffffffffffffffffffffffffffffffffffffffff1614611ec9575f5f611e3a60095f8673ffffffffffffffffffffffffffffffffffffffff1673ffffffffffffffffffffffffffffffffffffffff1681526020019081526020015f20610ea1611e358661245e565b6124cb565b79ffffffffffffffffffffffffffffffffffffffffffffffffffff16915079ffffffffffffffffffffffffffffffffffffffffffffffffffff1691508373ffffffffffffffffffffffffffffffffffffffff167fdec2bacdd2f05b59de34da9b523dff8be42e5e38e818c82fdb0bae774387a7248383604051611ebe92919061376c565b60405180910390a250505b5b505050565b5f815f01805490509050919050565b5f63ffffffff8016821115611f2d576020826040517f6dfcc650000000000000000000000000000000000000000000000000000000008152600401611f249291906137cc565b60405180910390fd5b819050919050565b5f60075f8373ffffffffffffffffffffffffffffffffffffffff1673ffffffffffffffffffffffffffffffffffffffff1681526020019081526020015f20549050919050565b606060ff5f1b8314611f9757611f908361250a565b9050612022565b818054611fa3906133af565b80601f0160208091040260200160405190810160405280929190818152602001828054611fcf906133af565b801561201a5780601f10611ff15761010080835404028352916020019161201a565b820191905f5260205f20905b815481529060010190602001808311611ffd57829003601f168201915b505050505090505b92915050565b5f6040517f190100000000000000000000000000000000000000000000000000000000000081528360028201528260228201526042812091505092915050565b5f5f5f7f7fffffffffffffffffffffffffffffff5d576e7357a4501ddfe92f46681b20a0845f1c11156120a4575f600385925092509250612145565b5f6001888888886040515f81526020016040526040516120c794939291906137f3565b6020604051602081039080840390855afa1580156120e7573d5f5f3e3d5ffd5b5050506020604051035190505f73ffffffffffffffffffffffffffffffffffffffff168173ffffffffffffffffffffffffffffffffffffffff1603612138575f60015f5f1b93509350935050612145565b805f5f5f1b935093509350505b9450945094915050565b5f600381111561216257612161613836565b5b82600381111561217557612174613836565b5b03156122ad576001600381111561218f5761218e613836565b5b8260038111156121a2576121a1613836565b5b036121d9576040517ff645eedf00000000000000000000000000000000000000000000000000000000815260040160405180910390fd5b600260038111156121ed576121ec613836565b5b826003811115612200576121ff613836565b5b0361224457805f1c6040517ffce698f700000000000000000000000000000000000000000000000000000000815260040161223b9190612daa565b60405180910390fd5b60038081111561225757612256613836565b5b82600381111561226a57612269613836565b5b036122ac57806040517fd78bce0c0000000000000000000000000000000000000000000000000000000081526004016122a39190612e5f565b60405180910390fd5b5b5050565b6122b9612bcd565b825f018263ffffffff16815481106122d4576122d3613863565b5b905f5260205f20016040518060400160405290815f82015f9054906101000a900465ffffffffffff1665ffffffffffff1665ffffffffffff1681526020015f820160069054906101000a900479ffffffffffffffffffffffffffffffffffffffffffffffffffff1679ffffffffffffffffffffffffffffffffffffffffffffffffffff1679ffffffffffffffffffffffffffffffffffffffffffffffffffff1681525050905092915050565b61238b83838361257c565b5f73ffffffffffffffffffffffffffffffffffffffff168373ffffffffffffffffffffffffffffffffffffffff160361241e575f6123c76106fd565b90505f6123d2612795565b90508082111561241b5781816040517f1cb15d2600000000000000000000000000000000000000000000000000000000815260040161241292919061376c565b60405180910390fd5b50505b6124298383836127b8565b505050565b5f8115159050919050565b5f60028284186124499190613890565b828416612456919061362b565b905092915050565b5f79ffffffffffffffffffffffffffffffffffffffffffffffffffff80168211156124c35760d0826040517f6dfcc6500000000000000000000000000000000000000000000000000000000081526004016124ba9291906138f9565b60405180910390fd5b819050919050565b5f5f6124fe6124d8610a27565b6124ee6124e4886115ae565b868863ffffffff16565b876128709092919063ffffffff16565b91509150935093915050565b60605f6125168361288b565b90505f602067ffffffffffffffff811115612534576125336133df565b5b6040519080825280601f01601f1916602001820160405280156125665781602001600182028036833780820191505090505b5090508181528360208201528092505050919050565b5f73ffffffffffffffffffffffffffffffffffffffff168373ffffffffffffffffffffffffffffffffffffffff16036125cc578060025f8282546125c0919061362b565b9250508190555061269a565b5f5f5f8573ffffffffffffffffffffffffffffffffffffffff1673ffffffffffffffffffffffffffffffffffffffff1681526020019081526020015f2054905081811015612655578381836040517fe450d38c00000000000000000000000000000000000000000000000000000000815260040161264c9392919061359c565b60405180910390fd5b8181035f5f8673ffffffffffffffffffffffffffffffffffffffff1673ffffffffffffffffffffffffffffffffffffffff1681526020019081526020015f2081905550505b5f73ffffffffffffffffffffffffffffffffffffffff168273ffffffffffffffffffffffffffffffffffffffff16036126e1578060025f828254039250508190555061272b565b805f5f8473ffffffffffffffffffffffffffffffffffffffff1673ffffffffffffffffffffffffffffffffffffffff1681526020019081526020015f205f82825401925050819055505b8173ffffffffffffffffffffffffffffffffffffffff168373ffffffffffffffffffffffffffffffffffffffff167fddf252ad1be2c89b69c2b068fc378daa952ba7f163c4a11628f55a4df523b3ef836040516127889190612daa565b60405180910390a3505050565b5f79ffffffffffffffffffffffffffffffffffffffffffffffffffff8016905090565b5f73ffffffffffffffffffffffffffffffffffffffff168373ffffffffffffffffffffffffffffffffffffffff160361280457612801600a610ea16127fc8461245e565b6124cb565b50505b5f73ffffffffffffffffffffffffffffffffffffffff168273ffffffffffffffffffffffffffffffffffffffff16036128505761284d600a610eb66128488461245e565b6124cb565b50505b61286b61285c84610803565b61286584610803565b83611c5f565b505050565b5f5f61287f855f0185856128d9565b91509150935093915050565b5f5f60ff835f1c169050601f8111156128d0576040517fb3512b0c00000000000000000000000000000000000000000000000000000000815260040160405180910390fd5b80915050919050565b5f5f5f858054905090505f811115612ae5575f612902876001846128fd91906135f8565b611bc7565b90505f815f015f9054906101000a900465ffffffffffff1690505f825f0160069054906101000a900479ffffffffffffffffffffffffffffffffffffffffffffffffffff1690508765ffffffffffff168265ffffffffffff161115612993576040517f2520601d00000000000000000000000000000000000000000000000000000000815260040160405180910390fd5b8765ffffffffffff168265ffffffffffff16036129fd5786835f0160066101000a81548179ffffffffffffffffffffffffffffffffffffffffffffffffffff021916908379ffffffffffffffffffffffffffffffffffffffffffffffffffff160217905550612ad6565b8860405180604001604052808a65ffffffffffff1681526020018979ffffffffffffffffffffffffffffffffffffffffffffffffffff16815250908060018154018082558091505060019003905f5260205f20015f909190919091505f820151815f015f6101000a81548165ffffffffffff021916908365ffffffffffff1602179055506020820151815f0160066101000a81548179ffffffffffffffffffffffffffffffffffffffffffffffffffff021916908379ffffffffffffffffffffffffffffffffffffffffffffffffffff16021790555050505b80879550955050505050612bc5565b8560405180604001604052808765ffffffffffff1681526020018679ffffffffffffffffffffffffffffffffffffffffffffffffffff16815250908060018154018082558091505060019003905f5260205f20015f909190919091505f820151815f015f6101000a81548165ffffffffffff021916908365ffffffffffff1602179055506020820151815f0160066101000a81548179ffffffffffffffffffffffffffffffffffffffffffffffffffff021916908379ffffffffffffffffffffffffffffffffffffffffffffffffffff16021790555050505f8492509250505b935093915050565b60405180604001604052805f65ffffffffffff1681526020015f79ffffffffffffffffffffffffffffffffffffffffffffffffffff1681525090565b5f81519050919050565b5f82825260208201905092915050565b8281835e5f83830152505050565b5f601f19601f8301169050919050565b5f612c4b82612c09565b612c558185612c13565b9350612c65818560208601612c23565b612c6e81612c31565b840191505092915050565b5f6020820190508181035f830152612c918184612c41565b905092915050565b5f5ffd5b5f73ffffffffffffffffffffffffffffffffffffffff82169050919050565b5f612cc682612c9d565b9050919050565b612cd681612cbc565b8114612ce0575f5ffd5b50565b5f81359050612cf181612ccd565b92915050565b5f819050919050565b612d0981612cf7565b8114612d13575f5ffd5b50565b5f81359050612d2481612d00565b92915050565b5f5f60408385031215612d4057612d3f612c99565b5b5f612d4d85828601612ce3565b9250506020612d5e85828601612d16565b9150509250929050565b5f8115159050919050565b612d7c81612d68565b82525050565b5f602082019050612d955f830184612d73565b92915050565b612da481612cf7565b82525050565b5f602082019050612dbd5f830184612d9b565b92915050565b5f5f5f60608486031215612dda57612dd9612c99565b5b5f612de786828701612ce3565b9350506020612df886828701612ce3565b9250506040612e0986828701612d16565b9150509250925092565b5f60ff82169050919050565b612e2881612e13565b82525050565b5f602082019050612e415f830184612e1f565b92915050565b5f819050919050565b612e5981612e47565b82525050565b5f602082019050612e725f830184612e50565b92915050565b5f60208284031215612e8d57612e8c612c99565b5b5f612e9a84828501612ce3565b91505092915050565b612eac81612cbc565b82525050565b5f602082019050612ec55f830184612ea3565b92915050565b5f63ffffffff82169050919050565b612ee381612ecb565b82525050565b5f602082019050612efc5f830184612eda565b92915050565b5f7fff0000000000000000000000000000000000000000000000000000000000000082169050919050565b612f3681612f02565b82525050565b5f81519050919050565b5f82825260208201905092915050565b5f819050602082019050919050565b612f6e81612cf7565b82525050565b5f612f7f8383612f65565b60208301905092915050565b5f602082019050919050565b5f612fa182612f3c565b612fab8185612f46565b9350612fb683612f56565b805f5b83811015612fe6578151612fcd8882612f74565b9750612fd883612f8b565b925050600181019050612fb9565b5085935050505092915050565b5f60e0820190506130065f83018a612f2d565b81810360208301526130188189612c41565b9050818103604083015261302c8188612c41565b905061303b6060830187612d9b565b6130486080830186612ea3565b61305560a0830185612e50565b81810360c08301526130678184612f97565b905098975050505050505050565b5f6020828403121561308a57613089612c99565b5b5f61309784828501612d16565b91505092915050565b5f65ffffffffffff82169050919050565b6130ba816130a0565b82525050565b5f6020820190506130d35f8301846130b1565b92915050565b6130e281612e13565b81146130ec575f5ffd5b50565b5f813590506130fd816130d9565b92915050565b61310c81612e47565b8114613116575f5ffd5b50565b5f8135905061312781613103565b92915050565b5f5f5f5f5f5f60c0878903121561314757613146612c99565b5b5f61315489828a01612ce3565b965050602061316589828a01612d16565b955050604061317689828a01612d16565b945050606061318789828a016130ef565b935050608061319889828a01613119565b92505060a06131a989828a01613119565b9150509295509295509295565b5f5f5f5f5f5f5f60e0888a0312156131d1576131d0612c99565b5b5f6131de8a828b01612ce3565b97505060206131ef8a828b01612ce3565b96505060406132008a828b01612d16565b95505060606132118a828b01612d16565b94505060806132228a828b016130ef565b93505060a06132338a828b01613119565b92505060c06132448a828b01613119565b91505092959891949750929550565b5f5f6040838503121561326957613268612c99565b5b5f61327685828601612ce3565b925050602061328785828601612ce3565b9150509250929050565b61329a81612ecb565b81146132a4575f5ffd5b50565b5f813590506132b581613291565b92915050565b5f5f604083850312156132d1576132d0612c99565b5b5f6132de85828601612ce3565b92505060206132ef858286016132a7565b9150509250929050565b613302816130a0565b82525050565b5f79ffffffffffffffffffffffffffffffffffffffffffffffffffff82169050919050565b61333681613308565b82525050565b604082015f8201516133505f8501826132f9565b506020820151613363602085018261332d565b50505050565b5f60408201905061337c5f83018461333c565b92915050565b7f4e487b71000000000000000000000000000000000000000000000000000000005f52602260045260245ffd5b5f60028204905060018216806133c657607f821691505b6020821081036133d9576133d8613382565b5b50919050565b7f4e487b71000000000000000000000000000000000000000000000000000000005f52604160045260245ffd5b5f60808201905061341f5f830187612e50565b61342c6020830186612ea3565b6134396040830185612d9b565b6134466060830184612d9b565b95945050505050565b5f60c0820190506134625f830189612e50565b61346f6020830188612ea3565b61347c6040830187612ea3565b6134896060830186612d9b565b6134966080830185612d9b565b6134a360a0830184612d9b565b979650505050505050565b5f6040820190506134c15f830185612ea3565b6134ce6020830184612ea3565b9392505050565b7f4e487b71000000000000000000000000000000000000000000000000000000005f52601160045260245ffd5b5f61350c82613308565b915061351783613308565b9250828201905079ffffffffffffffffffffffffffffffffffffffffffffffffffff811115613549576135486134d5565b5b92915050565b5f61355982613308565b915061356483613308565b9250828203905079ffffffffffffffffffffffffffffffffffffffffffffffffffff811115613596576135956134d5565b5b92915050565b5f6060820190506135af5f830186612ea3565b6135bc6020830185612d9b565b6135c96040830184612d9b565b949350505050565b5f6040820190506135e45f830185612d9b565b6135f160208301846130b1565b9392505050565b5f61360282612cf7565b915061360d83612cf7565b9250828203905081811115613625576136246134d5565b5b92915050565b5f61363582612cf7565b915061364083612cf7565b9250828201905080821115613658576136576134d5565b5b92915050565b5f6040820190506136715f830185612ea3565b61367e6020830184612d9b565b9392505050565b5f60a0820190506136985f830188612e50565b6136a56020830187612e50565b6136b26040830186612e50565b6136bf6060830185612d9b565b6136cc6080830184612ea3565b9695505050505050565b5f819050919050565b5f819050919050565b5f6137026136fd6136f8846136d6565b6136df565b612e13565b9050919050565b613712816136e8565b82525050565b5f60408201905061372b5f830185613709565b6137386020830184612d9b565b9392505050565b7f4e487b71000000000000000000000000000000000000000000000000000000005f52601260045260245ffd5b5f60408201905061377f5f830185612d9b565b61378c6020830184612d9b565b9392505050565b5f819050919050565b5f6137b66137b16137ac84613793565b6136df565b612e13565b9050919050565b6137c68161379c565b82525050565b5f6040820190506137df5f8301856137bd565b6137ec6020830184612d9b565b9392505050565b5f6080820190506138065f830187612e50565b6138136020830186612e1f565b6138206040830185612e50565b61382d6060830184612e50565b95945050505050565b7f4e487b71000000000000000000000000000000000000000000000000000000005f52602160045260245ffd5b7f4e487b71000000000000000000000000000000000000000000000000000000005f52603260045260245ffd5b5f61389a82612cf7565b91506138a583612cf7565b9250826138b5576138b461373f565b5b828204905092915050565b5f819050919050565b5f6138e36138de6138d9846138c0565b6136df565b612e13565b9050919050565b6138f3816138c9565b82525050565b5f60408201905061390c5f8301856138ea565b6139196020830184612d9b565b939250505056fea2646970667358221220046fadd1bf6a9da0e3197a83d9d5e9291c0ae4274e1b7e59b145054802112eab64736f6c634300081e0033","linkReferences":{}},"methodIdentifiers":{"CLOCK_MODE()":"4bf5d7e9","COMMUNITY_ALLOCATION()":"993eb1c5","DOMAIN_SEPARATOR()":"3644e515","ECOSYSTEM_ALLOCATION()":"90534f24","TEAM_ALLOCATION()":"fd99cbed","TOTAL_SUPPLY()":"902d55a5","TREASURY_ALLOCATION()":"bf1ad7e0","allowance(address,address)":"dd62ed3e","approve(address,uint256)":"095ea7b3","balanceOf(address)":"70a08231","checkpoints(address,uint32)":"f1127ed8","clock()":"91ddadf4","decimals()":"313ce567","delegate(address)":"5c19a95c","delegateBySig(address,uint256,uint256,uint8,bytes32,bytes32)":"c3cda520","delegates(address)":"587cde1e","eip712Domain()":"84b0196e","getPastTotalSupply(uint256)":"8e539e8c","getPastVotes(address,uint256)":"3a46b1a8","getVotes(address)":"9ab24eb0","name()":"06fdde03","nonces(address)":"7ecebe00","numCheckpoints(address)":"6fcfff45","owner()":"8da5cb5b","permit(address,address,uint256,uint256,uint8,bytes32,bytes32)":"d505accf","renounceOwnership()":"715018a6","symbol()":"95d89b41","totalSupply()":"18160ddd","transfer(address,uint256)":"a9059cbb","transferFrom(address,address,uint256)":"23b872dd","transferOwnership(address)":"f2fde38b"},"id":27}