{"abi":[{"type":"constructor","inputs":[],"stateMutability":"nonpayable"},{"type":"function","name":"PRICE_PRECISION","inputs":[],"outputs":[{"name":"","type":"uint256","internalType":"uint256"}],"stateMutability":"view"},{"type":"function","name":"STALENESS_THRESHOLD","inputs":[],"outputs":[{"name":"","type":"uint256","internalType":"uint256"}],"stateMutability":"view"},{"type":"function","name":"addPriceFeed","inputs":[{"name":"pair","type":"string","internalType":"string"},{"name":"priceFeed","type":"address","internalType":"address"}],"outputs":[],"stateMutability":"nonpayable"},{"type":"function","name":"feedDecimals","inputs":[{"name":"","type":"string","internalType":"string"}],"outputs":[{"name":"","type":"uint8","internalType":"uint8"}],"stateMutability":"view"},{"type":"function","name":"getLatestPrice","inputs":[{"name":"pair","type":"string","internalType":"string"}],"outputs":[{"name":"","type":"int256","internalType":"int256"},{"name":"","type":"uint256","internalType":"uint256"}],"stateMutability":"view"},{"type":"function","name":"getLatestPriceWithDecimals","inputs":[{"name":"pair","type":"string","internalType":"string"}],"outputs":[{"name":"","type":"int256","internalType":"int256"},{"name":"","type":"uint8","internalType":"uint8"},{"name":"","type":"uint256","internalType":"uint256"}],"stateMutability":"view"},{"type":"function","name":"getNormalizedPrice","inputs":[{"name":"pair","type":"string","internalType":"string"}],"outputs":[{"name":"","type":"uint256","internalType":"uint256"}],"stateMutability":"view"},{"type":"function","name":"getSupportedPairs","inputs":[],"outputs":[{"name":"","type":"string[]","internalType":"string[]"}],"stateMutability":"view"},{"type":"function","name":"isPriceFeedActive","inputs":[{"name":"pair","type":"string","internalType":"string"}],"outputs":[{"name":"","type":"bool","internalType":"bool"}],"stateMutability":"view"},{"type":"function","name":"owner","inputs":[],"outputs":[{"name":"","type":"address","internalType":"address"}],"stateMutability":"view"},{"type":"function","name":"priceFeeds","inputs":[{"name":"","type":"string","internalType":"string"}],"outputs":[{"name":"","type":"address","internalType":"address"}],"stateMutability":"view"},{"type":"function","name":"removePriceFeed","inputs":[{"name":"pair","type":"string","internalType":"string"}],"outputs":[],"stateMutability":"nonpayable"},{"type":"function","name":"renounceOwnership","inputs":[],"outputs":[],"stateMutability":"nonpayable"},{"type":"function","name":"transferOwnership","inputs":[{"name":"newOwner","type":"address","internalType":"address"}],"outputs":[],"stateMutability":"nonpayable"},{"type":"event","name":"OwnershipTransferred","inputs":[{"name":"previousOwner","type":"address","indexed":true,"internalType":"address"},{"name":"newOwner","type":"address","indexed":true,"internalType":"address"}],"anonymous":false},{"type":"event","name":"PriceFeedAdded","inputs":[{"name":"pair","type":"string","indexed":true,"internalType":"string"},{"name":"priceFeed","type":"address","indexed":true,"internalType":"address"}],"anonymous":false},{"type":"event","name":"PriceFeedRemoved","inputs":[{"name":"pair","type":"string","indexed":true,"internalType":"string"}],"anonymous":false},{"type":"event","name":"PriceUpdate","inputs":[{"name":"pair","type":"string","indexed":true,"internalType":"string"},{"name":"price","type":"int256","indexed":false,"internalType":"int256"},{"name":"timestamp","type":"uint256","indexed":false,"internalType":"uint256"}],"anonymous":false},{"type":"error","name":"OwnableInvalidOwner","inputs":[{"name":"owner","type":"address","internalType":"address"}]},{"type":"error","name":"OwnableUnauthorizedAccount","inputs":[{"name":"account","type":"address","internalType":"address"}]}],"bytecode":{"object":"0x608060405234801561000f575f5ffd5b50335f73ffffffffffffffffffffffffffffffffffffffff168173ffffffffffffffffffffffffffffffffffffffff1603610081575f6040517f1e4fbdf70000000000000000000000000000000000000000000000000000000081526004016100789190610196565b60405180910390fd5b6100908161009660201b60201c565b506101af565b5f5f5f9054906101000a900473ffffffffffffffffffffffffffffffffffffffff169050815f5f6101000a81548173ffffffffffffffffffffffffffffffffffffffff021916908373ffffffffffffffffffffffffffffffffffffffff1602179055508173ffffffffffffffffffffffffffffffffffffffff168173ffffffffffffffffffffffffffffffffffffffff167f8be0079c531659141344cd1fd0a4f28419497f9722a3daafe3b4186f6b6457e060405160405180910390a35050565b5f73ffffffffffffffffffffffffffffffffffffffff82169050919050565b5f61018082610157565b9050919050565b61019081610176565b82525050565b5f6020820190506101a95f830184610187565b92915050565b611c2c806101bc5f395ff3fe608060405234801561000f575f5ffd5b50600436106100e8575f3560e01c8063cb8ae86c1161008a578063db904dfa11610064578063db904dfa1461024c578063ed917cee14610268578063f2fde38b14610298578063f66a1b71146102b4576100e8565b8063cb8ae86c146101cc578063d527c998146101fc578063d831281b1461021a576100e8565b8063715018a6116100c6578063715018a6146101685780637215b0bf146101725780638da5cb5b1461019057806395082d25146101ae576100e8565b80630dc16e1f146100ec578063597095ed146101085780635e38887d14610138575b5f5ffd5b61010660048036038101906101019190611055565b6102e5565b005b610122600480360381019061011d91906110af565b610503565b60405161012f9190611111565b60405180910390f35b610152600480360381019061014d91906110af565b610538565b60405161015f9190611144565b60405180910390f35b610170610642565b005b61017a610655565b6040516101879190611175565b60405180910390f35b61019861065b565b6040516101a5919061119d565b60405180910390f35b6101b6610682565b6040516101c39190611175565b60405180910390f35b6101e660048036038101906101e191906110af565b61068e565b6040516101f3919061119d565b60405180910390f35b6102046106d6565b60405161021191906112d1565b60405180910390f35b610234600480360381019061022f91906110af565b610730565b60405161024393929190611309565b60405180910390f35b610266600480360381019061026191906110af565b6107f1565b005b610282600480360381019061027d91906110af565b610956565b60405161028f9190611175565b60405180910390f35b6102b260048036038101906102ad919061133e565b610ac4565b005b6102ce60048036038101906102c991906110af565b610b48565b6040516102dc929190611369565b60405180910390f35b6102ed610d5f565b5f73ffffffffffffffffffffffffffffffffffffffff168173ffffffffffffffffffffffffffffffffffffffff160361035b576040517f08c379a000000000000000000000000000000000000000000000000000000000815260040161035290611410565b60405180910390fd5b5f82511161039e576040517f08c379a000000000000000000000000000000000000000000000000000000000815260040161039590611478565b60405180910390fd5b5f8190505f8173ffffffffffffffffffffffffffffffffffffffff1663313ce5676040518163ffffffff1660e01b8152600401602060405180830381865afa1580156103ec573d5f5f3e3d5ffd5b505050506040513d601f19601f8201168201806040525081019061041091906114c0565b9050826001856040516104239190611525565b90815260200160405180910390205f6101000a81548173ffffffffffffffffffffffffffffffffffffffff021916908373ffffffffffffffffffffffffffffffffffffffff1602179055508060028560405161047f9190611525565b90815260200160405180910390205f6101000a81548160ff021916908360ff1602179055508273ffffffffffffffffffffffffffffffffffffffff16846040516104c99190611525565b60405180910390207f1899bfed19bb5ad63c2bc7846fb4c1d443587802ecd6529054c82d3fd962cc1b60405160405180910390a350505050565b6002818051602081018201805184825260208301602085012081835280955050505050505f915054906101000a900460ff1681565b5f5f60018360405161054a9190611525565b90815260200160405180910390205f9054906101000a900473ffffffffffffffffffffffffffffffffffffffff1690505f73ffffffffffffffffffffffffffffffffffffffff168173ffffffffffffffffffffffffffffffffffffffff16036105b6575f91505061063d565b3073ffffffffffffffffffffffffffffffffffffffff1663f66a1b71846040518263ffffffff1660e01b81526004016105ef9190611573565b6040805180830381865afa92505050801561062857506040513d601f19601f8201168201806040525081019061062591906115e7565b60015b610635575f91505061063d565b600193505050505b919050565b61064a610d5f565b6106535f610de6565b565b612a3081565b5f5f5f9054906101000a900473ffffffffffffffffffffffffffffffffffffffff16905090565b670de0b6b3a764000081565b6001818051602081018201805184825260208301602085012081835280955050505050505f915054906101000a900473ffffffffffffffffffffffffffffffffffffffff1681565b60605f5f67ffffffffffffffff8111156106f3576106f2610ed7565b5b60405190808252806020026020018201604052801561072657816020015b60608152602001906001900390816107115790505b5090508091505090565b5f5f5f5f5f3073ffffffffffffffffffffffffffffffffffffffff1663f66a1b71876040518263ffffffff1660e01b815260040161076e9190611573565b6040805180830381865afa158015610788573d5f5f3e3d5ffd5b505050506040513d601f19601f820116820180604052508101906107ac91906115e7565b915091505f6002876040516107c19190611525565b90815260200160405180910390205f9054906101000a900460ff1690508281839550955095505050509193909250565b6107f9610d5f565b5f73ffffffffffffffffffffffffffffffffffffffff166001826040516108209190611525565b90815260200160405180910390205f9054906101000a900473ffffffffffffffffffffffffffffffffffffffff1673ffffffffffffffffffffffffffffffffffffffff16036108a4576040517f08c379a000000000000000000000000000000000000000000000000000000000815260040161089b9061166f565b60405180910390fd5b6001816040516108b49190611525565b90815260200160405180910390205f6101000a81549073ffffffffffffffffffffffffffffffffffffffff02191690556002816040516108f49190611525565b90815260200160405180910390205f6101000a81549060ff02191690558060405161091f9190611525565b60405180910390207ff27efeffd5a83606eaa2a17691ea9f88147503d71575a46289bfe36bacbbf51560405160405180910390a250565b5f5f5f3073ffffffffffffffffffffffffffffffffffffffff1663f66a1b71856040518263ffffffff1660e01b81526004016109929190611573565b6040805180830381865afa1580156109ac573d5f5f3e3d5ffd5b505050506040513d601f19601f820116820180604052508101906109d091906115e7565b915091505f6002856040516109e59190611525565b90815260200160405180910390205f9054906101000a900460ff1690505f8313610a44576040517f08c379a0000000000000000000000000000000000000000000000000000000008152600401610a3b906116d7565b60405180910390fd5b5f60128260ff161015610a7c57816012610a5e9190611722565b600a610a6a9190611885565b84610a7591906118cf565b9050610ab8565b60128260ff161115610ab357601282610a959190611722565b600a610aa19190611885565b84610aac919061193d565b9050610ab7565b8390505b5b80945050505050919050565b610acc610d5f565b5f73ffffffffffffffffffffffffffffffffffffffff168173ffffffffffffffffffffffffffffffffffffffff1603610b3c575f6040517f1e4fbdf7000000000000000000000000000000000000000000000000000000008152600401610b33919061119d565b60405180910390fd5b610b4581610de6565b50565b5f5f5f600184604051610b5b9190611525565b90815260200160405180910390205f9054906101000a900473ffffffffffffffffffffffffffffffffffffffff1690505f73ffffffffffffffffffffffffffffffffffffffff168173ffffffffffffffffffffffffffffffffffffffff1603610bf9576040517f08c379a0000000000000000000000000000000000000000000000000000000008152600401610bf0906119b7565b60405180910390fd5b5f8190505f5f5f5f5f8573ffffffffffffffffffffffffffffffffffffffff1663feaf968c6040518163ffffffff1660e01b815260040160a060405180830381865afa158015610c4b573d5f5f3e3d5ffd5b505050506040513d601f19601f82011682018060405250810190610c6f9190611a14565b945094509450945094505f8413610cbb576040517f08c379a0000000000000000000000000000000000000000000000000000000008152600401610cb290611ad5565b60405180910390fd5b5f8211610cfd576040517f08c379a0000000000000000000000000000000000000000000000000000000008152600401610cf490611b3d565b60405180910390fd5b612a308242610d0c9190611b5b565b1115610d4d576040517f08c379a0000000000000000000000000000000000000000000000000000000008152600401610d4490611bd8565b60405180910390fd5b83829850985050505050505050915091565b610d67610ea7565b73ffffffffffffffffffffffffffffffffffffffff16610d8561065b565b73ffffffffffffffffffffffffffffffffffffffff1614610de457610da8610ea7565b6040517f118cdaa7000000000000000000000000000000000000000000000000000000008152600401610ddb919061119d565b60405180910390fd5b565b5f5f5f9054906101000a900473ffffffffffffffffffffffffffffffffffffffff169050815f5f6101000a81548173ffffffffffffffffffffffffffffffffffffffff021916908373ffffffffffffffffffffffffffffffffffffffff1602179055508173ffffffffffffffffffffffffffffffffffffffff168173ffffffffffffffffffffffffffffffffffffffff167f8be0079c531659141344cd1fd0a4f28419497f9722a3daafe3b4186f6b6457e060405160405180910390a35050565b5f33905090565b5f604051905090565b5f5ffd5b5f5ffd5b5f5ffd5b5f5ffd5b5f601f19601f8301169050919050565b7f4e487b71000000000000000000000000000000000000000000000000000000005f52604160045260245ffd5b610f0d82610ec7565b810181811067ffffffffffffffff82111715610f2c57610f2b610ed7565b5b80604052505050565b5f610f3e610eae565b9050610f4a8282610f04565b919050565b5f67ffffffffffffffff821115610f6957610f68610ed7565b5b610f7282610ec7565b9050602081019050919050565b828183375f83830152505050565b5f610f9f610f9a84610f4f565b610f35565b905082815260208101848484011115610fbb57610fba610ec3565b5b610fc6848285610f7f565b509392505050565b5f82601f830112610fe257610fe1610ebf565b5b8135610ff2848260208601610f8d565b91505092915050565b5f73ffffffffffffffffffffffffffffffffffffffff82169050919050565b5f61102482610ffb565b9050919050565b6110348161101a565b811461103e575f5ffd5b50565b5f8135905061104f8161102b565b92915050565b5f5f6040838503121561106b5761106a610eb7565b5b5f83013567ffffffffffffffff81111561108857611087610ebb565b5b61109485828601610fce565b92505060206110a585828601611041565b9150509250929050565b5f602082840312156110c4576110c3610eb7565b5b5f82013567ffffffffffffffff8111156110e1576110e0610ebb565b5b6110ed84828501610fce565b91505092915050565b5f60ff82169050919050565b61110b816110f6565b82525050565b5f6020820190506111245f830184611102565b92915050565b5f8115159050919050565b61113e8161112a565b82525050565b5f6020820190506111575f830184611135565b92915050565b5f819050919050565b61116f8161115d565b82525050565b5f6020820190506111885f830184611166565b92915050565b6111978161101a565b82525050565b5f6020820190506111b05f83018461118e565b92915050565b5f81519050919050565b5f82825260208201905092915050565b5f819050602082019050919050565b5f81519050919050565b5f82825260208201905092915050565b8281835e5f83830152505050565b5f611211826111df565b61121b81856111e9565b935061122b8185602086016111f9565b61123481610ec7565b840191505092915050565b5f61124a8383611207565b905092915050565b5f602082019050919050565b5f611268826111b6565b61127281856111c0565b935083602082028501611284856111d0565b805f5b858110156112bf57848403895281516112a0858261123f565b94506112ab83611252565b925060208a01995050600181019050611287565b50829750879550505050505092915050565b5f6020820190508181035f8301526112e9818461125e565b905092915050565b5f819050919050565b611303816112f1565b82525050565b5f60608201905061131c5f8301866112fa565b6113296020830185611102565b6113366040830184611166565b949350505050565b5f6020828403121561135357611352610eb7565b5b5f61136084828501611041565b91505092915050565b5f60408201905061137c5f8301856112fa565b6113896020830184611166565b9392505050565b5f82825260208201905092915050565b7f507269636520666565642063616e6e6f74206265207a65726f206164647265735f8201527f7300000000000000000000000000000000000000000000000000000000000000602082015250565b5f6113fa602183611390565b9150611405826113a0565b604082019050919050565b5f6020820190508181035f830152611427816113ee565b9050919050565b7f506169722063616e6e6f7420626520656d7074790000000000000000000000005f82015250565b5f611462601483611390565b915061146d8261142e565b602082019050919050565b5f6020820190508181035f83015261148f81611456565b9050919050565b61149f816110f6565b81146114a9575f5ffd5b50565b5f815190506114ba81611496565b92915050565b5f602082840312156114d5576114d4610eb7565b5b5f6114e2848285016114ac565b91505092915050565b5f81905092915050565b5f6114ff826111df565b61150981856114eb565b93506115198185602086016111f9565b80840191505092915050565b5f61153082846114f5565b915081905092915050565b5f611545826111df565b61154f8185611390565b935061155f8185602086016111f9565b61156881610ec7565b840191505092915050565b5f6020820190508181035f83015261158b818461153b565b905092915050565b61159c816112f1565b81146115a6575f5ffd5b50565b5f815190506115b781611593565b92915050565b6115c68161115d565b81146115d0575f5ffd5b50565b5f815190506115e1816115bd565b92915050565b5f5f604083850312156115fd576115fc610eb7565b5b5f61160a858286016115a9565b925050602061161b858286016115d3565b9150509250929050565b7f5072696365206665656420646f6573206e6f74206578697374000000000000005f82015250565b5f611659601983611390565b915061166482611625565b602082019050919050565b5f6020820190508181035f8301526116868161164d565b9050919050565b7f5072696365206d75737420626520706f736974697665000000000000000000005f82015250565b5f6116c1601683611390565b91506116cc8261168d565b602082019050919050565b5f6020820190508181035f8301526116ee816116b5565b9050919050565b7f4e487b71000000000000000000000000000000000000000000000000000000005f52601160045260245ffd5b5f61172c826110f6565b9150611737836110f6565b9250828203905060ff8111156117505761174f6116f5565b5b92915050565b5f8160011c9050919050565b5f5f8291508390505b60018511156117ab57808604811115611787576117866116f5565b5b60018516156117965780820291505b80810290506117a485611756565b945061176b565b94509492505050565b5f826117c3576001905061187e565b816117d0575f905061187e565b81600181146117e657600281146117f05761181f565b600191505061187e565b60ff841115611802576118016116f5565b5b8360020a915084821115611819576118186116f5565b5b5061187e565b5060208310610133831016604e8410600b84101617156118545782820a90508381111561184f5761184e6116f5565b5b61187e565b6118618484846001611762565b92509050818404811115611878576118776116f5565b5b81810290505b9392505050565b5f61188f8261115d565b915061189a836110f6565b92506118c77fffffffffffffffffffffffffffffffffffffffffffffffffffffffffffffffff84846117b4565b905092915050565b5f6118d98261115d565b91506118e48361115d565b92508282026118f28161115d565b91508282048414831517611909576119086116f5565b5b5092915050565b7f4e487b71000000000000000000000000000000000000000000000000000000005f52601260045260245ffd5b5f6119478261115d565b91506119528361115d565b92508261196257611961611910565b5b828204905092915050565b7f50726963652066656564206e6f7420666f756e640000000000000000000000005f82015250565b5f6119a1601483611390565b91506119ac8261196d565b602082019050919050565b5f6020820190508181035f8301526119ce81611995565b9050919050565b5f69ffffffffffffffffffff82169050919050565b6119f3816119d5565b81146119fd575f5ffd5b50565b5f81519050611a0e816119ea565b92915050565b5f5f5f5f5f60a08688031215611a2d57611a2c610eb7565b5b5f611a3a88828901611a00565b9550506020611a4b888289016115a9565b9450506040611a5c888289016115d3565b9350506060611a6d888289016115d3565b9250506080611a7e88828901611a00565b9150509295509295909350565b7f496e76616c69642070726963652066726f6d206f7261636c65000000000000005f82015250565b5f611abf601983611390565b9150611aca82611a8b565b602082019050919050565b5f6020820190508181035f830152611aec81611ab3565b9050919050565b7f526f756e64206e6f7420636f6d706c65746500000000000000000000000000005f82015250565b5f611b27601283611390565b9150611b3282611af3565b602082019050919050565b5f6020820190508181035f830152611b5481611b1b565b9050919050565b5f611b658261115d565b9150611b708361115d565b9250828203905081811115611b8857611b876116f5565b5b92915050565b7f50726963652064617461206973207374616c65000000000000000000000000005f82015250565b5f611bc2601383611390565b9150611bcd82611b8e565b602082019050919050565b5f6020820190508181035f830152611bef81611bb6565b905091905056fea2646970667358221220338ffed76df4cb0b45e0a87c5d5281a968cf38cd652bc123f31801d8cdfc67e964736f6c634300081e0033","linkReferences":{}},"methodIdentifiers":{"PRICE_PRECISION()":"95082d25","STALENESS_THRESHOLD()":"7215b0bf","addPriceFeed(string,address)":"0dc16e1f","feedDecimals(string)":"597095ed","getLatestPrice(string)":"f66a1b71","getLatestPriceWithDecimals(string)":"d831281b","getNormalizedPrice(string)":"ed917cee","getSupportedPairs()":"d527c998","isPriceFeedActive(string)":"5e38887d","owner()":"8da5cb5b","priceFeeds(string)":"cb8ae86c","removePriceFeed(string)":"db904dfa","renounceOwnership()":"715018a6","transferOwnership(address)":"f2fde38b"},"id":21}